{
  "contractName": "CoinFlipGame",
  "abi": [
    {
      "inputs": [
        {
          "internalType": "uint64",
          "name": "subscriptionId",
          "type": "uint64"
        },
        {
          "internalType": "address",
          "name": "vrfCoordinator",
          "type": "address"
        },
        {
          "internalType": "bytes32",
          "name": "_keyHash",
          "type": "bytes32"
        },
        {
          "internalType": "uint32",
          "name": "_callbackGasLimit",
          "type": "uint32"
        },
        {
          "internalType": "uint16",
          "name": "_requestConfirmations",
          "type": "uint16"
        },
        {
          "internalType": "address",
          "name": "_gamesHub",
          "type": "address"
        }
      ],
      "stateMutability": "nonpayable",
      "type": "constructor"
    },
    {
      "inputs": [
        {
          "internalType": "address",
          "name": "have",
          "type": "address"
        },
        {
          "internalType": "address",
          "name": "want",
          "type": "address"
        }
      ],
      "name": "OnlyCoordinatorCanFulfill",
      "type": "error"
    },
    {
      "anonymous": false,
      "inputs": [
        {
          "indexed": true,
          "internalType": "address",
          "name": "player",
          "type": "address"
        },
        {
          "indexed": true,
          "internalType": "uint256",
          "name": "nonce",
          "type": "uint256"
        },
        {
          "indexed": true,
          "internalType": "uint256",
          "name": "rngNonce",
          "type": "uint256"
        },
        {
          "indexed": false,
          "internalType": "uint256",
          "name": "creditAmount",
          "type": "uint256"
        }
      ],
      "name": "CoinFlipped",
      "type": "event"
    },
    {
      "anonymous": false,
      "inputs": [
        {
          "indexed": true,
          "internalType": "uint256",
          "name": "nonce",
          "type": "uint256"
        },
        {
          "indexed": true,
          "internalType": "address",
          "name": "player",
          "type": "address"
        },
        {
          "indexed": false,
          "internalType": "uint256",
          "name": "volumeIn",
          "type": "uint256"
        },
        {
          "indexed": false,
          "internalType": "uint256",
          "name": "volumeOut",
          "type": "uint256"
        },
        {
          "indexed": false,
          "internalType": "uint8",
          "name": "result",
          "type": "uint8"
        },
        {
          "indexed": false,
          "internalType": "uint256",
          "name": "fee",
          "type": "uint256"
        },
        {
          "indexed": false,
          "internalType": "bool",
          "name": "heads",
          "type": "bool"
        },
        {
          "indexed": false,
          "internalType": "address",
          "name": "game",
          "type": "address"
        }
      ],
      "name": "GameFinished",
      "type": "event"
    },
    {
      "anonymous": false,
      "inputs": [
        {
          "indexed": true,
          "internalType": "uint256",
          "name": "nonce",
          "type": "uint256"
        },
        {
          "indexed": true,
          "internalType": "address",
          "name": "player",
          "type": "address"
        },
        {
          "indexed": false,
          "internalType": "uint256",
          "name": "volume",
          "type": "uint256"
        }
      ],
      "name": "GameRefunded",
      "type": "event"
    },
    {
      "anonymous": false,
      "inputs": [
        {
          "indexed": false,
          "internalType": "bool",
          "name": "_keepFees",
          "type": "bool"
        }
      ],
      "name": "KeepFeesChanged",
      "type": "event"
    },
    {
      "anonymous": false,
      "inputs": [
        {
          "indexed": false,
          "internalType": "uint256",
          "name": "maxLimit",
          "type": "uint256"
        },
        {
          "indexed": false,
          "internalType": "uint256",
          "name": "minLimit",
          "type": "uint256"
        },
        {
          "indexed": false,
          "internalType": "bool",
          "name": "limitTypeFixed",
          "type": "bool"
        },
        {
          "indexed": false,
          "internalType": "uint8",
          "name": "feeFromBet",
          "type": "uint8"
        },
        {
          "indexed": false,
          "internalType": "uint8",
          "name": "feePercFromWin",
          "type": "uint8"
        }
      ],
      "name": "LimitsAndChancesChanged",
      "type": "event"
    },
    {
      "anonymous": false,
      "inputs": [
        {
          "indexed": true,
          "internalType": "address",
          "name": "from",
          "type": "address"
        },
        {
          "indexed": true,
          "internalType": "address",
          "name": "to",
          "type": "address"
        }
      ],
      "name": "OwnershipTransferRequested",
      "type": "event"
    },
    {
      "anonymous": false,
      "inputs": [
        {
          "indexed": true,
          "internalType": "address",
          "name": "from",
          "type": "address"
        },
        {
          "indexed": true,
          "internalType": "address",
          "name": "to",
          "type": "address"
        }
      ],
      "name": "OwnershipTransferred",
      "type": "event"
    },
    {
      "inputs": [],
      "name": "acceptOwnership",
      "outputs": [],
      "stateMutability": "nonpayable",
      "type": "function"
    },
    {
      "inputs": [],
      "name": "feeFromBet",
      "outputs": [
        {
          "internalType": "uint256",
          "name": "",
          "type": "uint256"
        }
      ],
      "stateMutability": "view",
      "type": "function"
    },
    {
      "inputs": [],
      "name": "feePercFromWin",
      "outputs": [
        {
          "internalType": "uint8",
          "name": "",
          "type": "uint8"
        }
      ],
      "stateMutability": "view",
      "type": "function"
    },
    {
      "inputs": [
        {
          "internalType": "uint256",
          "name": "",
          "type": "uint256"
        }
      ],
      "name": "games",
      "outputs": [
        {
          "internalType": "address",
          "name": "player",
          "type": "address"
        },
        {
          "internalType": "uint256",
          "name": "amount",
          "type": "uint256"
        },
        {
          "internalType": "bool",
          "name": "heads",
          "type": "bool"
        },
        {
          "internalType": "uint8",
          "name": "result",
          "type": "uint8"
        }
      ],
      "stateMutability": "view",
      "type": "function"
    },
    {
      "inputs": [],
      "name": "gamesHub",
      "outputs": [
        {
          "internalType": "contract IGamesHub",
          "name": "",
          "type": "address"
        }
      ],
      "stateMutability": "view",
      "type": "function"
    },
    {
      "inputs": [],
      "name": "maxLimit",
      "outputs": [
        {
          "internalType": "uint256",
          "name": "",
          "type": "uint256"
        }
      ],
      "stateMutability": "view",
      "type": "function"
    },
    {
      "inputs": [],
      "name": "minLimit",
      "outputs": [
        {
          "internalType": "uint256",
          "name": "",
          "type": "uint256"
        }
      ],
      "stateMutability": "view",
      "type": "function"
    },
    {
      "inputs": [],
      "name": "owner",
      "outputs": [
        {
          "internalType": "address",
          "name": "",
          "type": "address"
        }
      ],
      "stateMutability": "view",
      "type": "function"
    },
    {
      "inputs": [
        {
          "internalType": "uint256",
          "name": "requestId",
          "type": "uint256"
        },
        {
          "internalType": "uint256[]",
          "name": "randomWords",
          "type": "uint256[]"
        }
      ],
      "name": "rawFulfillRandomWords",
      "outputs": [],
      "stateMutability": "nonpayable",
      "type": "function"
    },
    {
      "inputs": [],
      "name": "token",
      "outputs": [
        {
          "internalType": "contract IERC20",
          "name": "",
          "type": "address"
        }
      ],
      "stateMutability": "view",
      "type": "function"
    },
    {
      "inputs": [],
      "name": "totalBet",
      "outputs": [
        {
          "internalType": "uint256",
          "name": "",
          "type": "uint256"
        }
      ],
      "stateMutability": "view",
      "type": "function"
    },
    {
      "inputs": [
        {
          "internalType": "address",
          "name": "to",
          "type": "address"
        }
      ],
      "name": "transferOwnership",
      "outputs": [],
      "stateMutability": "nonpayable",
      "type": "function"
    },
    {
      "inputs": [
        {
          "internalType": "bool",
          "name": "_heads",
          "type": "bool"
        },
        {
          "internalType": "uint256",
          "name": "_amount",
          "type": "uint256"
        }
      ],
      "name": "coinFlip",
      "outputs": [],
      "stateMutability": "nonpayable",
      "type": "function"
    },
    {
      "inputs": [
        {
          "internalType": "uint256",
          "name": "_nonce",
          "type": "uint256"
        }
      ],
      "name": "refundGame",
      "outputs": [],
      "stateMutability": "nonpayable",
      "type": "function"
    },
    {
      "inputs": [
        {
          "internalType": "uint256",
          "name": "_maxLimit",
          "type": "uint256"
        },
        {
          "internalType": "uint256",
          "name": "_minLimit",
          "type": "uint256"
        },
        {
          "internalType": "bool",
          "name": "_limitTypeFixed",
          "type": "bool"
        },
        {
          "internalType": "uint8",
          "name": "_feeFromBet",
          "type": "uint8"
        },
        {
          "internalType": "uint8",
          "name": "_feePercFromWin",
          "type": "uint8"
        }
      ],
      "name": "changeLimitsAndChances",
      "outputs": [],
      "stateMutability": "nonpayable",
      "type": "function"
    },
    {
      "inputs": [
        {
          "internalType": "bool",
          "name": "_keepFees",
          "type": "bool"
        }
      ],
      "name": "changeKeepFees",
      "outputs": [],
      "stateMutability": "nonpayable",
      "type": "function"
    },
    {
      "inputs": [
        {
          "internalType": "address",
          "name": "_token",
          "type": "address"
        }
      ],
      "name": "changeToken",
      "outputs": [],
      "stateMutability": "nonpayable",
      "type": "function"
    },
    {
      "inputs": [
        {
          "internalType": "bytes32",
          "name": "_keyHash",
          "type": "bytes32"
        }
      ],
      "name": "changeKeyHash",
      "outputs": [],
      "stateMutability": "nonpayable",
      "type": "function"
    },
    {
      "inputs": [
        {
          "internalType": "uint256",
          "name": "_amount",
          "type": "uint256"
        }
      ],
      "name": "withdrawTokens",
      "outputs": [],
      "stateMutability": "nonpayable",
      "type": "function"
    }
  ],
  "bytecode": "0x60a0604052633b9aca00600555620f4240600655620111706007556008805462ffffff191661010f17905560006009553480156200003c57600080fd5b50604051620021ff380380620021ff8339810160408190526200005f91620002e9565b6001600160a01b0385166080523380600081620000c35760405162461bcd60e51b815260206004820152601860248201527f43616e6e6f7420736574206f776e657220746f207a65726f000000000000000060448201526064015b60405180910390fd5b600080546001600160a01b0319166001600160a01b0384811691909117909155811615620000f657620000f68162000221565b5050600b80546001600160a01b038881166001600160e01b031990921691909117600160a01b6001600160401b038b160217909155600c869055600d805463ffffffff871665ffffffffffff199091161764010000000061ffff871602179055600280546001600160a01b031916918416918217905560405163a7ad58bf60e01b81527f96706879d29c248edfb2a2563a8a9d571c49634c0f82013e6f5a7cde739d35d4600482015290915063a7ad58bf90602401602060405180830381865afa158015620001c9573d6000803e3d6000fd5b505050506040513d601f19601f82011682018060405250810190620001ef919062000381565b600380546001600160a01b0319166001600160a01b03929092169190911790555050600060045550620003a692505050565b336001600160a01b038216036200027b5760405162461bcd60e51b815260206004820152601760248201527f43616e6e6f74207472616e7366657220746f2073656c660000000000000000006044820152606401620000ba565b600180546001600160a01b0319166001600160a01b0383811691821790925560008054604051929316917fed8889f560326eb138920d842192f0eb3dd22b4f139c87a2c57538e05bae12789190a350565b80516001600160a01b0381168114620002e457600080fd5b919050565b60008060008060008060c087890312156200030357600080fd5b86516001600160401b03811681146200031b57600080fd5b95506200032b60208801620002cc565b945060408701519350606087015163ffffffff811681146200034c57600080fd5b608088015190935061ffff811681146200036557600080fd5b91506200037560a08801620002cc565b90509295509295509295565b6000602082840312156200039457600080fd5b6200039f82620002cc565b9392505050565b608051611e36620003c96000396000818161030301526103450152611e366000f3fe608060405234801561001057600080fd5b50600436106101215760003560e01c806366829b16116100ad578063d640424111610071578063d6404241146102a3578063d7260cba146102b6578063f2fde38b146102c9578063fc0c546a146102dc578063fe5e1853146102ef57600080fd5b806366829b161461025157806379ba5097146102645780638da5cb5b1461026c578063a2dda0411461027d578063be29116a1461029057600080fd5b80631fe543e3116100f45780631fe543e3146101ee5780632d65b8ed146102035780632f68f4821461020c578063315a095d1461021f5780636419729f1461023257600080fd5b80630cc50bd214610126578063117a5b90146101565780631a861d26146101ce5780631fd8088d146101e5575b600080fd5b600254610139906001600160a01b031681565b6040516001600160a01b0390911681526020015b60405180910390f35b61019b610164366004611ae9565b600a602052600090815260409020805460018201546002909201546001600160a01b03909116919060ff8082169161010090041684565b604080516001600160a01b03909516855260208501939093529015159183019190915260ff16606082015260800161014d565b6101d760055481565b60405190815260200161014d565b6101d760065481565b6102016101fc366004611b18565b6102f8565b005b6101d760075481565b61020161021a366004611ae9565b610385565b61020161022d366004611ae9565b610482565b60085461023f9060ff1681565b60405160ff909116815260200161014d565b61020161025f366004611bf7565b61069b565b610201610941565b6000546001600160a01b0316610139565b61020161028b366004611c29565b6109eb565b61020161029e366004611c5c565b610b39565b6102016102b1366004611cb5565b610d8a565b6102016102c4366004611ae9565b611453565b6102016102d7366004611bf7565b611692565b600354610139906001600160a01b031681565b6101d760045481565b336001600160a01b037f000000000000000000000000000000000000000000000000000000000000000016146103775760405163073e64fd60e21b81523360048201526001600160a01b037f00000000000000000000000000000000000000000000000000000000000000001660248201526044015b60405180910390fd5b61038182826116a6565b5050565b60025460408051631d6c8e3f60e21b815290516001600160a01b03909216916312d9a6ad9183916375b238fc916004808201926020929091908290030181865afa1580156103d7573d6000803e3d6000fd5b505050506040513d601f19601f820116820180604052508101906103fb9190611ce1565b6040516001600160e01b031960e084901b1681526004810191909152336024820152604401602060405180830381865afa15801561043d573d6000803e3d6000fd5b505050506040513d601f19601f820116820180604052508101906104619190611cfa565b61047d5760405162461bcd60e51b815260040161036e90611d17565b600c55565b60025460408051631d6c8e3f60e21b815290516001600160a01b03909216916312d9a6ad9183916375b238fc916004808201926020929091908290030181865afa1580156104d4573d6000803e3d6000fd5b505050506040513d601f19601f820116820180604052508101906104f89190611ce1565b6040516001600160e01b031960e084901b1681526004810191909152336024820152604401602060405180830381865afa15801561053a573d6000803e3d6000fd5b505050506040513d601f19601f8201168201806040525081019061055e9190611cfa565b61057a5760405162461bcd60e51b815260040161036e90611d17565b600454156105b25760405162461bcd60e51b815260206004820152600560248201526443462d303760d81b604482015260640161036e565b600354600254604080516336b19cd760e01b815290516001600160a01b039384169363a9059cbb9316916336b19cd79160048083019260209291908290030181865afa158015610606573d6000803e3d6000fd5b505050506040513d601f19601f8201168201806040525081019061062a9190611d36565b6040516001600160e01b031960e084901b1681526001600160a01b039091166004820152602481018490526044016020604051808303816000875af1158015610677573d6000803e3d6000fd5b505050506040513d601f19601f820116820180604052508101906103819190611cfa565b60025460408051631d6c8e3f60e21b815290516001600160a01b03909216916312d9a6ad9183916375b238fc916004808201926020929091908290030181865afa1580156106ed573d6000803e3d6000fd5b505050506040513d601f19601f820116820180604052508101906107119190611ce1565b6040516001600160e01b031960e084901b1681526004810191909152336024820152604401602060405180830381865afa158015610753573d6000803e3d6000fd5b505050506040513d601f19601f820116820180604052508101906107779190611cfa565b6107935760405162461bcd60e51b815260040161036e90611d17565b600454156107cb5760405162461bcd60e51b815260206004820152600560248201526443462d303760d81b604482015260640161036e565b600354600254604080516336b19cd760e01b815290516001600160a01b039384169363a9059cbb9316916336b19cd79160048083019260209291908290030181865afa15801561081f573d6000803e3d6000fd5b505050506040513d601f19601f820116820180604052508101906108439190611d36565b6003546040516370a0823160e01b81523060048201526001600160a01b03909116906370a0823190602401602060405180830381865afa15801561088b573d6000803e3d6000fd5b505050506040513d601f19601f820116820180604052508101906108af9190611ce1565b6040516001600160e01b031960e085901b1681526001600160a01b03909216600483015260248201526044016020604051808303816000875af11580156108fa573d6000803e3d6000fd5b505050506040513d601f19601f8201168201806040525081019061091e9190611cfa565b50600380546001600160a01b0319166001600160a01b0392909216919091179055565b6001546001600160a01b031633146109945760405162461bcd60e51b815260206004820152601660248201527526bab9ba10313290383937b837b9b2b21037bbb732b960511b604482015260640161036e565b60008054336001600160a01b0319808316821784556001805490911690556040516001600160a01b0390921692909183917f8be0079c531659141344cd1fd0a4f28419497f9722a3daafe3b4186f6b6457e091a350565b60025460408051631d6c8e3f60e21b815290516001600160a01b03909216916312d9a6ad9183916375b238fc916004808201926020929091908290030181865afa158015610a3d573d6000803e3d6000fd5b505050506040513d601f19601f82011682018060405250810190610a619190611ce1565b6040516001600160e01b031960e084901b1681526004810191909152336024820152604401602060405180830381865afa158015610aa3573d6000803e3d6000fd5b505050506040513d601f19601f82011682018060405250810190610ac79190611cfa565b610ae35760405162461bcd60e51b815260040161036e90611d17565b60088054821515620100000262ff0000199091161790556040517f60f3115279654f0dde209396aeb5e0fbd0ee38a3c1171dd4b3324fdcbf807b1e90610b2e90831515815260200190565b60405180910390a150565b60025460408051631d6c8e3f60e21b815290516001600160a01b03909216916312d9a6ad9183916375b238fc916004808201926020929091908290030181865afa158015610b8b573d6000803e3d6000fd5b505050506040513d601f19601f82011682018060405250810190610baf9190611ce1565b6040516001600160e01b031960e084901b1681526004810191909152336024820152604401602060405180830381865afa158015610bf1573d6000803e3d6000fd5b505050506040513d601f19601f82011682018060405250810190610c159190611cfa565b610c315760405162461bcd60e51b815260040161036e90611d17565b83851015610c695760405162461bcd60e51b815260206004820152600560248201526421a316981b60d91b604482015260640161036e565b6101f48160ff161115610ca65760405162461bcd60e51b81526020600482015260056024820152640868c5a60760db1b604482015260640161036e565b600854610100900460ff16610cfb5760648511158015610cc7575060648411155b610cfb5760405162461bcd60e51b815260206004820152600560248201526421a316989960d91b604482015260640161036e565b600585905560068490556008805460ff848116600781905561ffff1990921661010087151590810260ff19169190911791851691821790935560408051888152602081018a905290810193909352606083019190915260808201527ffebcca72095f2fc322ff63bdd298db612fde4d3c9375785296deb1d288deac839060a00160405180910390a15050505050565b6003546040516370a0823160e01b81523060048201526000916001600160a01b0316906370a0823190602401602060405180830381865afa158015610dd3573d6000803e3d6000fd5b505050506040513d601f19601f82011682018060405250810190610df79190611ce1565b600854909150610100900460ff1615610e57576005548211158015610e1e57506006548210155b610e525760405162461bcd60e51b815260206004820152600560248201526443462d303160d81b604482015260640161036e565b610ecd565b606481600554610e679190611d69565b610e719190611d9c565b8211158015610e995750606481600654610e8b9190611d69565b610e959190611d9c565b8210155b610ecd5760405162461bcd60e51b815260206004820152600560248201526443462d303160d81b604482015260640161036e565b81600454610edb9190611db0565b610ee6906002611d69565b811015610f1d5760405162461bcd60e51b815260206004820152600560248201526421a316981960d91b604482015260640161036e565b600260009054906101000a90046001600160a01b03166001600160a01b031663627cdcb96040518163ffffffff1660e01b8152600401600060405180830381600087803b158015610f6d57600080fd5b505af1158015610f81573d6000803e3d6000fd5b5050505060075482610f939190611dc3565b6003546040516323b872dd60e01b8152336004820152306024820152604481018390529193506001600160a01b0316906323b872dd906064016020604051808303816000875af1158015610feb573d6000803e3d6000fd5b505050506040513d601f19601f8201168201806040525081019061100f9190611cfa565b5060035460025460405163a7ad58bf60e01b81527f06aa03964db1f7257357ef09714a5f0ca3633723df419e97015e0c7a3e83edb760048201526001600160a01b03928316926323b872dd92339291169063a7ad58bf90602401602060405180830381865afa158015611086573d6000803e3d6000fd5b505050506040513d601f19601f820116820180604052508101906110aa9190611d36565b6007546040516001600160e01b031960e086901b1681526001600160a01b03938416600482015292909116602483015260448201526064016020604051808303816000875af1158015611101573d6000803e3d6000fd5b505050506040513d601f19601f820116820180604052508101906111259190611cfa565b506040518060800160405280336001600160a01b031681526020018381526020018415158152602001600060ff16815250600a6000600260009054906101000a90046001600160a01b03166001600160a01b031663affed0e06040518163ffffffff1660e01b8152600401602060405180830381865afa1580156111ad573d6000803e3d6000fd5b505050506040513d601f19601f820116820180604052508101906111d19190611ce1565b815260208082019290925260409081016000908120845181546001600160a01b0319166001600160a01b0391821617825593850151600180830191909155858401516002909201805460609097015161ffff1990971692151561ff0019169290921761010060ff90971696909602959095179055600b54600c54600d5493516305d3b1d360e41b81526004810191909152600160a01b820467ffffffffffffffff166024820152640100000000840461ffff16604482015263ffffffff909316606484015260848301949094529290911690635d3b1d309060a4016020604051808303816000875af11580156112cb573d6000803e3d6000fd5b505050506040513d601f19601f820116820180604052508101906112ef9190611ce1565b9050600260009054906101000a90046001600160a01b03166001600160a01b031663affed0e06040518163ffffffff1660e01b8152600401602060405180830381865afa158015611344573d6000803e3d6000fd5b505050506040513d601f19601f820116820180604052508101906113689190611ce1565b6000828152600e60205260408120919091556004805485929061138c908490611db0565b925050819055506001600960008282546113a69190611db0565b90915550506002546040805163057ff68760e51b8152905183926001600160a01b03169163affed0e09160048083019260209291908290030181865afa1580156113f4573d6000803e3d6000fd5b505050506040513d601f19601f820116820180604052508101906114189190611ce1565b60405185815233907f577ee7b6aeb61c2eddd20e062dd7e4e9217cc5b0c2e6b12844f75e8aff04d41b9060200160405180910390a450505050565b60025460408051631d6c8e3f60e21b815290516001600160a01b03909216916312d9a6ad9183916375b238fc916004808201926020929091908290030181865afa1580156114a5573d6000803e3d6000fd5b505050506040513d601f19601f820116820180604052508101906114c99190611ce1565b6040516001600160e01b031960e084901b1681526004810191909152336024820152604401602060405180830381865afa15801561150b573d6000803e3d6000fd5b505050506040513d601f19601f8201168201806040525081019061152f9190611cfa565b61154b5760405162461bcd60e51b815260040161036e90611d17565b6000818152600a602052604090206002810154610100900460ff161561159b5760405162461bcd60e51b815260206004820152600560248201526410d18b4c0d60da1b604482015260640161036e565b6003548154600183015460405163a9059cbb60e01b81526001600160a01b039283166004820152602481019190915291169063a9059cbb906044016020604051808303816000875af11580156115f5573d6000803e3d6000fd5b505050506040513d601f19601f820116820180604052508101906116199190611cfa565b508060010154600460008282546116309190611dc3565b909155505060028101805461ff001916610300179055805460018201546040519081526001600160a01b039091169083907ffa155f416059e21f529e5445cc0a44fc2e61c29bf131685ac80870ccf021b9099060200160405180910390a35050565b61169a6119eb565b6116a381611a40565b50565b6000828152600e60209081526040808320548352600a90915290206002810154610100900460ff16156116d857505050565b60008060006002856000815181106116f2576116f2611dd6565b60200260200101516117049190611dec565b600114905080801561171a5750600284015460ff165b806117335750801580156117335750600284015460ff16155b1561192e5760028401805461ff00191661010017905560085460018501546103e8916117659160ff9190911690611d69565b61176f9190611d9c565b91508184600101546117819190611dc3565b92508360010154836117939190611db0565b600354855460405163a9059cbb60e01b81526001600160a01b03918216600482015260248101849052929550169063a9059cbb906044016020604051808303816000875af11580156117e9573d6000803e3d6000fd5b505050506040513d601f19601f8201168201806040525081019061180d9190611cfa565b5060085462010000900460ff16156119295760035460025460405163a7ad58bf60e01b81527f06aa03964db1f7257357ef09714a5f0ca3633723df419e97015e0c7a3e83edb760048201526001600160a01b039283169263a9059cbb92169063a7ad58bf90602401602060405180830381865afa158015611892573d6000803e3d6000fd5b505050506040513d601f19601f820116820180604052508101906118b69190611d36565b6040516001600160e01b031960e084901b1681526001600160a01b039091166004820152602481018590526044016020604051808303816000875af1158015611903573d6000803e3d6000fd5b505050506040513d601f19601f820116820180604052508101906119279190611cfa565b505b611940565b60028401805461ff0019166102001790555b8360010154600460008282546119569190611dc3565b909155505083546000878152600e60209081526040918290205460018801546002890154845191825292810188905261010090920460ff16928201929092526060810185905283151560808201523060a08201526001600160a01b03909216917f0a106b0f6be9d6351a67253e134825d60302111a7c303f09b02caeac389da5ec9060c00160405180910390a3505050505050565b6000546001600160a01b03163314611a3e5760405162461bcd60e51b815260206004820152601660248201527527b7363c9031b0b63630b1363290313c9037bbb732b960511b604482015260640161036e565b565b336001600160a01b03821603611a985760405162461bcd60e51b815260206004820152601760248201527f43616e6e6f74207472616e7366657220746f2073656c66000000000000000000604482015260640161036e565b600180546001600160a01b0319166001600160a01b0383811691821790925560008054604051929316917fed8889f560326eb138920d842192f0eb3dd22b4f139c87a2c57538e05bae12789190a350565b600060208284031215611afb57600080fd5b5035919050565b634e487b7160e01b600052604160045260246000fd5b60008060408385031215611b2b57600080fd5b8235915060208084013567ffffffffffffffff80821115611b4b57600080fd5b818601915086601f830112611b5f57600080fd5b813581811115611b7157611b71611b02565b8060051b604051601f19603f83011681018181108582111715611b9657611b96611b02565b604052918252848201925083810185019189831115611bb457600080fd5b938501935b82851015611bd257843584529385019392850192611bb9565b8096505050505050509250929050565b6001600160a01b03811681146116a357600080fd5b600060208284031215611c0957600080fd5b8135611c1481611be2565b9392505050565b80151581146116a357600080fd5b600060208284031215611c3b57600080fd5b8135611c1481611c1b565b803560ff81168114611c5757600080fd5b919050565b600080600080600060a08688031215611c7457600080fd5b85359450602086013593506040860135611c8d81611c1b565b9250611c9b60608701611c46565b9150611ca960808701611c46565b90509295509295909350565b60008060408385031215611cc857600080fd5b8235611cd381611c1b565b946020939093013593505050565b600060208284031215611cf357600080fd5b5051919050565b600060208284031215611d0c57600080fd5b8151611c1481611c1b565b60208082526005908201526443462d303560d81b604082015260600190565b600060208284031215611d4857600080fd5b8151611c1481611be2565b634e487b7160e01b600052601160045260246000fd5b8082028115828204841417611d8057611d80611d53565b92915050565b634e487b7160e01b600052601260045260246000fd5b600082611dab57611dab611d86565b500490565b80820180821115611d8057611d80611d53565b81810381811115611d8057611d80611d53565b634e487b7160e01b600052603260045260246000fd5b600082611dfb57611dfb611d86565b50069056fea264697066735822122053318f03c17edcdf5272a82114d52ef743b2523c522a3239f8eecafebad601b764736f6c63430008130033",
  "immutableReferences": {
    "304": [
      {
        "length": 32,
        "start": 771
      },
      {
        "length": 32,
        "start": 837
      }
    ]
  },
  "source": "// SPDX-License-Identifier: MIT\r\npragma solidity ^0.8.7;\r\n\r\nimport \"@chainlink/contracts/src/v0.8/vrf/VRFConsumerBaseV2.sol\";\r\nimport \"@chainlink/contracts/src/v0.8/interfaces/VRFCoordinatorV2Interface.sol\";\r\nimport \"@chainlink/contracts/src/v0.8/shared/access/ConfirmedOwner.sol\";\r\nimport \"../interfaces/IGamesHub.sol\";\r\nimport \"../interfaces/IERC20.sol\";\r\n\r\ncontract CoinFlipGame is VRFConsumerBaseV2, ConfirmedOwner {\r\n    event CoinFlipped(\r\n        address indexed player,\r\n        uint256 indexed nonce,\r\n        uint256 indexed rngNonce,\r\n        uint256 creditAmount\r\n    );\r\n    event GameFinished(\r\n        uint256 indexed nonce,\r\n        address indexed player,\r\n        uint256 volumeIn,\r\n        uint256 volumeOut,\r\n        uint8 result,\r\n        uint256 fee,\r\n        bool heads,\r\n        address game\r\n    );\r\n    event LimitsAndChancesChanged(\r\n        uint256 maxLimit,\r\n        uint256 minLimit,\r\n        bool limitTypeFixed,\r\n        uint8 feeFromBet,\r\n        uint8 feePercFromWin\r\n    );\r\n    event GameRefunded(\r\n        uint256 indexed nonce,\r\n        address indexed player,\r\n        uint256 volume\r\n    );\r\n\r\n    event KeepFeesChanged(bool _keepFees);\r\n\r\n    IGamesHub public gamesHub;\r\n    IERC20 public token;\r\n    uint256 public totalBet;\r\n    uint256 public maxLimit = 1000 * (10 ** 6); //default 1000 USDC\r\n    uint256 public minLimit = 1 * (10 ** 6); //default 1 USDC\r\n    uint256 public feeFromBet = 7 * (10 ** 4); //default 7 cents\r\n    uint8 public feePercFromWin = 15;\r\n    bool limitTypeFixed = true;\r\n    bool keepFees = false;\r\n    uint256 totalGames = 0;\r\n\r\n    struct Games {\r\n        address player;\r\n        uint256 amount;\r\n        bool heads;\r\n        uint8 result; // 0- not set, 1- win, 2- lose, 3- refunded\r\n    }\r\n    mapping(uint256 => Games) public games;\r\n\r\n    VRFCoordinatorV2Interface COORDINATOR;\r\n\r\n    // Chainlink subscription data struct, with the same subscription ID type as the VRF Coordinator\r\n    uint64 s_subscriptionId;\r\n    bytes32 keyHash;\r\n    uint32 callbackGasLimit;\r\n    uint16 requestConfirmations;\r\n\r\n    mapping(uint256 => uint256) gameNonce;\r\n\r\n    constructor(\r\n        uint64 subscriptionId,\r\n        address vrfCoordinator,\r\n        bytes32 _keyHash,\r\n        uint32 _callbackGasLimit,\r\n        uint16 _requestConfirmations,\r\n        address _gamesHub\r\n    ) VRFConsumerBaseV2(vrfCoordinator) ConfirmedOwner(msg.sender) {\r\n        COORDINATOR = VRFCoordinatorV2Interface(vrfCoordinator);\r\n        s_subscriptionId = subscriptionId;\r\n        keyHash = _keyHash;\r\n        callbackGasLimit = _callbackGasLimit;\r\n        requestConfirmations = _requestConfirmations;\r\n        gamesHub = IGamesHub(_gamesHub);\r\n        token = IERC20(gamesHub.helpers(keccak256(\"TOKEN\")));\r\n        totalBet = 0;\r\n    }\r\n\r\n    /**\r\n     * @dev Flip the coin, setting the bet amount and the side of the coin\r\n     * A request will be sent to the SupraOracles contract to get a random number\r\n     * @param _heads Heads or Tails\r\n     * @param _amount Amount of tokens to bet\r\n     */\r\n    function coinFlip(bool _heads, uint256 _amount) external {\r\n        uint256 balance = token.balanceOf(address(this));\r\n\r\n        if (limitTypeFixed) {\r\n            require(_amount <= maxLimit && _amount >= minLimit, \"CF-01\");\r\n        } else {\r\n            require(\r\n                _amount <= (maxLimit * balance) / 100 &&\r\n                    _amount >= (minLimit * balance) / 100,\r\n                \"CF-01\"\r\n            );\r\n        }\r\n\r\n        require(balance >= ((totalBet + _amount) * 2), \"CF-02\");\r\n\r\n        gamesHub.incrementNonce();\r\n\r\n        _amount -= feeFromBet;\r\n\r\n        token.transferFrom(msg.sender, address(this), _amount);\r\n        // Sending fee to the house\r\n        token.transferFrom(\r\n            msg.sender,\r\n            gamesHub.helpers(keccak256(\"TREASURY\")),\r\n            feeFromBet\r\n        );\r\n\r\n        games[gamesHub.nonce()] = Games(msg.sender, _amount, _heads, 0);\r\n\r\n        uint256 nonce = COORDINATOR.requestRandomWords(\r\n            keyHash,\r\n            s_subscriptionId,\r\n            requestConfirmations,\r\n            callbackGasLimit,\r\n            1\r\n        );\r\n        gameNonce[nonce] = gamesHub.nonce();\r\n\r\n        totalBet += _amount;\r\n        totalGames += 1;\r\n        emit CoinFlipped(msg.sender, gamesHub.nonce(), nonce, _amount);\r\n    }\r\n\r\n    /**\r\n     * @dev Callback function from the SupraOracles contract\r\n     * @param _requestId Request ID of the random number\r\n     * @param _randomWords Random number\r\n     */\r\n    function fulfillRandomWords(\r\n        uint256 _requestId,\r\n        uint256[] memory _randomWords\r\n    ) internal override {\r\n        Games storage game = games[gameNonce[_requestId]];\r\n        if (game.result > 0) return;\r\n\r\n        uint256 volume = 0;\r\n        uint256 _fee = 0;\r\n        bool heads = (_randomWords[0] % 2) == 1;\r\n\r\n        if ((heads && game.heads) || (!heads && !game.heads)) {\r\n            game.result = 1;\r\n            _fee = (game.amount * feePercFromWin) / 1000;\r\n            volume = game.amount - _fee;\r\n            volume += game.amount;\r\n            token.transfer(game.player, volume);\r\n            if (keepFees)\r\n                token.transfer(gamesHub.helpers(keccak256(\"TREASURY\")), _fee);\r\n        } else {\r\n            game.result = 2;\r\n        }\r\n        totalBet -= game.amount;\r\n\r\n        emit GameFinished(\r\n            gameNonce[_requestId],\r\n            game.player,\r\n            game.amount,\r\n            volume,\r\n            game.result,\r\n            _fee,\r\n            heads,\r\n            address(this)\r\n        );\r\n    }\r\n\r\n    /**\r\n     * @dev Refund the game to the player. To use only if some game is stuck.\r\n     * @param _nonce Nonce of the game\r\n     */\r\n    function refundGame(uint256 _nonce) external {\r\n        require(gamesHub.checkRole(gamesHub.ADMIN_ROLE(), msg.sender), \"CF-05\");\r\n        Games storage game = games[_nonce];\r\n        require(game.result == 0, \"CF-04\");\r\n\r\n        token.transfer(game.player, game.amount);\r\n        totalBet -= game.amount;\r\n        game.result = 3;\r\n\r\n        emit GameRefunded(_nonce, game.player, game.amount);\r\n    }\r\n\r\n    /**\r\n     * @dev Change the house chance and bet limit\r\n     * @param _maxLimit maximum bet limit\r\n     * @param _minLimit minimum bet limit\r\n     * @param _limitTypeFixed if true, the bet limit will be fixed, if false, the bet limit will be a percentage of the contract balance\r\n     * @param _feeFromBet fee from the bet\r\n     * @param _feePercFromWin fee percentage from the win\r\n     */\r\n    function changeLimitsAndChances(\r\n        uint256 _maxLimit,\r\n        uint256 _minLimit,\r\n        bool _limitTypeFixed,\r\n        uint8 _feeFromBet,\r\n        uint8 _feePercFromWin\r\n    ) public {\r\n        require(gamesHub.checkRole(gamesHub.ADMIN_ROLE(), msg.sender), \"CF-05\");\r\n        require(_maxLimit >= _minLimit, \"CF-06\");\r\n        require(_feePercFromWin <= 500, \"CF-08\");\r\n\r\n        if (!limitTypeFixed) {\r\n            require(_maxLimit <= 100 && _minLimit <= 100, \"CF-12\");\r\n        }\r\n\r\n        maxLimit = _maxLimit;\r\n        minLimit = _minLimit;\r\n        limitTypeFixed = _limitTypeFixed;\r\n        feeFromBet = _feeFromBet;\r\n        feePercFromWin = _feePercFromWin;\r\n\r\n        emit LimitsAndChancesChanged(\r\n            _minLimit,\r\n            _maxLimit,\r\n            _limitTypeFixed,\r\n            _feeFromBet,\r\n            _feePercFromWin\r\n        );\r\n    }\r\n\r\n    /**\r\n     * @dev Change the keepFees variable\r\n     * @param _keepFees New value for keepFees\r\n     */\r\n    function changeKeepFees(bool _keepFees) public {\r\n        require(gamesHub.checkRole(gamesHub.ADMIN_ROLE(), msg.sender), \"CF-05\");\r\n        keepFees = _keepFees;\r\n\r\n        emit KeepFeesChanged(_keepFees);\r\n    }\r\n\r\n    /**\r\n     * @dev Change the token address, sending the current token balance to the admin wallet\r\n     * @param _token New token address\r\n     */\r\n    function changeToken(address _token) public {\r\n        require(gamesHub.checkRole(gamesHub.ADMIN_ROLE(), msg.sender), \"CF-05\");\r\n        require(totalBet == 0, \"CF-07\");\r\n\r\n        token.transfer(gamesHub.adminWallet(), token.balanceOf(address(this)));\r\n        token = IERC20(_token);\r\n    }\r\n\r\n    /**\r\n     * @dev Change the key hash for the gwei price on chainlink\r\n     * @param _keyHash New key hash\r\n     */\r\n    function changeKeyHash(bytes32 _keyHash) public {\r\n        require(gamesHub.checkRole(gamesHub.ADMIN_ROLE(), msg.sender), \"CF-05\");\r\n        keyHash = _keyHash;\r\n    }\r\n\r\n    /**\r\n     * @dev Withdraw tokens from the contract to the admin wallet\r\n     * @param _amount Amount of tokens to withdraw\r\n     */\r\n    function withdrawTokens(uint256 _amount) public {\r\n        require(gamesHub.checkRole(gamesHub.ADMIN_ROLE(), msg.sender), \"CF-05\");\r\n        require(totalBet == 0, \"CF-07\");\r\n\r\n        token.transfer(gamesHub.adminWallet(), _amount);\r\n    }\r\n}\r\n",
  "sourcePath": "C:\\Users\\Gabriel\\Desktop\\TribeX\\contractsV2\\contracts\\games\\CoinFlipGame.sol",
  "compiler": {
    "name": "solc",
    "version": "0.8.19+commit.7dd6d404.Emscripten.clang"
  },
  "schemaVersion": "3.4.16",
  "updatedAt": "2024-01-17T20:12:38.905Z",
  "networkType": "ethereum",
  "devdoc": {
    "kind": "dev",
    "methods": {
      "changeKeepFees(bool)": {
        "details": "Change the keepFees variable",
        "params": {
          "_keepFees": "New value for keepFees"
        }
      },
      "changeKeyHash(bytes32)": {
        "details": "Change the key hash for the gwei price on chainlink",
        "params": {
          "_keyHash": "New key hash"
        }
      },
      "changeLimitsAndChances(uint256,uint256,bool,uint8,uint8)": {
        "details": "Change the house chance and bet limit",
        "params": {
          "_feeFromBet": "fee from the bet",
          "_feePercFromWin": "fee percentage from the win",
          "_limitTypeFixed": "if true, the bet limit will be fixed, if false, the bet limit will be a percentage of the contract balance",
          "_maxLimit": "maximum bet limit",
          "_minLimit": "minimum bet limit"
        }
      },
      "changeToken(address)": {
        "details": "Change the token address, sending the current token balance to the admin wallet",
        "params": {
          "_token": "New token address"
        }
      },
      "coinFlip(bool,uint256)": {
        "details": "Flip the coin, setting the bet amount and the side of the coin A request will be sent to the SupraOracles contract to get a random number",
        "params": {
          "_amount": "Amount of tokens to bet",
          "_heads": "Heads or Tails"
        }
      },
      "refundGame(uint256)": {
        "details": "Refund the game to the player. To use only if some game is stuck.",
        "params": {
          "_nonce": "Nonce of the game"
        }
      },
      "withdrawTokens(uint256)": {
        "details": "Withdraw tokens from the contract to the admin wallet",
        "params": {
          "_amount": "Amount of tokens to withdraw"
        }
      }
    },
    "version": 1
  },
  "userdoc": {
    "kind": "user",
    "methods": {
      "acceptOwnership()": {
        "notice": "Allows an ownership transfer to be completed by the recipient."
      },
      "owner()": {
        "notice": "Get the current owner"
      },
      "transferOwnership(address)": {
        "notice": "Allows an owner to begin transferring ownership to a new address, pending."
      }
    },
    "version": 1
  }
}