{
  "contractName": "CoinFlipGameSupra",
  "abi": [
    {
      "inputs": [
        {
          "internalType": "address",
          "name": "supraSC",
          "type": "address"
        },
        {
          "internalType": "uint16",
          "name": "_requestConfirmations",
          "type": "uint16"
        },
        {
          "internalType": "address",
          "name": "_gamesHub",
          "type": "address"
        }
      ],
      "stateMutability": "nonpayable",
      "type": "constructor"
    },
    {
      "anonymous": false,
      "inputs": [
        {
          "indexed": true,
          "internalType": "address",
          "name": "player",
          "type": "address"
        },
        {
          "indexed": true,
          "internalType": "uint256",
          "name": "nonce",
          "type": "uint256"
        },
        {
          "indexed": true,
          "internalType": "uint256",
          "name": "rngNonce",
          "type": "uint256"
        },
        {
          "indexed": false,
          "internalType": "uint256",
          "name": "creditAmount",
          "type": "uint256"
        }
      ],
      "name": "CoinFlipped",
      "type": "event"
    },
    {
      "anonymous": false,
      "inputs": [
        {
          "indexed": false,
          "internalType": "uint16",
          "name": "_requestConfirmations",
          "type": "uint16"
        }
      ],
      "name": "ConfirmationsChanged",
      "type": "event"
    },
    {
      "anonymous": false,
      "inputs": [
        {
          "indexed": true,
          "internalType": "uint256",
          "name": "nonce",
          "type": "uint256"
        },
        {
          "indexed": true,
          "internalType": "address",
          "name": "player",
          "type": "address"
        },
        {
          "indexed": false,
          "internalType": "uint256",
          "name": "volumeIn",
          "type": "uint256"
        },
        {
          "indexed": false,
          "internalType": "uint256",
          "name": "volumeOut",
          "type": "uint256"
        },
        {
          "indexed": false,
          "internalType": "uint8",
          "name": "result",
          "type": "uint8"
        },
        {
          "indexed": false,
          "internalType": "bool",
          "name": "heads",
          "type": "bool"
        },
        {
          "indexed": false,
          "internalType": "uint256",
          "name": "fee",
          "type": "uint256"
        },
        {
          "indexed": false,
          "internalType": "address",
          "name": "game",
          "type": "address"
        }
      ],
      "name": "GameFinished",
      "type": "event"
    },
    {
      "anonymous": false,
      "inputs": [
        {
          "indexed": true,
          "internalType": "uint256",
          "name": "nonce",
          "type": "uint256"
        },
        {
          "indexed": true,
          "internalType": "address",
          "name": "player",
          "type": "address"
        },
        {
          "indexed": false,
          "internalType": "uint256",
          "name": "volume",
          "type": "uint256"
        }
      ],
      "name": "GameRefunded",
      "type": "event"
    },
    {
      "anonymous": false,
      "inputs": [
        {
          "indexed": false,
          "internalType": "bool",
          "name": "_keepFees",
          "type": "bool"
        }
      ],
      "name": "KeepFeesChanged",
      "type": "event"
    },
    {
      "anonymous": false,
      "inputs": [
        {
          "indexed": false,
          "internalType": "uint256",
          "name": "maxLimit",
          "type": "uint256"
        },
        {
          "indexed": false,
          "internalType": "uint256",
          "name": "minLimit",
          "type": "uint256"
        }
      ],
      "name": "LimitsChanged",
      "type": "event"
    },
    {
      "inputs": [],
      "name": "FEE_FROM_BET",
      "outputs": [
        {
          "internalType": "uint256",
          "name": "",
          "type": "uint256"
        }
      ],
      "stateMutability": "view",
      "type": "function",
      "constant": true
    },
    {
      "inputs": [],
      "name": "FEE_PERC_FROM_WIN",
      "outputs": [
        {
          "internalType": "uint8",
          "name": "",
          "type": "uint8"
        }
      ],
      "stateMutability": "view",
      "type": "function",
      "constant": true
    },
    {
      "inputs": [
        {
          "internalType": "uint256",
          "name": "",
          "type": "uint256"
        }
      ],
      "name": "games",
      "outputs": [
        {
          "internalType": "address",
          "name": "player",
          "type": "address"
        },
        {
          "internalType": "uint256",
          "name": "amount",
          "type": "uint256"
        },
        {
          "internalType": "bool",
          "name": "heads",
          "type": "bool"
        },
        {
          "internalType": "uint8",
          "name": "result",
          "type": "uint8"
        }
      ],
      "stateMutability": "view",
      "type": "function",
      "constant": true
    },
    {
      "inputs": [],
      "name": "gamesHub",
      "outputs": [
        {
          "internalType": "contract IGamesHub",
          "name": "",
          "type": "address"
        }
      ],
      "stateMutability": "view",
      "type": "function",
      "constant": true
    },
    {
      "inputs": [],
      "name": "maxLimit",
      "outputs": [
        {
          "internalType": "uint256",
          "name": "",
          "type": "uint256"
        }
      ],
      "stateMutability": "view",
      "type": "function",
      "constant": true
    },
    {
      "inputs": [],
      "name": "minLimit",
      "outputs": [
        {
          "internalType": "uint256",
          "name": "",
          "type": "uint256"
        }
      ],
      "stateMutability": "view",
      "type": "function",
      "constant": true
    },
    {
      "inputs": [],
      "name": "requestConfirmations",
      "outputs": [
        {
          "internalType": "uint16",
          "name": "",
          "type": "uint16"
        }
      ],
      "stateMutability": "view",
      "type": "function",
      "constant": true
    },
    {
      "inputs": [],
      "name": "token",
      "outputs": [
        {
          "internalType": "contract IERC20",
          "name": "",
          "type": "address"
        }
      ],
      "stateMutability": "view",
      "type": "function",
      "constant": true
    },
    {
      "inputs": [],
      "name": "totalBet",
      "outputs": [
        {
          "internalType": "uint256",
          "name": "",
          "type": "uint256"
        }
      ],
      "stateMutability": "view",
      "type": "function",
      "constant": true
    },
    {
      "inputs": [
        {
          "internalType": "bool",
          "name": "_heads",
          "type": "bool"
        },
        {
          "internalType": "uint256",
          "name": "_amount",
          "type": "uint256"
        }
      ],
      "name": "coinFlip",
      "outputs": [],
      "stateMutability": "nonpayable",
      "type": "function"
    },
    {
      "inputs": [
        {
          "internalType": "uint256",
          "name": "nonce",
          "type": "uint256"
        },
        {
          "internalType": "uint256[]",
          "name": "rngList",
          "type": "uint256[]"
        }
      ],
      "name": "callback",
      "outputs": [],
      "stateMutability": "nonpayable",
      "type": "function"
    },
    {
      "inputs": [
        {
          "internalType": "uint256",
          "name": "_nonce",
          "type": "uint256"
        }
      ],
      "name": "refundGame",
      "outputs": [],
      "stateMutability": "nonpayable",
      "type": "function"
    },
    {
      "inputs": [
        {
          "internalType": "uint256",
          "name": "_maxLimit",
          "type": "uint256"
        },
        {
          "internalType": "uint256",
          "name": "_minLimit",
          "type": "uint256"
        }
      ],
      "name": "changeLimits",
      "outputs": [],
      "stateMutability": "nonpayable",
      "type": "function"
    },
    {
      "inputs": [
        {
          "internalType": "uint16",
          "name": "_requestConfirmations",
          "type": "uint16"
        }
      ],
      "name": "changeConfirmations",
      "outputs": [],
      "stateMutability": "nonpayable",
      "type": "function"
    },
    {
      "inputs": [
        {
          "internalType": "bool",
          "name": "_keepFees",
          "type": "bool"
        }
      ],
      "name": "changeKeepFees",
      "outputs": [],
      "stateMutability": "nonpayable",
      "type": "function"
    },
    {
      "inputs": [
        {
          "internalType": "address",
          "name": "_token",
          "type": "address"
        }
      ],
      "name": "changeToken",
      "outputs": [],
      "stateMutability": "nonpayable",
      "type": "function"
    },
    {
      "inputs": [
        {
          "internalType": "uint256",
          "name": "_amount",
          "type": "uint256"
        }
      ],
      "name": "withdrawTokens",
      "outputs": [],
      "stateMutability": "nonpayable",
      "type": "function"
    }
  ],
  "bytecode": "0x6080604052633b9aca00600455620f42406005556006805460ff1916905560006007553480156200002f57600080fd5b5060405162001d7238038062001d7283398101604081905262000052916200017d565b6001600081905580546001600160a01b0319166001600160a01b03831690811790915560405163a7ad58bf60e01b81527f96706879d29c248edfb2a2563a8a9d571c49634c0f82013e6f5a7cde739d35d4600482015263a7ad58bf90602401602060405180830381865afa158015620000cf573d6000803e3d6000fd5b505050506040513d601f19601f82011682018060405250810190620000f59190620001cf565b600280546001600160a01b039283166001600160a01b0319918216179091556000600355600a805495909216941693909317909255600b805461ffff909216600160a01b0261ffff60a01b1933166001600160b01b03199093169290921791909117905550620001f4565b80516001600160a01b03811681146200017857600080fd5b919050565b6000806000606084860312156200019357600080fd5b6200019e8462000160565b9250602084015161ffff81168114620001b657600080fd5b9150620001c66040850162000160565b90509250925092565b600060208284031215620001e257600080fd5b620001ed8262000160565b9392505050565b611b6e80620002046000396000f3fe608060405234801561001057600080fd5b506004361061010b5760003560e01c8063931e00b0116100a2578063d024379211610071578063d024379214610285578063d640424114610298578063d7260cba146102ab578063fc0c546a146102be578063fe5e1853146102d157600080fd5b8063931e00b014610226578063a2dda04114610240578063b0fb162f14610253578063b5ca2b4c1461027b57600080fd5b80631fd8088d116100de5780631fd8088d146101e4578063315a095d146101ed57806366829b16146102005780637d183f3d1461021357600080fd5b80630cc50bd214610110578063117a5b9014610140578063147bbb36146101b85780631a861d26146101cd575b600080fd5b600154610123906001600160a01b031681565b6040516001600160a01b0390911681526020015b60405180910390f35b61018561014e3660046118ab565b6008602052600090815260409020805460018201546002909201546001600160a01b03909116919060ff8082169161010090041684565b604080516001600160a01b03909516855260208501939093529015159183019190915260ff166060820152608001610137565b6101cb6101c63660046118c4565b6102da565b005b6101d660045481565b604051908152602001610137565b6101d660055481565b6101cb6101fb3660046118ab565b610432565b6101cb61020e366004611904565b610661565b6101cb610221366004611921565b61092f565b61022e601481565b60405160ff9091168152602001610137565b6101cb61024e3660046119ae565b610cbd565b600b5461026890600160a01b900461ffff1681565b60405161ffff9091168152602001610137565b6101d6620186a081565b6101cb6102933660046119cb565b610df6565b6101cb6102a63660046119ed565b610fa7565b6101cb6102b93660046118ab565b611602565b600254610123906001600160a01b031681565b6101d660035481565b60015460408051631d6c8e3f60e21b815290516001600160a01b03909216916312d9a6ad9183916375b238fc916004808201926020929091908290030181865afa15801561032c573d6000803e3d6000fd5b505050506040513d601f19601f820116820180604052508101906103509190611a19565b6040516001600160e01b031960e084901b1681526004810191909152336024820152604401602060405180830381865afa158015610392573d6000803e3d6000fd5b505050506040513d601f19601f820116820180604052508101906103b69190611a32565b6103db5760405162461bcd60e51b81526004016103d290611a4f565b60405180910390fd5b600b805461ffff60a01b1916600160a01b61ffff8416908102919091179091556040519081527fd69e52b1251a0871b48dae0589126dbcfb5d90482de888cf81c1f0086d8bdede906020015b60405180910390a150565b61043a611852565b60015460408051631d6c8e3f60e21b815290516001600160a01b03909216916312d9a6ad9183916375b238fc916004808201926020929091908290030181865afa15801561048c573d6000803e3d6000fd5b505050506040513d601f19601f820116820180604052508101906104b09190611a19565b6040516001600160e01b031960e084901b1681526004810191909152336024820152604401602060405180830381865afa1580156104f2573d6000803e3d6000fd5b505050506040513d601f19601f820116820180604052508101906105169190611a32565b6105325760405162461bcd60e51b81526004016103d290611a4f565b6003541561056a5760405162461bcd60e51b815260206004820152600560248201526443462d303760d81b60448201526064016103d2565b600254600154604080516336b19cd760e01b815290516001600160a01b039384169363a9059cbb9316916336b19cd79160048083019260209291908290030181865afa1580156105be573d6000803e3d6000fd5b505050506040513d601f19601f820116820180604052508101906105e29190611a6e565b6040516001600160e01b031960e084901b1681526001600160a01b039091166004820152602481018490526044016020604051808303816000875af115801561062f573d6000803e3d6000fd5b505050506040513d601f19601f820116820180604052508101906106539190611a32565b5061065e6001600055565b50565b610669611852565b60015460408051631d6c8e3f60e21b815290516001600160a01b03909216916312d9a6ad9183916375b238fc916004808201926020929091908290030181865afa1580156106bb573d6000803e3d6000fd5b505050506040513d601f19601f820116820180604052508101906106df9190611a19565b6040516001600160e01b031960e084901b1681526004810191909152336024820152604401602060405180830381865afa158015610721573d6000803e3d6000fd5b505050506040513d601f19601f820116820180604052508101906107459190611a32565b6107615760405162461bcd60e51b81526004016103d290611a4f565b600354156107995760405162461bcd60e51b815260206004820152600560248201526443462d303760d81b60448201526064016103d2565b60025460015460405163a7ad58bf60e01b81527f06aa03964db1f7257357ef09714a5f0ca3633723df419e97015e0c7a3e83edb760048201526001600160a01b039283169263a9059cbb92169063a7ad58bf90602401602060405180830381865afa15801561080c573d6000803e3d6000fd5b505050506040513d601f19601f820116820180604052508101906108309190611a6e565b6002546040516370a0823160e01b81523060048201526001600160a01b03909116906370a0823190602401602060405180830381865afa158015610878573d6000803e3d6000fd5b505050506040513d601f19601f8201168201806040525081019061089c9190611a19565b6040516001600160e01b031960e085901b1681526001600160a01b03909216600483015260248201526044016020604051808303816000875af11580156108e7573d6000803e3d6000fd5b505050506040513d601f19601f8201168201806040525081019061090b9190611a32565b50600280546001600160a01b0319166001600160a01b038316179055600160005550565b610937611852565b600a546001600160a01b031633146109795760405162461bcd60e51b815260206004820152600560248201526443462d303360d81b60448201526064016103d2565b6000838152600960209081526040808320548352600890915290206002810154610100900460ff16156109ac5750610cae565b60008060006002868660008181106109c6576109c6611a8b565b905060200201356109d79190611ab7565b60011490508080156109ed5750600284015460ff165b80610a06575080158015610a065750600284015460ff16155b15610bf45760028401805461ff00191661010017905560018401546103e890610a3190601490611ae1565b610a3b9190611afe565b9150818460010154610a4d9190611b12565b9250836001015483610a5f9190611b25565b600254855460405163a9059cbb60e01b81526001600160a01b03918216600482015260248101849052929550169063a9059cbb906044016020604051808303816000875af1158015610ab5573d6000803e3d6000fd5b505050506040513d601f19601f82011682018060405250810190610ad99190611a32565b5060065460ff1615610bef5760025460015460405163a7ad58bf60e01b81527f06aa03964db1f7257357ef09714a5f0ca3633723df419e97015e0c7a3e83edb760048201526001600160a01b039283169263a9059cbb92169063a7ad58bf90602401602060405180830381865afa158015610b58573d6000803e3d6000fd5b505050506040513d601f19601f82011682018060405250810190610b7c9190611a6e565b6040516001600160e01b031960e084901b1681526001600160a01b039091166004820152602481018590526044016020604051808303816000875af1158015610bc9573d6000803e3d6000fd5b505050506040513d601f19601f82011682018060405250810190610bed9190611a32565b505b610c06565b60028401805461ff0019166102001790555b836001015460036000828254610c1c9190611b12565b909155505083546000888152600960209081526040918290205460018801546002890154845191825292810188905261010090920460ff16928201929092528315156060820152608081018590523060a08201526001600160a01b03909216917f43d2e462c3cc97129f49a0401caea4280ebb49b6eb98b737be5702548a858c2d9060c00160405180910390a3505050505b610cb86001600055565b505050565b60015460408051631d6c8e3f60e21b815290516001600160a01b03909216916312d9a6ad9183916375b238fc916004808201926020929091908290030181865afa158015610d0f573d6000803e3d6000fd5b505050506040513d601f19601f82011682018060405250810190610d339190611a19565b6040516001600160e01b031960e084901b1681526004810191909152336024820152604401602060405180830381865afa158015610d75573d6000803e3d6000fd5b505050506040513d601f19601f82011682018060405250810190610d999190611a32565b610db55760405162461bcd60e51b81526004016103d290611a4f565b6006805460ff19168215159081179091556040519081527f60f3115279654f0dde209396aeb5e0fbd0ee38a3c1171dd4b3324fdcbf807b1e90602001610427565b60015460408051631d6c8e3f60e21b815290516001600160a01b03909216916312d9a6ad9183916375b238fc916004808201926020929091908290030181865afa158015610e48573d6000803e3d6000fd5b505050506040513d601f19601f82011682018060405250810190610e6c9190611a19565b6040516001600160e01b031960e084901b1681526004810191909152336024820152604401602060405180830381865afa158015610eae573d6000803e3d6000fd5b505050506040513d601f19601f82011682018060405250810190610ed29190611a32565b610eee5760405162461bcd60e51b81526004016103d290611a4f565b80821015610f265760405162461bcd60e51b815260206004820152600560248201526421a316981b60d91b60448201526064016103d2565b620186a08111610f605760405162461bcd60e51b81526020600482015260056024820152640868c5a60760db1b60448201526064016103d2565b6004829055600581905560408051828152602081018490527fab1a2e99a7a60d154f951a42eca140d755f93d41ccfca4b6f7d5e521b64bee86910160405180910390a15050565b610faf611852565b6002546040516370a0823160e01b81523060048201526000916001600160a01b0316906370a0823190602401602060405180830381865afa158015610ff8573d6000803e3d6000fd5b505050506040513d601f19601f8201168201806040525081019061101c9190611a19565b9050600454821115801561103257506005548210155b6110665760405162461bcd60e51b815260206004820152600560248201526443462d303160d81b60448201526064016103d2565b816003546110749190611b25565b61107f906002611ae1565b8110156110b65760405162461bcd60e51b815260206004820152600560248201526421a316981960d91b60448201526064016103d2565b600160009054906101000a90046001600160a01b03166001600160a01b031663627cdcb96040518163ffffffff1660e01b8152600401600060405180830381600087803b15801561110657600080fd5b505af115801561111a573d6000803e3d6000fd5b50505050620186a08261112d9190611b12565b6002546040516323b872dd60e01b8152336004820152306024820152604481018390529193506001600160a01b0316906323b872dd906064016020604051808303816000875af1158015611185573d6000803e3d6000fd5b505050506040513d601f19601f820116820180604052508101906111a99190611a32565b5060025460015460405163a7ad58bf60e01b81527f06aa03964db1f7257357ef09714a5f0ca3633723df419e97015e0c7a3e83edb760048201526001600160a01b03928316926323b872dd92339291169063a7ad58bf90602401602060405180830381865afa158015611220573d6000803e3d6000fd5b505050506040513d601f19601f820116820180604052508101906112449190611a6e565b6040516001600160e01b031960e085901b1681526001600160a01b03928316600482015291166024820152620186a060448201526064016020604051808303816000875af115801561129a573d6000803e3d6000fd5b505050506040513d601f19601f820116820180604052508101906112be9190611a32565b506040518060800160405280336001600160a01b031681526020018381526020018415158152602001600060ff1681525060086000600160009054906101000a90046001600160a01b03166001600160a01b031663affed0e06040518163ffffffff1660e01b8152600401602060405180830381865afa158015611346573d6000803e3d6000fd5b505050506040513d601f19601f8201168201806040525081019061136a9190611a19565b815260208082019290925260409081016000908120845181546001600160a01b0319166001600160a01b0391821617825593850151600180830191909155858401516002909201805460609097015161ffff1990971692151561ff0019169290921761010060ff90971696909602959095179055600a54600b54925163d291ba0960e01b815260806004820152601b60848201527f63616c6c6261636b2875696e743235362c75696e743235365b5d29000000000060a48201526024810195909552600160a01b830461ffff16604486015291831660648501529291169063d291ba099060c4016020604051808303816000875af1158015611470573d6000803e3d6000fd5b505050506040513d601f19601f820116820180604052508101906114949190611a19565b9050600160009054906101000a90046001600160a01b03166001600160a01b031663affed0e06040518163ffffffff1660e01b8152600401602060405180830381865afa1580156114e9573d6000803e3d6000fd5b505050506040513d601f19601f8201168201806040525081019061150d9190611a19565b60008281526009602052604081209190915560038054859290611531908490611b25565b9250508190555060016007600082825461154b9190611b25565b90915550506001546040805163057ff68760e51b8152905183926001600160a01b03169163affed0e09160048083019260209291908290030181865afa158015611599573d6000803e3d6000fd5b505050506040513d601f19601f820116820180604052508101906115bd9190611a19565b60405185815233907f577ee7b6aeb61c2eddd20e062dd7e4e9217cc5b0c2e6b12844f75e8aff04d41b9060200160405180910390a450506115fe6001600055565b5050565b61160a611852565b60015460408051631d6c8e3f60e21b815290516001600160a01b03909216916312d9a6ad9183916375b238fc916004808201926020929091908290030181865afa15801561165c573d6000803e3d6000fd5b505050506040513d601f19601f820116820180604052508101906116809190611a19565b6040516001600160e01b031960e084901b1681526004810191909152336024820152604401602060405180830381865afa1580156116c2573d6000803e3d6000fd5b505050506040513d601f19601f820116820180604052508101906116e69190611a32565b6117025760405162461bcd60e51b81526004016103d290611a4f565b60008181526008602052604090206002810154610100900460ff16156117525760405162461bcd60e51b815260206004820152600560248201526410d18b4c0d60da1b60448201526064016103d2565b6002548154600183015460405163a9059cbb60e01b81526001600160a01b039283166004820152602481019190915291169063a9059cbb906044016020604051808303816000875af11580156117ac573d6000803e3d6000fd5b505050506040513d601f19601f820116820180604052508101906117d09190611a32565b508060010154600360008282546117e79190611b12565b909155505060006001820181905560028201805461ff00191661030017905581546040519182526001600160a01b03169083907ffa155f416059e21f529e5445cc0a44fc2e61c29bf131685ac80870ccf021b9099060200160405180910390a35061065e6001600055565b6002600054036118a45760405162461bcd60e51b815260206004820152601f60248201527f5265656e7472616e637947756172643a207265656e7472616e742063616c6c0060448201526064016103d2565b6002600055565b6000602082840312156118bd57600080fd5b5035919050565b6000602082840312156118d657600080fd5b813561ffff811681146118e857600080fd5b9392505050565b6001600160a01b038116811461065e57600080fd5b60006020828403121561191657600080fd5b81356118e8816118ef565b60008060006040848603121561193657600080fd5b83359250602084013567ffffffffffffffff8082111561195557600080fd5b818601915086601f83011261196957600080fd5b81358181111561197857600080fd5b8760208260051b850101111561198d57600080fd5b6020830194508093505050509250925092565b801515811461065e57600080fd5b6000602082840312156119c057600080fd5b81356118e8816119a0565b600080604083850312156119de57600080fd5b50508035926020909101359150565b60008060408385031215611a0057600080fd5b8235611a0b816119a0565b946020939093013593505050565b600060208284031215611a2b57600080fd5b5051919050565b600060208284031215611a4457600080fd5b81516118e8816119a0565b60208082526005908201526443462d303560d81b604082015260600190565b600060208284031215611a8057600080fd5b81516118e8816118ef565b634e487b7160e01b600052603260045260246000fd5b634e487b7160e01b600052601260045260246000fd5b600082611ac657611ac6611aa1565b500690565b634e487b7160e01b600052601160045260246000fd5b8082028115828204841417611af857611af8611acb565b92915050565b600082611b0d57611b0d611aa1565b500490565b81810381811115611af857611af8611acb565b80820180821115611af857611af8611acb56fea264697066735822122024e54dcc77c8e434b67cdd1d6d056086273125d2ffbf31ef42be342a7f65523664736f6c63430008130033",
  "immutableReferences": {},
  "source": "// SPDX-License-Identifier: MIT\r\npragma solidity ^0.8.19;\r\n\r\n/**\r\n * @title CoinFlipGameSupra from Degen OnChain\r\n * @dev A decentralized coin flip game using Supra Oracles for randomness.\r\n *\r\n * The game allows players to bet on the outcome of a coin flip (heads or tails).\r\n * The contract interacts with the Supra Oracles to obtain a random number which determines the result of the coin flip.\r\n * Solidity Version: 0.8.19 (this version deals automatically with overflows and underflows issues)\r\n *\r\n * ## How the Game Works:\r\n * 1. **Placing a Bet:**\r\n *    - Players call the `coinFlip` function, specifying the amount to bet and their choice (heads or tails).\r\n *    - The bet amount is transferred to the contract, and a small fee (`FEE_FROM_BET`) is deducted and sent to the treasury.\r\n *    - A request is sent to the Supra Oracles to obtain a random number.\r\n *\r\n * 2. **Determining the Outcome:**\r\n *    - The Supra Oracles call the `callback` function with the random number.\r\n *    - The contract determines the outcome of the coin flip based on the random number.\r\n *    - If the player wins, they receive their bet amount multiplied by 2, minus a fee (`FEE_PERC_FROM_WIN`).\r\n *    - If the player loses, the bet amount is retained by the contract.\r\n *\r\n * 3. **Fees:**\r\n *    - `FEE_FROM_BET`: A constant fee deducted from each bet and sent to the treasury.\r\n *    - `FEE_PERC_FROM_WIN`: A percentage fee deducted from the winnings of a successful bet.\r\n *    - `keepFees`: A boolean variable indicating whether the fees should be kept by the contract or sent to the treasury.\r\n *\r\n * ## Variables:\r\n * - `gamesHub`: Interface to the GamesHub contract, used for managing game state and roles.\r\n * - `token`: Interface to the ERC20 token used for betting.\r\n * - `totalBet`: The total amount of tokens currently bet in the contract.\r\n * - `maxLimit`: The maximum bet amount allowed.\r\n * - `minLimit`: The minimum bet amount allowed.\r\n * - `totalGames`: The total number of games played.\r\n * - `games`: A mapping of game nonces to game details.\r\n * - `gameNonce`: A mapping of Supra Oracles request nonces to game nonces.\r\n * - `supraAddr`: The address of the Supra Oracles contract.\r\n * - `deployer`: The address of the contract deployer.\r\n * - `requestConfirmations`: The number of confirmations required for the Supra Oracles request.\r\n *\r\n * ## Events:\r\n * - `CoinFlipped`: Emitted when a player places a bet.\r\n * - `GameFinished`: Emitted when the outcome of a game is determined.\r\n * - `LimitsChanged`: Emitted when the betting limits are changed.\r\n * - `GameRefunded`: Emitted when a game is refunded.\r\n * - `ConfirmationsChanged`: Emitted when the number of confirmations required for the Supra Oracles request is changed.\r\n * - `KeepFeesChanged`: Emitted when the `keepFees` variable is changed.\r\n */\r\n\r\nimport \"@openzeppelin/contracts/security/ReentrancyGuard.sol\";\r\nimport \"../interfaces/IGamesHub.sol\";\r\nimport \"../interfaces/IERC20.sol\";\r\nimport \"../interfaces/ISupraRouter.sol\";\r\n\r\ncontract CoinFlipGameSupra is ReentrancyGuard {\r\n    event CoinFlipped(\r\n        address indexed player,\r\n        uint256 indexed nonce,\r\n        uint256 indexed rngNonce,\r\n        uint256 creditAmount\r\n    );\r\n    event GameFinished(\r\n        uint256 indexed nonce,\r\n        address indexed player,\r\n        uint256 volumeIn,\r\n        uint256 volumeOut,\r\n        uint8 result,\r\n        bool heads,\r\n        uint256 fee,\r\n        address game\r\n    );\r\n    event LimitsChanged(uint256 maxLimit, uint256 minLimit);\r\n    event GameRefunded(\r\n        uint256 indexed nonce,\r\n        address indexed player,\r\n        uint256 volume\r\n    );\r\n\r\n    event ConfirmationsChanged(uint16 _requestConfirmations);\r\n\r\n    event KeepFeesChanged(bool _keepFees);\r\n\r\n    IGamesHub public gamesHub;\r\n    IERC20 public token;\r\n    uint256 public totalBet;\r\n    uint256 public maxLimit = 1000 * (10 ** 6); //default 1000 USDC\r\n    uint256 public minLimit = 1 * (10 ** 6); //default 1 USDC\r\n    uint256 public constant FEE_FROM_BET = 10 * (10 ** 4); //default 10 cents\r\n    uint8 public constant FEE_PERC_FROM_WIN = 20;\r\n    bool keepFees = false;\r\n    uint256 totalGames = 0;\r\n\r\n    struct Games {\r\n        address player;\r\n        uint256 amount;\r\n        bool heads;\r\n        uint8 result; // 0- not set, 1- win, 2- lose, 3- refunded\r\n    }\r\n    mapping(uint256 => Games) public games;\r\n    mapping(uint256 => uint256) gameNonce;\r\n\r\n    address private supraAddr;\r\n    address private deployer;\r\n    uint16 public requestConfirmations;\r\n\r\n    constructor(\r\n        address supraSC,\r\n        uint16 _requestConfirmations,\r\n        address _gamesHub\r\n    ) {\r\n        gamesHub = IGamesHub(_gamesHub);\r\n        token = IERC20(gamesHub.helpers(keccak256(\"TOKEN\")));\r\n        totalBet = 0;\r\n        supraAddr = supraSC;\r\n        deployer = msg.sender;\r\n        requestConfirmations = _requestConfirmations;\r\n    }\r\n\r\n    /**\r\n     * @dev Flip the coin, setting the bet amount and the side of the coin\r\n     * A request will be sent to the SupraOracles contract to get a random number\r\n     * @param _heads Heads or Tails\r\n     * @param _amount Amount of tokens to bet\r\n     */\r\n    function coinFlip(bool _heads, uint256 _amount) external nonReentrant {\r\n        uint256 balance = token.balanceOf(address(this));\r\n\r\n        require(_amount <= maxLimit && _amount >= minLimit, \"CF-01\");\r\n        require(balance >= ((totalBet + _amount) * 2), \"CF-02\");\r\n\r\n        gamesHub.incrementNonce();\r\n\r\n        _amount -= FEE_FROM_BET;\r\n\r\n        token.transferFrom(msg.sender, address(this), _amount);\r\n        // Sending fee to the house\r\n        token.transferFrom(\r\n            msg.sender,\r\n            gamesHub.helpers(keccak256(\"TREASURY\")),\r\n            FEE_FROM_BET\r\n        );\r\n\r\n        games[gamesHub.nonce()] = Games(msg.sender, _amount, _heads, 0);\r\n\r\n        uint256 nonce = ISupraRouter(supraAddr).generateRequest(\r\n            \"callback(uint256,uint256[])\",\r\n            1,\r\n            requestConfirmations,\r\n            deployer\r\n        );\r\n        gameNonce[nonce] = gamesHub.nonce();\r\n\r\n        totalBet += _amount;\r\n        totalGames += 1;\r\n        emit CoinFlipped(msg.sender, gamesHub.nonce(), nonce, _amount);\r\n    }\r\n\r\n    /**\r\n     * @dev Callback function from the SupraOracles contract\r\n     * @param nonce Nonce of the game\r\n     * @param rngList Random number list\r\n     */\r\n    function callback(\r\n        uint256 nonce,\r\n        uint256[] calldata rngList\r\n    ) external nonReentrant {\r\n        require(msg.sender == supraAddr, \"CF-03\");\r\n        Games storage game = games[gameNonce[nonce]];\r\n        if (game.result > 0) return;\r\n\r\n        uint256 volume = 0;\r\n        uint256 _fee = 0;\r\n        bool heads = (rngList[0] % 2) == 1;\r\n\r\n        if ((heads && game.heads) || (!heads && !game.heads)) {\r\n            game.result = 1;\r\n            _fee = (game.amount * FEE_PERC_FROM_WIN) / 1000;\r\n            volume = game.amount - _fee;\r\n            volume += game.amount;\r\n            token.transfer(game.player, volume);\r\n            if (keepFees)\r\n                token.transfer(gamesHub.helpers(keccak256(\"TREASURY\")), _fee);\r\n        } else {\r\n            game.result = 2;\r\n        }\r\n        totalBet -= game.amount;\r\n\r\n        emit GameFinished(\r\n            gameNonce[nonce],\r\n            game.player,\r\n            game.amount,\r\n            volume,\r\n            game.result,\r\n            heads,\r\n            _fee,\r\n            address(this)\r\n        );\r\n    }\r\n\r\n    /**\r\n     * @dev Refund the game to the player. To use only if some game is stuck.\r\n     * @param _nonce Nonce of the game\r\n     */\r\n    function refundGame(uint256 _nonce) external nonReentrant {\r\n        require(gamesHub.checkRole(gamesHub.ADMIN_ROLE(), msg.sender), \"CF-05\");\r\n        Games storage game = games[_nonce];\r\n        require(game.result == 0, \"CF-04\");\r\n\r\n        token.transfer(game.player, game.amount);\r\n        totalBet -= game.amount;\r\n        game.amount = 0;\r\n\r\n        //changing result to refunded\r\n        game.result = 3;\r\n\r\n        emit GameRefunded(_nonce, game.player, game.amount);\r\n    }\r\n\r\n    /**\r\n     * @dev Change the bet limits\r\n     * @param _maxLimit maximum bet limit\r\n     * @param _minLimit minimum bet limit\r\n     */\r\n    function changeLimits(uint256 _maxLimit, uint256 _minLimit) public {\r\n        require(gamesHub.checkRole(gamesHub.ADMIN_ROLE(), msg.sender), \"CF-05\");\r\n        require(_maxLimit >= _minLimit, \"CF-06\");\r\n        require(_minLimit > FEE_FROM_BET, \"CF-08\");\r\n\r\n        maxLimit = _maxLimit;\r\n        minLimit = _minLimit;\r\n\r\n        emit LimitsChanged(_minLimit, _maxLimit);\r\n    }\r\n\r\n    /**\r\n     * @dev Change the number of confirmations required for the request\r\n     * @param _requestConfirmations Number of confirmations\r\n     */\r\n    function changeConfirmations(uint16 _requestConfirmations) public {\r\n        require(gamesHub.checkRole(gamesHub.ADMIN_ROLE(), msg.sender), \"CF-05\");\r\n        requestConfirmations = _requestConfirmations;\r\n        emit ConfirmationsChanged(_requestConfirmations);\r\n    }\r\n\r\n    /**\r\n     * @dev Change the keepFees variable\r\n     * @param _keepFees New value for keepFees\r\n     */\r\n    function changeKeepFees(bool _keepFees) public {\r\n        require(gamesHub.checkRole(gamesHub.ADMIN_ROLE(), msg.sender), \"CF-05\");\r\n        keepFees = _keepFees;\r\n\r\n        emit KeepFeesChanged(_keepFees);\r\n    }\r\n\r\n    /**\r\n     * @dev Change the token address, sending the current token balance to the treasury wallet\r\n     * It's only possible if there are no games in progress\r\n     * @param _token New token address\r\n     */\r\n    function changeToken(address _token) public nonReentrant {\r\n        require(gamesHub.checkRole(gamesHub.ADMIN_ROLE(), msg.sender), \"CF-05\");\r\n        require(totalBet == 0, \"CF-07\");\r\n\r\n        token.transfer(\r\n            gamesHub.helpers(keccak256(\"TREASURY\")),\r\n            token.balanceOf(address(this))\r\n        );\r\n        token = IERC20(_token);\r\n    }\r\n\r\n    /**\r\n     * @dev Withdraw tokens from the contract to the admin wallet\r\n     * It's only possible if there are no games in progress\r\n     * @param _amount Amount of tokens to withdraw\r\n     */\r\n    function withdrawTokens(uint256 _amount) public nonReentrant {\r\n        require(gamesHub.checkRole(gamesHub.ADMIN_ROLE(), msg.sender), \"CF-05\");\r\n        require(totalBet == 0, \"CF-07\");\r\n\r\n        token.transfer(gamesHub.adminWallet(), _amount);\r\n    }\r\n}\r\n",
  "sourcePath": "/home/gabesan/rea de trabalho/Projetos/PerfectPool/NewTribeX/tribex-smart-contracts/contracts/games/CoinFlipGameSupra.sol",
  "compiler": {
    "name": "solc",
    "version": "0.8.19+commit.7dd6d404.Emscripten.clang"
  },
  "schemaVersion": "3.4.16",
  "updatedAt": "2024-06-24T19:07:53.811Z",
  "networkType": "ethereum",
  "devdoc": {
    "kind": "dev",
    "methods": {
      "callback(uint256,uint256[])": {
        "details": "Callback function from the SupraOracles contract",
        "params": {
          "nonce": "Nonce of the game",
          "rngList": "Random number list"
        }
      },
      "changeConfirmations(uint16)": {
        "details": "Change the number of confirmations required for the request",
        "params": {
          "_requestConfirmations": "Number of confirmations"
        }
      },
      "changeKeepFees(bool)": {
        "details": "Change the keepFees variable",
        "params": {
          "_keepFees": "New value for keepFees"
        }
      },
      "changeLimits(uint256,uint256)": {
        "details": "Change the bet limits",
        "params": {
          "_maxLimit": "maximum bet limit",
          "_minLimit": "minimum bet limit"
        }
      },
      "changeToken(address)": {
        "details": "Change the token address, sending the current token balance to the treasury wallet It's only possible if there are no games in progress",
        "params": {
          "_token": "New token address"
        }
      },
      "coinFlip(bool,uint256)": {
        "details": "Flip the coin, setting the bet amount and the side of the coin A request will be sent to the SupraOracles contract to get a random number",
        "params": {
          "_amount": "Amount of tokens to bet",
          "_heads": "Heads or Tails"
        }
      },
      "refundGame(uint256)": {
        "details": "Refund the game to the player. To use only if some game is stuck.",
        "params": {
          "_nonce": "Nonce of the game"
        }
      },
      "withdrawTokens(uint256)": {
        "details": "Withdraw tokens from the contract to the admin wallet It's only possible if there are no games in progress",
        "params": {
          "_amount": "Amount of tokens to withdraw"
        }
      }
    },
    "version": 1
  },
  "userdoc": {
    "kind": "user",
    "methods": {},
    "version": 1
  }
}