{
  "contractName": "CoinFlipGameSupra",
  "abi": [
    {
      "inputs": [
        {
          "internalType": "address",
          "name": "supraSC",
          "type": "address"
        },
        {
          "internalType": "uint16",
          "name": "_requestConfirmations",
          "type": "uint16"
        },
        {
          "internalType": "address",
          "name": "_gamesHub",
          "type": "address"
        }
      ],
      "stateMutability": "nonpayable",
      "type": "constructor"
    },
    {
      "anonymous": false,
      "inputs": [
        {
          "indexed": true,
          "internalType": "address",
          "name": "player",
          "type": "address"
        },
        {
          "indexed": true,
          "internalType": "uint256",
          "name": "nonce",
          "type": "uint256"
        },
        {
          "indexed": true,
          "internalType": "uint256",
          "name": "rngNonce",
          "type": "uint256"
        },
        {
          "indexed": false,
          "internalType": "uint256",
          "name": "creditAmount",
          "type": "uint256"
        }
      ],
      "name": "CoinFlipped",
      "type": "event"
    },
    {
      "anonymous": false,
      "inputs": [
        {
          "indexed": false,
          "internalType": "uint16",
          "name": "_requestConfirmations",
          "type": "uint16"
        }
      ],
      "name": "ConfirmationsChanged",
      "type": "event"
    },
    {
      "anonymous": false,
      "inputs": [
        {
          "indexed": true,
          "internalType": "uint256",
          "name": "nonce",
          "type": "uint256"
        },
        {
          "indexed": true,
          "internalType": "address",
          "name": "player",
          "type": "address"
        },
        {
          "indexed": false,
          "internalType": "uint256",
          "name": "volumeIn",
          "type": "uint256"
        },
        {
          "indexed": false,
          "internalType": "uint256",
          "name": "volumeOut",
          "type": "uint256"
        },
        {
          "indexed": false,
          "internalType": "uint8",
          "name": "result",
          "type": "uint8"
        },
        {
          "indexed": false,
          "internalType": "bool",
          "name": "heads",
          "type": "bool"
        },
        {
          "indexed": false,
          "internalType": "uint256",
          "name": "fee",
          "type": "uint256"
        },
        {
          "indexed": false,
          "internalType": "address",
          "name": "game",
          "type": "address"
        }
      ],
      "name": "GameFinished",
      "type": "event"
    },
    {
      "anonymous": false,
      "inputs": [
        {
          "indexed": true,
          "internalType": "uint256",
          "name": "nonce",
          "type": "uint256"
        },
        {
          "indexed": true,
          "internalType": "address",
          "name": "player",
          "type": "address"
        },
        {
          "indexed": false,
          "internalType": "uint256",
          "name": "volume",
          "type": "uint256"
        }
      ],
      "name": "GameRefunded",
      "type": "event"
    },
    {
      "anonymous": false,
      "inputs": [
        {
          "indexed": false,
          "internalType": "bool",
          "name": "_keepFees",
          "type": "bool"
        }
      ],
      "name": "KeepFeesChanged",
      "type": "event"
    },
    {
      "anonymous": false,
      "inputs": [
        {
          "indexed": false,
          "internalType": "uint256",
          "name": "maxLimit",
          "type": "uint256"
        },
        {
          "indexed": false,
          "internalType": "uint256",
          "name": "minLimit",
          "type": "uint256"
        },
        {
          "indexed": false,
          "internalType": "bool",
          "name": "limitTypeFixed",
          "type": "bool"
        },
        {
          "indexed": false,
          "internalType": "uint8",
          "name": "feeFromBet",
          "type": "uint8"
        },
        {
          "indexed": false,
          "internalType": "uint8",
          "name": "feePercFromWin",
          "type": "uint8"
        }
      ],
      "name": "LimitsAndChancesChanged",
      "type": "event"
    },
    {
      "inputs": [],
      "name": "feeFromBet",
      "outputs": [
        {
          "internalType": "uint256",
          "name": "",
          "type": "uint256"
        }
      ],
      "stateMutability": "view",
      "type": "function"
    },
    {
      "inputs": [],
      "name": "feePercFromWin",
      "outputs": [
        {
          "internalType": "uint8",
          "name": "",
          "type": "uint8"
        }
      ],
      "stateMutability": "view",
      "type": "function"
    },
    {
      "inputs": [
        {
          "internalType": "uint256",
          "name": "",
          "type": "uint256"
        }
      ],
      "name": "games",
      "outputs": [
        {
          "internalType": "address",
          "name": "player",
          "type": "address"
        },
        {
          "internalType": "uint256",
          "name": "amount",
          "type": "uint256"
        },
        {
          "internalType": "bool",
          "name": "heads",
          "type": "bool"
        },
        {
          "internalType": "uint8",
          "name": "result",
          "type": "uint8"
        }
      ],
      "stateMutability": "view",
      "type": "function"
    },
    {
      "inputs": [],
      "name": "gamesHub",
      "outputs": [
        {
          "internalType": "contract IGamesHub",
          "name": "",
          "type": "address"
        }
      ],
      "stateMutability": "view",
      "type": "function"
    },
    {
      "inputs": [],
      "name": "maxLimit",
      "outputs": [
        {
          "internalType": "uint256",
          "name": "",
          "type": "uint256"
        }
      ],
      "stateMutability": "view",
      "type": "function"
    },
    {
      "inputs": [],
      "name": "minLimit",
      "outputs": [
        {
          "internalType": "uint256",
          "name": "",
          "type": "uint256"
        }
      ],
      "stateMutability": "view",
      "type": "function"
    },
    {
      "inputs": [],
      "name": "requestConfirmations",
      "outputs": [
        {
          "internalType": "uint16",
          "name": "",
          "type": "uint16"
        }
      ],
      "stateMutability": "view",
      "type": "function"
    },
    {
      "inputs": [],
      "name": "token",
      "outputs": [
        {
          "internalType": "contract IERC20",
          "name": "",
          "type": "address"
        }
      ],
      "stateMutability": "view",
      "type": "function"
    },
    {
      "inputs": [],
      "name": "totalBet",
      "outputs": [
        {
          "internalType": "uint256",
          "name": "",
          "type": "uint256"
        }
      ],
      "stateMutability": "view",
      "type": "function"
    },
    {
      "inputs": [
        {
          "internalType": "bool",
          "name": "_heads",
          "type": "bool"
        },
        {
          "internalType": "uint256",
          "name": "_amount",
          "type": "uint256"
        }
      ],
      "name": "coinFlip",
      "outputs": [],
      "stateMutability": "nonpayable",
      "type": "function"
    },
    {
      "inputs": [
        {
          "internalType": "uint256",
          "name": "nonce",
          "type": "uint256"
        },
        {
          "internalType": "uint256[]",
          "name": "rngList",
          "type": "uint256[]"
        }
      ],
      "name": "callback",
      "outputs": [],
      "stateMutability": "nonpayable",
      "type": "function"
    },
    {
      "inputs": [
        {
          "internalType": "uint256",
          "name": "_nonce",
          "type": "uint256"
        }
      ],
      "name": "refundGame",
      "outputs": [],
      "stateMutability": "nonpayable",
      "type": "function"
    },
    {
      "inputs": [
        {
          "internalType": "uint256",
          "name": "_maxLimit",
          "type": "uint256"
        },
        {
          "internalType": "uint256",
          "name": "_minLimit",
          "type": "uint256"
        },
        {
          "internalType": "bool",
          "name": "_limitTypeFixed",
          "type": "bool"
        },
        {
          "internalType": "uint8",
          "name": "_feeFromBet",
          "type": "uint8"
        },
        {
          "internalType": "uint8",
          "name": "_feePercFromWin",
          "type": "uint8"
        }
      ],
      "name": "changeLimitsAndChances",
      "outputs": [],
      "stateMutability": "nonpayable",
      "type": "function"
    },
    {
      "inputs": [
        {
          "internalType": "uint16",
          "name": "_requestConfirmations",
          "type": "uint16"
        }
      ],
      "name": "changeConfirmations",
      "outputs": [],
      "stateMutability": "nonpayable",
      "type": "function"
    },
    {
      "inputs": [
        {
          "internalType": "bool",
          "name": "_keepFees",
          "type": "bool"
        }
      ],
      "name": "changeKeepFees",
      "outputs": [],
      "stateMutability": "nonpayable",
      "type": "function"
    },
    {
      "inputs": [
        {
          "internalType": "address",
          "name": "_token",
          "type": "address"
        }
      ],
      "name": "changeToken",
      "outputs": [],
      "stateMutability": "nonpayable",
      "type": "function"
    },
    {
      "inputs": [
        {
          "internalType": "uint256",
          "name": "_amount",
          "type": "uint256"
        }
      ],
      "name": "withdrawTokens",
      "outputs": [],
      "stateMutability": "nonpayable",
      "type": "function"
    }
  ],
  "bytecode": "0x6080604052633b9aca00600355620f4240600455620111706005556006805462ffffff191661010f17905560006007553480156200003c57600080fd5b5060405162001e3838038062001e388339810160408190526200005f9162000185565b600080546001600160a01b0319166001600160a01b03831690811790915560405163a7ad58bf60e01b81527f96706879d29c248edfb2a2563a8a9d571c49634c0f82013e6f5a7cde739d35d4600482015263a7ad58bf90602401602060405180830381865afa158015620000d7573d6000803e3d6000fd5b505050506040513d601f19601f82011682018060405250810190620000fd9190620001d7565b600180546001600160a01b039283166001600160a01b0319918216179091556000600255600a805495909216941693909317909255600b805461ffff909216600160a01b0261ffff60a01b1933166001600160b01b03199093169290921791909117905550620001fc565b80516001600160a01b03811681146200018057600080fd5b919050565b6000806000606084860312156200019b57600080fd5b620001a68462000168565b9250602084015161ffff81168114620001be57600080fd5b9150620001ce6040850162000168565b90509250925092565b600060208284031215620001ea57600080fd5b620001f58262000168565b9392505050565b611c2c806200020c6000396000f3fe608060405234801561001057600080fd5b506004361061010b5760003560e01c806366829b16116100a2578063be29116a11610071578063be29116a14610289578063d64042411461029c578063d7260cba146102af578063fc0c546a146102c2578063fe5e1853146102d557600080fd5b806366829b16146102285780637d183f3d1461023b578063a2dda0411461024e578063b0fb162f1461026157600080fd5b80631fd8088d116100de5780631fd8088d146101e45780632d65b8ed146101ed578063315a095d146101f65780636419729f1461020957600080fd5b80630cc50bd214610110578063117a5b9014610140578063147bbb36146101b85780631a861d26146101cd575b600080fd5b600054610123906001600160a01b031681565b6040516001600160a01b0390911681526020015b60405180910390f35b61018561014e366004611919565b6008602052600090815260409020805460018201546002909201546001600160a01b03909116919060ff8082169161010090041684565b604080516001600160a01b03909516855260208501939093529015159183019190915260ff166060820152608001610137565b6101cb6101c6366004611932565b6102de565b005b6101d660035481565b604051908152602001610137565b6101d660045481565b6101d660055481565b6101cb610204366004611919565b610436565b6006546102169060ff1681565b60405160ff9091168152602001610137565b6101cb610236366004611975565b610653565b6101cb610249366004611992565b6108f9565b6101cb61025c366004611a1f565b610c81565b600b5461027690600160a01b900461ffff1681565b60405161ffff9091168152602001610137565b6101cb610297366004611a52565b610dc4565b6101cb6102aa366004611aab565b611015565b6101cb6102bd366004611919565b6116d8565b600154610123906001600160a01b031681565b6101d660025481565b60005460408051631d6c8e3f60e21b815290516001600160a01b03909216916312d9a6ad9183916375b238fc916004808201926020929091908290030181865afa158015610330573d6000803e3d6000fd5b505050506040513d601f19601f820116820180604052508101906103549190611ad7565b6040516001600160e01b031960e084901b1681526004810191909152336024820152604401602060405180830381865afa158015610396573d6000803e3d6000fd5b505050506040513d601f19601f820116820180604052508101906103ba9190611af0565b6103df5760405162461bcd60e51b81526004016103d690611b0d565b60405180910390fd5b600b805461ffff60a01b1916600160a01b61ffff8416908102919091179091556040519081527fd69e52b1251a0871b48dae0589126dbcfb5d90482de888cf81c1f0086d8bdede906020015b60405180910390a150565b60005460408051631d6c8e3f60e21b815290516001600160a01b03909216916312d9a6ad9183916375b238fc916004808201926020929091908290030181865afa158015610488573d6000803e3d6000fd5b505050506040513d601f19601f820116820180604052508101906104ac9190611ad7565b6040516001600160e01b031960e084901b1681526004810191909152336024820152604401602060405180830381865afa1580156104ee573d6000803e3d6000fd5b505050506040513d601f19601f820116820180604052508101906105129190611af0565b61052e5760405162461bcd60e51b81526004016103d690611b0d565b600254156105665760405162461bcd60e51b815260206004820152600560248201526443462d303760d81b60448201526064016103d6565b600154600054604080516336b19cd760e01b815290516001600160a01b039384169363a9059cbb9316916336b19cd79160048083019260209291908290030181865afa1580156105ba573d6000803e3d6000fd5b505050506040513d601f19601f820116820180604052508101906105de9190611b2c565b6040516001600160e01b031960e084901b1681526001600160a01b039091166004820152602481018490526044016020604051808303816000875af115801561062b573d6000803e3d6000fd5b505050506040513d601f19601f8201168201806040525081019061064f9190611af0565b5050565b60005460408051631d6c8e3f60e21b815290516001600160a01b03909216916312d9a6ad9183916375b238fc916004808201926020929091908290030181865afa1580156106a5573d6000803e3d6000fd5b505050506040513d601f19601f820116820180604052508101906106c99190611ad7565b6040516001600160e01b031960e084901b1681526004810191909152336024820152604401602060405180830381865afa15801561070b573d6000803e3d6000fd5b505050506040513d601f19601f8201168201806040525081019061072f9190611af0565b61074b5760405162461bcd60e51b81526004016103d690611b0d565b600254156107835760405162461bcd60e51b815260206004820152600560248201526443462d303760d81b60448201526064016103d6565b600154600054604080516336b19cd760e01b815290516001600160a01b039384169363a9059cbb9316916336b19cd79160048083019260209291908290030181865afa1580156107d7573d6000803e3d6000fd5b505050506040513d601f19601f820116820180604052508101906107fb9190611b2c565b6001546040516370a0823160e01b81523060048201526001600160a01b03909116906370a0823190602401602060405180830381865afa158015610843573d6000803e3d6000fd5b505050506040513d601f19601f820116820180604052508101906108679190611ad7565b6040516001600160e01b031960e085901b1681526001600160a01b03909216600483015260248201526044016020604051808303816000875af11580156108b2573d6000803e3d6000fd5b505050506040513d601f19601f820116820180604052508101906108d69190611af0565b50600180546001600160a01b0319166001600160a01b0392909216919091179055565b600a546001600160a01b0316331461093b5760405162461bcd60e51b815260206004820152600560248201526443462d303360d81b60448201526064016103d6565b6000838152600960209081526040808320548352600890915290206002810154610100900460ff161561096e5750505050565b600080600060028686600081811061098857610988611b49565b905060200201356109999190611b75565b60011490508080156109af5750600284015460ff165b806109c85750801580156109c85750600284015460ff16155b15610bc35760028401805461ff00191661010017905560065460018501546103e8916109fa9160ff9190911690611b9f565b610a049190611bbc565b9150818460010154610a169190611bd0565b9250836001015483610a289190611be3565b600154855460405163a9059cbb60e01b81526001600160a01b03918216600482015260248101849052929550169063a9059cbb906044016020604051808303816000875af1158015610a7e573d6000803e3d6000fd5b505050506040513d601f19601f82011682018060405250810190610aa29190611af0565b5060065462010000900460ff1615610bbe5760015460005460405163a7ad58bf60e01b81527f06aa03964db1f7257357ef09714a5f0ca3633723df419e97015e0c7a3e83edb760048201526001600160a01b039283169263a9059cbb92169063a7ad58bf90602401602060405180830381865afa158015610b27573d6000803e3d6000fd5b505050506040513d601f19601f82011682018060405250810190610b4b9190611b2c565b6040516001600160e01b031960e084901b1681526001600160a01b039091166004820152602481018590526044016020604051808303816000875af1158015610b98573d6000803e3d6000fd5b505050506040513d601f19601f82011682018060405250810190610bbc9190611af0565b505b610bd5565b60028401805461ff0019166102001790555b836001015460026000828254610beb9190611bd0565b909155505083546000888152600960209081526040918290205460018801546002890154845191825292810188905261010090920460ff16928201929092528315156060820152608081018590523060a08201526001600160a01b03909216917f43d2e462c3cc97129f49a0401caea4280ebb49b6eb98b737be5702548a858c2d9060c00160405180910390a350505050505050565b60005460408051631d6c8e3f60e21b815290516001600160a01b03909216916312d9a6ad9183916375b238fc916004808201926020929091908290030181865afa158015610cd3573d6000803e3d6000fd5b505050506040513d601f19601f82011682018060405250810190610cf79190611ad7565b6040516001600160e01b031960e084901b1681526004810191909152336024820152604401602060405180830381865afa158015610d39573d6000803e3d6000fd5b505050506040513d601f19601f82011682018060405250810190610d5d9190611af0565b610d795760405162461bcd60e51b81526004016103d690611b0d565b60068054821515620100000262ff0000199091161790556040517f60f3115279654f0dde209396aeb5e0fbd0ee38a3c1171dd4b3324fdcbf807b1e9061042b90831515815260200190565b60005460408051631d6c8e3f60e21b815290516001600160a01b03909216916312d9a6ad9183916375b238fc916004808201926020929091908290030181865afa158015610e16573d6000803e3d6000fd5b505050506040513d601f19601f82011682018060405250810190610e3a9190611ad7565b6040516001600160e01b031960e084901b1681526004810191909152336024820152604401602060405180830381865afa158015610e7c573d6000803e3d6000fd5b505050506040513d601f19601f82011682018060405250810190610ea09190611af0565b610ebc5760405162461bcd60e51b81526004016103d690611b0d565b83851015610ef45760405162461bcd60e51b815260206004820152600560248201526421a316981b60d91b60448201526064016103d6565b6101f48160ff161115610f315760405162461bcd60e51b81526020600482015260056024820152640868c5a60760db1b60448201526064016103d6565b600654610100900460ff16610f865760648511158015610f52575060648411155b610f865760405162461bcd60e51b815260206004820152600560248201526421a316989960d91b60448201526064016103d6565b600385905560048490556006805460ff848116600581905561ffff1990921661010087151590810260ff19169190911791851691821790935560408051888152602081018a905290810193909352606083019190915260808201527ffebcca72095f2fc322ff63bdd298db612fde4d3c9375785296deb1d288deac839060a00160405180910390a15050505050565b6001546040516370a0823160e01b81523060048201526000916001600160a01b0316906370a0823190602401602060405180830381865afa15801561105e573d6000803e3d6000fd5b505050506040513d601f19601f820116820180604052508101906110829190611ad7565b600654909150610100900460ff16156110e25760035482111580156110a957506004548210155b6110dd5760405162461bcd60e51b815260206004820152600560248201526443462d303160d81b60448201526064016103d6565b611158565b6064816003546110f29190611b9f565b6110fc9190611bbc565b821115801561112457506064816004546111169190611b9f565b6111209190611bbc565b8210155b6111585760405162461bcd60e51b815260206004820152600560248201526443462d303160d81b60448201526064016103d6565b816002546111669190611be3565b611171906002611b9f565b8110156111a85760405162461bcd60e51b815260206004820152600560248201526421a316981960d91b60448201526064016103d6565b600080546040805163627cdcb960e01b815290516001600160a01b039092169263627cdcb99260048084019382900301818387803b1580156111e957600080fd5b505af11580156111fd573d6000803e3d6000fd5b505050506005548261120f9190611bd0565b6001546040516323b872dd60e01b8152336004820152306024820152604481018390529193506001600160a01b0316906323b872dd906064016020604051808303816000875af1158015611267573d6000803e3d6000fd5b505050506040513d601f19601f8201168201806040525081019061128b9190611af0565b5060015460005460405163a7ad58bf60e01b81527f06aa03964db1f7257357ef09714a5f0ca3633723df419e97015e0c7a3e83edb760048201526001600160a01b03928316926323b872dd92339291169063a7ad58bf90602401602060405180830381865afa158015611302573d6000803e3d6000fd5b505050506040513d601f19601f820116820180604052508101906113269190611b2c565b6005546040516001600160e01b031960e086901b1681526001600160a01b03938416600482015292909116602483015260448201526064016020604051808303816000875af115801561137d573d6000803e3d6000fd5b505050506040513d601f19601f820116820180604052508101906113a19190611af0565b506040518060800160405280336001600160a01b031681526020018381526020018415158152602001600060ff16815250600860008060009054906101000a90046001600160a01b03166001600160a01b031663affed0e06040518163ffffffff1660e01b8152600401602060405180830381865afa158015611428573d6000803e3d6000fd5b505050506040513d601f19601f8201168201806040525081019061144c9190611ad7565b815260208082019290925260409081016000908120845181546001600160a01b0319166001600160a01b0391821617825593850151600180830191909155858401516002909201805460609097015161ffff1990971692151561ff0019169290921761010060ff90971696909602959095179055600a54600b54925163d291ba0960e01b815260806004820152601b60848201527f63616c6c6261636b2875696e743235362c75696e743235365b5d29000000000060a48201526024810195909552600160a01b830461ffff16604486015291831660648501529291169063d291ba099060c4016020604051808303816000875af1158015611552573d6000803e3d6000fd5b505050506040513d601f19601f820116820180604052508101906115769190611ad7565b905060008054906101000a90046001600160a01b03166001600160a01b031663affed0e06040518163ffffffff1660e01b8152600401602060405180830381865afa1580156115c9573d6000803e3d6000fd5b505050506040513d601f19601f820116820180604052508101906115ed9190611ad7565b60008281526009602052604081209190915560028054859290611611908490611be3565b9250508190555060016007600082825461162b9190611be3565b90915550506000546040805163057ff68760e51b8152905183926001600160a01b03169163affed0e09160048083019260209291908290030181865afa158015611679573d6000803e3d6000fd5b505050506040513d601f19601f8201168201806040525081019061169d9190611ad7565b60405185815233907f577ee7b6aeb61c2eddd20e062dd7e4e9217cc5b0c2e6b12844f75e8aff04d41b9060200160405180910390a450505050565b60005460408051631d6c8e3f60e21b815290516001600160a01b03909216916312d9a6ad9183916375b238fc916004808201926020929091908290030181865afa15801561172a573d6000803e3d6000fd5b505050506040513d601f19601f8201168201806040525081019061174e9190611ad7565b6040516001600160e01b031960e084901b1681526004810191909152336024820152604401602060405180830381865afa158015611790573d6000803e3d6000fd5b505050506040513d601f19601f820116820180604052508101906117b49190611af0565b6117d05760405162461bcd60e51b81526004016103d690611b0d565b60008181526008602052604090206002810154610100900460ff16156118205760405162461bcd60e51b815260206004820152600560248201526410d18b4c0d60da1b60448201526064016103d6565b6001805482549183015460405163a9059cbb60e01b81526001600160a01b039384166004820152602481019190915291169063a9059cbb906044016020604051808303816000875af115801561187a573d6000803e3d6000fd5b505050506040513d601f19601f8201168201806040525081019061189e9190611af0565b508060010154600260008282546118b59190611bd0565b909155505060006001820181905560028201805461ff00191661030017905581546040519182526001600160a01b03169083907ffa155f416059e21f529e5445cc0a44fc2e61c29bf131685ac80870ccf021b9099060200160405180910390a35050565b60006020828403121561192b57600080fd5b5035919050565b60006020828403121561194457600080fd5b813561ffff8116811461195657600080fd5b9392505050565b6001600160a01b038116811461197257600080fd5b50565b60006020828403121561198757600080fd5b81356119568161195d565b6000806000604084860312156119a757600080fd5b83359250602084013567ffffffffffffffff808211156119c657600080fd5b818601915086601f8301126119da57600080fd5b8135818111156119e957600080fd5b8760208260051b85010111156119fe57600080fd5b6020830194508093505050509250925092565b801515811461197257600080fd5b600060208284031215611a3157600080fd5b813561195681611a11565b803560ff81168114611a4d57600080fd5b919050565b600080600080600060a08688031215611a6a57600080fd5b85359450602086013593506040860135611a8381611a11565b9250611a9160608701611a3c565b9150611a9f60808701611a3c565b90509295509295909350565b60008060408385031215611abe57600080fd5b8235611ac981611a11565b946020939093013593505050565b600060208284031215611ae957600080fd5b5051919050565b600060208284031215611b0257600080fd5b815161195681611a11565b60208082526005908201526443462d303560d81b604082015260600190565b600060208284031215611b3e57600080fd5b81516119568161195d565b634e487b7160e01b600052603260045260246000fd5b634e487b7160e01b600052601260045260246000fd5b600082611b8457611b84611b5f565b500690565b634e487b7160e01b600052601160045260246000fd5b8082028115828204841417611bb657611bb6611b89565b92915050565b600082611bcb57611bcb611b5f565b500490565b81810381811115611bb657611bb6611b89565b80820180821115611bb657611bb6611b8956fea26469706673582212201992c6e9bc7affed8d05213607cb1fe4c555949722ff1d8eb78ab3ebe029b9cb64736f6c63430008130033",
  "immutableReferences": {},
  "source": "// SPDX-License-Identifier: MIT\r\npragma solidity ^0.8.19;\r\n\r\nimport \"../interfaces/IGamesHub.sol\";\r\nimport \"../interfaces/IERC20.sol\";\r\n\r\ninterface ISupraRouter {\r\n    function generateRequest(\r\n        string memory _functionSig,\r\n        uint8 _rngCount,\r\n        uint256 _numConfirmations,\r\n        uint256 _clientSeed,\r\n        address _clientWalletAddress\r\n    ) external returns (uint256);\r\n\r\n    function generateRequest(\r\n        string memory _functionSig,\r\n        uint8 _rngCount,\r\n        uint256 _numConfirmations,\r\n        address _clientWalletAddress\r\n    ) external returns (uint256);\r\n}\r\n\r\ncontract CoinFlipGameSupra {\r\n    event CoinFlipped(\r\n        address indexed player,\r\n        uint256 indexed nonce,\r\n        uint256 indexed rngNonce,\r\n        uint256 creditAmount\r\n    );\r\n    event GameFinished(\r\n        uint256 indexed nonce,\r\n        address indexed player,\r\n        uint256 volumeIn,\r\n        uint256 volumeOut,\r\n        uint8 result,\r\n        bool heads,\r\n        uint256 fee,\r\n        address game\r\n    );\r\n    event LimitsAndChancesChanged(\r\n        uint256 maxLimit,\r\n        uint256 minLimit,\r\n        bool limitTypeFixed,\r\n        uint8 feeFromBet,\r\n        uint8 feePercFromWin\r\n    );\r\n    event GameRefunded(\r\n        uint256 indexed nonce,\r\n        address indexed player,\r\n        uint256 volume\r\n    );\r\n\r\n    event ConfirmationsChanged(uint16 _requestConfirmations);\r\n\r\n    IGamesHub public gamesHub;\r\n    IERC20 public token;\r\n    uint256 public totalBet;\r\n    uint256 public maxLimit = 1000 * (10 ** 6); //default 1000 USDC\r\n    uint256 public minLimit = 1 * (10 ** 6); //default 1 USDC\r\n    uint256 public feeFromBet = 7 * (10 ** 4); //default 7 cents\r\n    uint8 public feePercFromWin = 15;\r\n    bool limitTypeFixed = true;\r\n    bool keepFees = false;\r\n    uint256 totalGames = 0;\r\n\r\n    struct Games {\r\n        address player;\r\n        uint256 amount;\r\n        bool heads;\r\n        uint8 result; // 0- not set, 1- win, 2- lose, 3- refunded\r\n    }\r\n    mapping(uint256 => Games) public games;\r\n    mapping(uint256 => uint256) gameNonce;\r\n\r\n    address private supraAddr;\r\n    address private deployer;\r\n    uint16 public requestConfirmations;\r\n\r\n    constructor(\r\n        address supraSC,\r\n        uint16 _requestConfirmations,\r\n        address _gamesHub\r\n    ) {\r\n        gamesHub = IGamesHub(_gamesHub);\r\n        token = IERC20(gamesHub.helpers(keccak256(\"TOKEN\")));\r\n        totalBet = 0;\r\n        supraAddr = supraSC;\r\n        deployer = msg.sender;\r\n        requestConfirmations = _requestConfirmations;\r\n    }\r\n\r\n    /**\r\n     * @dev Flip the coin, setting the bet amount and the side of the coin\r\n     * A request will be sent to the SupraOracles contract to get a random number\r\n     * @param _heads Heads or Tails\r\n     * @param _amount Amount of tokens to bet\r\n     */\r\n    function coinFlip(bool _heads, uint256 _amount) external {\r\n        uint256 balance = token.balanceOf(address(this));\r\n\r\n        if (limitTypeFixed) {\r\n            require(_amount <= maxLimit && _amount >= minLimit, \"CF-01\");\r\n        } else {\r\n            require(\r\n                _amount <= (maxLimit * balance) / 100 &&\r\n                    _amount >= (minLimit * balance) / 100,\r\n                \"CF-01\"\r\n            );\r\n        }\r\n\r\n        require(balance >= ((totalBet + _amount) * 2), \"CF-02\");\r\n\r\n        gamesHub.incrementNonce();\r\n\r\n        _amount -= feeFromBet;\r\n\r\n        token.transferFrom(msg.sender, address(this), _amount);\r\n        // Sending fee to the house\r\n        token.transferFrom(\r\n            msg.sender,\r\n            gamesHub.helpers(keccak256(\"TREASURY\")),\r\n            feeFromBet\r\n        );\r\n\r\n        games[gamesHub.nonce()] = Games(msg.sender, _amount, _heads, 0);\r\n\r\n        uint256 nonce = ISupraRouter(supraAddr).generateRequest(\r\n            \"callback(uint256,uint256[])\",\r\n            1,\r\n            requestConfirmations,\r\n            deployer\r\n        );\r\n        gameNonce[nonce] = gamesHub.nonce();\r\n\r\n        totalBet += _amount;\r\n        totalGames += 1;\r\n        emit CoinFlipped(msg.sender, gamesHub.nonce(), nonce, _amount);\r\n    }\r\n\r\n    /**\r\n     * @dev Callback function from the SupraOracles contract\r\n     * @param nonce Nonce of the game\r\n     * @param rngList Random number list\r\n     */\r\n    function callback(uint256 nonce, uint256[] calldata rngList) external {\r\n        require(msg.sender == supraAddr, \"CF-03\");\r\n        Games storage game = games[gameNonce[nonce]];\r\n        if (game.result > 0) return;\r\n\r\n        uint256 volume = 0;\r\n        uint256 _fee = 0;\r\n        bool heads = (rngList[0] % 2) == 1;\r\n\r\n        if ((heads && game.heads) || (!heads && !game.heads)) {\r\n            game.result = 1;\r\n            _fee = (game.amount * feePercFromWin) / 1000;\r\n            volume = game.amount - _fee;\r\n            volume += game.amount;\r\n            token.transfer(game.player, volume);\r\n            if (keepFees)\r\n                token.transfer(gamesHub.helpers(keccak256(\"TREASURY\")), _fee);\r\n        } else {\r\n            game.result = 2;\r\n        }\r\n        totalBet -= game.amount;\r\n\r\n        emit GameFinished(\r\n            gameNonce[nonce],\r\n            game.player,\r\n            game.amount,\r\n            volume,\r\n            game.result,\r\n            heads,\r\n            _fee,\r\n            address(this)\r\n        );\r\n    }\r\n\r\n    /**\r\n     * @dev Refund the game to the player. To use only if some game is stuck.\r\n     * @param _nonce Nonce of the game\r\n     */\r\n    function refundGame(uint256 _nonce) external {\r\n        require(gamesHub.checkRole(gamesHub.ADMIN_ROLE(), msg.sender), \"CF-05\");\r\n        Games storage game = games[_nonce];\r\n        require(game.result == 0, \"CF-04\");\r\n\r\n        token.transfer(game.player, game.amount);\r\n        totalBet -= game.amount;\r\n        game.amount = 0;\r\n        game.result = 3;\r\n\r\n        emit GameRefunded(_nonce, game.player, game.amount);\r\n    }\r\n\r\n    /**\r\n     * @dev Change the house chance and bet limit\r\n     * @param _maxLimit maximum bet limit\r\n     * @param _minLimit minimum bet limit\r\n     * @param _limitTypeFixed if true, the bet limit will be fixed, if false, the bet limit will be a percentage of the contract balance\r\n     * @param _feeFromBet fee from the bet\r\n     * @param _feePercFromWin fee percentage from the win\r\n     */\r\n    function changeLimitsAndChances(\r\n        uint256 _maxLimit,\r\n        uint256 _minLimit,\r\n        bool _limitTypeFixed,\r\n        uint8 _feeFromBet,\r\n        uint8 _feePercFromWin\r\n    ) public {\r\n        require(gamesHub.checkRole(gamesHub.ADMIN_ROLE(), msg.sender), \"CF-05\");\r\n        require(_maxLimit >= _minLimit, \"CF-06\");\r\n        require(_feePercFromWin <= 500, \"CF-08\");\r\n\r\n        if (!limitTypeFixed) {\r\n            require(_maxLimit <= 100 && _minLimit <= 100, \"CF-12\");\r\n        }\r\n\r\n        maxLimit = _maxLimit;\r\n        minLimit = _minLimit;\r\n        limitTypeFixed = _limitTypeFixed;\r\n        feeFromBet = _feeFromBet;\r\n        feePercFromWin = _feePercFromWin;\r\n\r\n        emit LimitsAndChancesChanged(\r\n            _minLimit,\r\n            _maxLimit,\r\n            _limitTypeFixed,\r\n            _feeFromBet,\r\n            _feePercFromWin\r\n        );\r\n    }\r\n\r\n    /**\r\n     * @dev Change the number of confirmations required for the request\r\n     * @param _requestConfirmations Number of confirmations\r\n     */\r\n    function changeConfirmations(uint16 _requestConfirmations) public {\r\n        require(gamesHub.checkRole(gamesHub.ADMIN_ROLE(), msg.sender), \"CF-05\");\r\n        requestConfirmations = _requestConfirmations;\r\n        emit ConfirmationsChanged(_requestConfirmations);\r\n    }\r\n\r\n    /**\r\n     * @dev Change the keepFees variable\r\n     * @param _keepFees New value for keepFees\r\n     */\r\n    function changeKeepFees(bool _keepFees) public {\r\n        require(gamesHub.checkRole(gamesHub.ADMIN_ROLE(), msg.sender), \"CF-05\");\r\n        keepFees = _keepFees;\r\n\r\n        emit KeepFeesChanged(_keepFees);\r\n    }\r\n\r\n    event KeepFeesChanged(bool _keepFees);\r\n\r\n    /**\r\n     * @dev Change the token address, sending the current token balance to the admin wallet\r\n     * @param _token New token address\r\n     */\r\n    function changeToken(address _token) public {\r\n        require(gamesHub.checkRole(gamesHub.ADMIN_ROLE(), msg.sender), \"CF-05\");\r\n        require(totalBet == 0, \"CF-07\");\r\n\r\n        token.transfer(gamesHub.adminWallet(), token.balanceOf(address(this)));\r\n        token = IERC20(_token);\r\n    }\r\n\r\n    /**\r\n     * @dev Withdraw tokens from the contract to the admin wallet\r\n     * @param _amount Amount of tokens to withdraw\r\n     */\r\n    function withdrawTokens(uint256 _amount) public {\r\n        require(gamesHub.checkRole(gamesHub.ADMIN_ROLE(), msg.sender), \"CF-05\");\r\n        require(totalBet == 0, \"CF-07\");\r\n\r\n        token.transfer(gamesHub.adminWallet(), _amount);\r\n    }\r\n}\r\n",
  "sourcePath": "C:\\Users\\Gabriel\\Desktop\\TribeX\\contractsV2\\contracts\\games\\CoinFlipGameSupra.sol",
  "compiler": {
    "name": "solc",
    "version": "0.8.19+commit.7dd6d404.Emscripten.clang"
  },
  "schemaVersion": "3.4.16",
  "updatedAt": "2024-01-17T20:12:38.917Z",
  "networkType": "ethereum",
  "devdoc": {
    "kind": "dev",
    "methods": {
      "callback(uint256,uint256[])": {
        "details": "Callback function from the SupraOracles contract",
        "params": {
          "nonce": "Nonce of the game",
          "rngList": "Random number list"
        }
      },
      "changeConfirmations(uint16)": {
        "details": "Change the number of confirmations required for the request",
        "params": {
          "_requestConfirmations": "Number of confirmations"
        }
      },
      "changeKeepFees(bool)": {
        "details": "Change the keepFees variable",
        "params": {
          "_keepFees": "New value for keepFees"
        }
      },
      "changeLimitsAndChances(uint256,uint256,bool,uint8,uint8)": {
        "details": "Change the house chance and bet limit",
        "params": {
          "_feeFromBet": "fee from the bet",
          "_feePercFromWin": "fee percentage from the win",
          "_limitTypeFixed": "if true, the bet limit will be fixed, if false, the bet limit will be a percentage of the contract balance",
          "_maxLimit": "maximum bet limit",
          "_minLimit": "minimum bet limit"
        }
      },
      "changeToken(address)": {
        "details": "Change the token address, sending the current token balance to the admin wallet",
        "params": {
          "_token": "New token address"
        }
      },
      "coinFlip(bool,uint256)": {
        "details": "Flip the coin, setting the bet amount and the side of the coin A request will be sent to the SupraOracles contract to get a random number",
        "params": {
          "_amount": "Amount of tokens to bet",
          "_heads": "Heads or Tails"
        }
      },
      "refundGame(uint256)": {
        "details": "Refund the game to the player. To use only if some game is stuck.",
        "params": {
          "_nonce": "Nonce of the game"
        }
      },
      "withdrawTokens(uint256)": {
        "details": "Withdraw tokens from the contract to the admin wallet",
        "params": {
          "_amount": "Amount of tokens to withdraw"
        }
      }
    },
    "version": 1
  },
  "userdoc": {
    "kind": "user",
    "methods": {},
    "version": 1
  }
}