{
  "contractName": "DiceChainlink",
  "abi": [
    {
      "inputs": [
        {
          "internalType": "uint64",
          "name": "subscriptionId",
          "type": "uint64"
        },
        {
          "internalType": "address",
          "name": "vrfCoordinator",
          "type": "address"
        },
        {
          "internalType": "bytes32",
          "name": "_keyHash",
          "type": "bytes32"
        },
        {
          "internalType": "uint32",
          "name": "_callbackGasLimit",
          "type": "uint32"
        },
        {
          "internalType": "uint16",
          "name": "_requestConfirmations",
          "type": "uint16"
        },
        {
          "internalType": "address",
          "name": "_gamesHub",
          "type": "address"
        }
      ],
      "stateMutability": "nonpayable",
      "type": "constructor"
    },
    {
      "inputs": [
        {
          "internalType": "address",
          "name": "have",
          "type": "address"
        },
        {
          "internalType": "address",
          "name": "want",
          "type": "address"
        }
      ],
      "name": "OnlyCoordinatorCanFulfill",
      "type": "error"
    },
    {
      "anonymous": false,
      "inputs": [
        {
          "indexed": true,
          "internalType": "address",
          "name": "player",
          "type": "address"
        },
        {
          "indexed": true,
          "internalType": "uint256",
          "name": "nonce",
          "type": "uint256"
        },
        {
          "indexed": true,
          "internalType": "uint256",
          "name": "rngNonce",
          "type": "uint256"
        },
        {
          "indexed": false,
          "internalType": "uint256",
          "name": "creditAmount",
          "type": "uint256"
        }
      ],
      "name": "DiceRolled",
      "type": "event"
    },
    {
      "anonymous": false,
      "inputs": [
        {
          "indexed": true,
          "internalType": "uint256",
          "name": "nonce",
          "type": "uint256"
        },
        {
          "indexed": true,
          "internalType": "address",
          "name": "player",
          "type": "address"
        },
        {
          "indexed": false,
          "internalType": "uint256",
          "name": "volumeIn",
          "type": "uint256"
        },
        {
          "indexed": false,
          "internalType": "uint256",
          "name": "volumeOut",
          "type": "uint256"
        },
        {
          "indexed": false,
          "internalType": "uint8",
          "name": "result",
          "type": "uint8"
        },
        {
          "indexed": false,
          "internalType": "uint8",
          "name": "diceResult",
          "type": "uint8"
        },
        {
          "indexed": false,
          "internalType": "uint256",
          "name": "fee",
          "type": "uint256"
        },
        {
          "indexed": false,
          "internalType": "address",
          "name": "game",
          "type": "address"
        }
      ],
      "name": "GameFinished",
      "type": "event"
    },
    {
      "anonymous": false,
      "inputs": [
        {
          "indexed": true,
          "internalType": "uint256",
          "name": "nonce",
          "type": "uint256"
        },
        {
          "indexed": true,
          "internalType": "address",
          "name": "player",
          "type": "address"
        },
        {
          "indexed": false,
          "internalType": "uint256",
          "name": "volume",
          "type": "uint256"
        }
      ],
      "name": "GameRefunded",
      "type": "event"
    },
    {
      "anonymous": false,
      "inputs": [
        {
          "indexed": false,
          "internalType": "bool",
          "name": "_keepFees",
          "type": "bool"
        }
      ],
      "name": "KeepFeesChanged",
      "type": "event"
    },
    {
      "anonymous": false,
      "inputs": [
        {
          "indexed": false,
          "internalType": "uint256",
          "name": "maxLimit",
          "type": "uint256"
        },
        {
          "indexed": false,
          "internalType": "uint256",
          "name": "minLimit",
          "type": "uint256"
        },
        {
          "indexed": false,
          "internalType": "bool",
          "name": "limitTypeFixed",
          "type": "bool"
        },
        {
          "indexed": false,
          "internalType": "uint256",
          "name": "feeFromBet",
          "type": "uint256"
        },
        {
          "indexed": false,
          "internalType": "uint8",
          "name": "feePercFromWin",
          "type": "uint8"
        }
      ],
      "name": "LimitsAndChancesChanged",
      "type": "event"
    },
    {
      "anonymous": false,
      "inputs": [
        {
          "indexed": true,
          "internalType": "address",
          "name": "from",
          "type": "address"
        },
        {
          "indexed": true,
          "internalType": "address",
          "name": "to",
          "type": "address"
        }
      ],
      "name": "OwnershipTransferRequested",
      "type": "event"
    },
    {
      "anonymous": false,
      "inputs": [
        {
          "indexed": true,
          "internalType": "address",
          "name": "from",
          "type": "address"
        },
        {
          "indexed": true,
          "internalType": "address",
          "name": "to",
          "type": "address"
        }
      ],
      "name": "OwnershipTransferred",
      "type": "event"
    },
    {
      "inputs": [],
      "name": "acceptOwnership",
      "outputs": [],
      "stateMutability": "nonpayable",
      "type": "function"
    },
    {
      "inputs": [],
      "name": "feeFromBet",
      "outputs": [
        {
          "internalType": "uint256",
          "name": "",
          "type": "uint256"
        }
      ],
      "stateMutability": "view",
      "type": "function"
    },
    {
      "inputs": [],
      "name": "feePercFromWin",
      "outputs": [
        {
          "internalType": "uint8",
          "name": "",
          "type": "uint8"
        }
      ],
      "stateMutability": "view",
      "type": "function"
    },
    {
      "inputs": [
        {
          "internalType": "uint256",
          "name": "",
          "type": "uint256"
        }
      ],
      "name": "games",
      "outputs": [
        {
          "internalType": "address",
          "name": "player",
          "type": "address"
        },
        {
          "internalType": "uint256",
          "name": "amount",
          "type": "uint256"
        },
        {
          "internalType": "uint8",
          "name": "sizeBet",
          "type": "uint8"
        },
        {
          "internalType": "uint8",
          "name": "result",
          "type": "uint8"
        }
      ],
      "stateMutability": "view",
      "type": "function"
    },
    {
      "inputs": [],
      "name": "gamesHub",
      "outputs": [
        {
          "internalType": "contract IGamesHub",
          "name": "",
          "type": "address"
        }
      ],
      "stateMutability": "view",
      "type": "function"
    },
    {
      "inputs": [],
      "name": "maxLimit",
      "outputs": [
        {
          "internalType": "uint256",
          "name": "",
          "type": "uint256"
        }
      ],
      "stateMutability": "view",
      "type": "function"
    },
    {
      "inputs": [],
      "name": "minLimit",
      "outputs": [
        {
          "internalType": "uint256",
          "name": "",
          "type": "uint256"
        }
      ],
      "stateMutability": "view",
      "type": "function"
    },
    {
      "inputs": [],
      "name": "owner",
      "outputs": [
        {
          "internalType": "address",
          "name": "",
          "type": "address"
        }
      ],
      "stateMutability": "view",
      "type": "function"
    },
    {
      "inputs": [
        {
          "internalType": "uint256",
          "name": "requestId",
          "type": "uint256"
        },
        {
          "internalType": "uint256[]",
          "name": "randomWords",
          "type": "uint256[]"
        }
      ],
      "name": "rawFulfillRandomWords",
      "outputs": [],
      "stateMutability": "nonpayable",
      "type": "function"
    },
    {
      "inputs": [],
      "name": "token",
      "outputs": [
        {
          "internalType": "contract IERC20",
          "name": "",
          "type": "address"
        }
      ],
      "stateMutability": "view",
      "type": "function"
    },
    {
      "inputs": [],
      "name": "totalBet",
      "outputs": [
        {
          "internalType": "uint256",
          "name": "",
          "type": "uint256"
        }
      ],
      "stateMutability": "view",
      "type": "function"
    },
    {
      "inputs": [
        {
          "internalType": "address",
          "name": "to",
          "type": "address"
        }
      ],
      "name": "transferOwnership",
      "outputs": [],
      "stateMutability": "nonpayable",
      "type": "function"
    },
    {
      "inputs": [
        {
          "internalType": "uint8[5]",
          "name": "_sides",
          "type": "uint8[5]"
        },
        {
          "internalType": "uint256",
          "name": "_amount",
          "type": "uint256"
        }
      ],
      "name": "rollDice",
      "outputs": [],
      "stateMutability": "nonpayable",
      "type": "function"
    },
    {
      "inputs": [
        {
          "internalType": "uint256",
          "name": "_nonce",
          "type": "uint256"
        }
      ],
      "name": "refundGame",
      "outputs": [],
      "stateMutability": "nonpayable",
      "type": "function"
    },
    {
      "inputs": [
        {
          "internalType": "uint256",
          "name": "_maxLimit",
          "type": "uint256"
        },
        {
          "internalType": "uint256",
          "name": "_minLimit",
          "type": "uint256"
        },
        {
          "internalType": "bool",
          "name": "_limitTypeFixed",
          "type": "bool"
        },
        {
          "internalType": "uint8",
          "name": "_feeFromBet",
          "type": "uint8"
        },
        {
          "internalType": "uint8",
          "name": "_feePercFromWin",
          "type": "uint8"
        }
      ],
      "name": "changeLimitsAndChances",
      "outputs": [],
      "stateMutability": "nonpayable",
      "type": "function"
    },
    {
      "inputs": [
        {
          "internalType": "bool",
          "name": "_keepFees",
          "type": "bool"
        }
      ],
      "name": "changeKeepFees",
      "outputs": [],
      "stateMutability": "nonpayable",
      "type": "function"
    },
    {
      "inputs": [
        {
          "internalType": "address",
          "name": "_token",
          "type": "address"
        }
      ],
      "name": "changeToken",
      "outputs": [],
      "stateMutability": "nonpayable",
      "type": "function"
    },
    {
      "inputs": [
        {
          "internalType": "bytes32",
          "name": "_keyHash",
          "type": "bytes32"
        }
      ],
      "name": "changeKeyHash",
      "outputs": [],
      "stateMutability": "nonpayable",
      "type": "function"
    },
    {
      "inputs": [
        {
          "internalType": "uint256",
          "name": "_amount",
          "type": "uint256"
        }
      ],
      "name": "withdrawTokens",
      "outputs": [],
      "stateMutability": "nonpayable",
      "type": "function"
    }
  ],
  "bytecode": "0x60a0604052633b9aca00600555620f4240600655620222e06007556008805462ffffff191661010f17905560006009553480156200003c57600080fd5b50604051620027d5380380620027d58339810160408190526200005f91620002e9565b6001600160a01b0385166080523380600081620000c35760405162461bcd60e51b815260206004820152601860248201527f43616e6e6f7420736574206f776e657220746f207a65726f000000000000000060448201526064015b60405180910390fd5b600080546001600160a01b0319166001600160a01b0384811691909117909155811615620000f657620000f68162000221565b5050600b80546001600160a01b038881166001600160e01b031990921691909117600160a01b6001600160401b038b160217909155600c869055600d805463ffffffff871665ffffffffffff199091161764010000000061ffff871602179055600280546001600160a01b031916918416918217905560405163a7ad58bf60e01b81527f96706879d29c248edfb2a2563a8a9d571c49634c0f82013e6f5a7cde739d35d4600482015290915063a7ad58bf90602401602060405180830381865afa158015620001c9573d6000803e3d6000fd5b505050506040513d601f19601f82011682018060405250810190620001ef919062000381565b600380546001600160a01b0319166001600160a01b03929092169190911790555050600060045550620003a692505050565b336001600160a01b038216036200027b5760405162461bcd60e51b815260206004820152601760248201527f43616e6e6f74207472616e7366657220746f2073656c660000000000000000006044820152606401620000ba565b600180546001600160a01b0319166001600160a01b0383811691821790925560008054604051929316917fed8889f560326eb138920d842192f0eb3dd22b4f139c87a2c57538e05bae12789190a350565b80516001600160a01b0381168114620002e457600080fd5b919050565b60008060008060008060c087890312156200030357600080fd5b86516001600160401b03811681146200031b57600080fd5b95506200032b60208801620002cc565b945060408701519350606087015163ffffffff811681146200034c57600080fd5b608088015190935061ffff811681146200036557600080fd5b91506200037560a08801620002cc565b90509295509295509295565b6000602082840312156200039457600080fd5b6200039f82620002cc565b9392505050565b60805161240c620003c960003960008181610e0f0152610e51015261240c6000f3fe608060405234801561001057600080fd5b50600436106101215760003560e01c80636419729f116100ad578063be29116a11610071578063be29116a146102a3578063d7260cba146102b6578063f2fde38b146102c9578063fc0c546a146102dc578063fe5e1853146102ef57600080fd5b80636419729f1461024557806366829b161461026457806379ba5097146102775780638da5cb5b1461027f578063a2dda0411461029057600080fd5b80631fd8088d116100f45780631fd8088d146101fa5780631fe543e3146102035780632d65b8ed146102165780632f68f4821461021f578063315a095d1461023257600080fd5b806308898705146101265780630cc50bd21461013b578063117a5b901461016b5780631a861d26146101e3575b600080fd5b61013961013436600461206d565b6102f8565b005b60025461014e906001600160a01b031681565b6040516001600160a01b0390911681526020015b60405180910390f35b6101b06101793660046120f7565b600a602052600090815260409020805460018201546004909201546001600160a01b03909116919060ff8082169161010090041684565b604080516001600160a01b039095168552602085019390935260ff91821692840192909252166060820152608001610162565b6101ec60055481565b604051908152602001610162565b6101ec60065481565b610139610211366004612110565b610e04565b6101ec60075481565b61013961022d3660046120f7565b610e8c565b6101396102403660046120f7565b610f89565b6008546102529060ff1681565b60405160ff9091168152602001610162565b6101396102723660046121d7565b6111a2565b610139611467565b6000546001600160a01b031661014e565b61013961029e366004612209565b611511565b6101396102b1366004612226565b611677565b6101396102c43660046120f7565b6118c8565b6101396102d73660046121d7565b611b07565b60035461014e906001600160a01b031681565b6101ec60045481565b6003546040516370a0823160e01b81523060048201526000916001600160a01b0316906370a0823190602401602060405180830381865afa158015610341573d6000803e3d6000fd5b505050506040513d601f19601f82011682018060405250810190610365919061227f565b600854909150610100900460ff16156103ca57600554821115801561038c57506006548210155b6103c55760405162461bcd60e51b815260206004820152600560248201526444432d303160d81b60448201526064015b60405180910390fd5b610440565b6064816005546103da91906122ae565b6103e491906122e1565b821115801561040c57506064816006546103fe91906122ae565b61040891906122e1565b8210155b6104405760405162461bcd60e51b815260206004820152600560248201526444432d303160d81b60448201526064016103bc565b8160045461044e91906122f5565b6104599060066122ae565b8110156104905760405162461bcd60e51b8152602060048201526005602482015264222196981960d91b60448201526064016103bc565b600260009054906101000a90046001600160a01b03166001600160a01b031663627cdcb96040518163ffffffff1660e01b8152600401600060405180830381600087803b1580156104e057600080fd5b505af11580156104f4573d6000803e3d6000fd5b5050505060005b60058160ff1610156107c5576000848260ff166005811061051e5761051e612308565b602002015160ff1611801561054f57506007848260ff166005811061054557610545612308565b602002015160ff16105b801561061b5750600a6000600260009054906101000a90046001600160a01b03166001600160a01b031663affed0e06040518163ffffffff1660e01b8152600401602060405180830381865afa1580156105ad573d6000803e3d6000fd5b505050506040513d601f19601f820116820180604052508101906105d1919061227f565b81526020019081526020016000206003016000858360ff16600581106105f9576105f9612308565b6020908102919091015160ff9081168352908201929092526040016000205416155b156107b3576001600a6000600260009054906101000a90046001600160a01b03166001600160a01b031663affed0e06040518163ffffffff1660e01b8152600401602060405180830381865afa158015610679573d6000803e3d6000fd5b505050506040513d601f19601f8201168201806040525081019061069d919061227f565b81526020019081526020016000206003016000868460ff16600581106106c5576106c5612308565b602002015160ff1660ff16815260200190815260200160002060006101000a81548160ff0219169083151502179055506001600a6000600260009054906101000a90046001600160a01b03166001600160a01b031663affed0e06040518163ffffffff1660e01b8152600401602060405180830381865afa15801561074e573d6000803e3d6000fd5b505050506040513d601f19601f82011682018060405250810190610772919061227f565b815260208101919091526040016000908120600401805490919061079a90849060ff1661231e565b92506101000a81548160ff021916908360ff1602179055505b806107bd81612337565b9150506104fb565b506000600a6000600260009054906101000a90046001600160a01b03166001600160a01b031663affed0e06040518163ffffffff1660e01b8152600401602060405180830381865afa15801561081f573d6000803e3d6000fd5b505050506040513d601f19601f82011682018060405250810190610843919061227f565b815260208101919091526040016000206004015460ff161161088f5760405162461bcd60e51b815260206004820152600560248201526444432d303960d81b60448201526064016103bc565b60075461089c9083612356565b6003546040516323b872dd60e01b8152336004820152306024820152604481018390529193506001600160a01b0316906323b872dd906064016020604051808303816000875af11580156108f4573d6000803e3d6000fd5b505050506040513d601f19601f820116820180604052508101906109189190612369565b5060035460025460405163a7ad58bf60e01b81527f06aa03964db1f7257357ef09714a5f0ca3633723df419e97015e0c7a3e83edb760048201526001600160a01b03928316926323b872dd92339291169063a7ad58bf90602401602060405180830381865afa15801561098f573d6000803e3d6000fd5b505050506040513d601f19601f820116820180604052508101906109b39190612386565b6007546040516001600160e01b031960e086901b1681526001600160a01b03938416600482015292909116602483015260448201526064016020604051808303816000875af1158015610a0a573d6000803e3d6000fd5b505050506040513d601f19601f82011682018060405250810190610a2e9190612369565b5033600a6000600260009054906101000a90046001600160a01b03166001600160a01b031663affed0e06040518163ffffffff1660e01b8152600401602060405180830381865afa158015610a87573d6000803e3d6000fd5b505050506040513d601f19601f82011682018060405250810190610aab919061227f565b81526020808201929092526040908101600090812080546001600160a01b0319166001600160a01b03958616179055600254825163057ff68760e51b815292518795600a95939492169263affed0e092600480820193918290030181865afa158015610b1b573d6000803e3d6000fd5b505050506040513d601f19601f82011682018060405250810190610b3f919061227f565b81526020019081526020016000206001018190555082600a6000600260009054906101000a90046001600160a01b03166001600160a01b031663affed0e06040518163ffffffff1660e01b8152600401602060405180830381865afa158015610bac573d6000803e3d6000fd5b505050506040513d601f19601f82011682018060405250810190610bd0919061227f565b8152602001908152602001600020600201906005610bef929190611f68565b50600b54600c54600d546040516305d3b1d360e41b81526004810192909252600160a01b830467ffffffffffffffff166024830152640100000000810461ffff16604483015263ffffffff166064820152600160848201526000916001600160a01b031690635d3b1d309060a4016020604051808303816000875af1158015610c7c573d6000803e3d6000fd5b505050506040513d601f19601f82011682018060405250810190610ca0919061227f565b9050600260009054906101000a90046001600160a01b03166001600160a01b031663affed0e06040518163ffffffff1660e01b8152600401602060405180830381865afa158015610cf5573d6000803e3d6000fd5b505050506040513d601f19601f82011682018060405250810190610d19919061227f565b6000828152600e602052604081209190915560048054859290610d3d9084906122f5565b92505081905550600160096000828254610d5791906122f5565b90915550506002546040805163057ff68760e51b8152905183926001600160a01b03169163affed0e09160048083019260209291908290030181865afa158015610da5573d6000803e3d6000fd5b505050506040513d601f19601f82011682018060405250810190610dc9919061227f565b60405185815233907fcedccd06ff8a6797523ec9862a27bf366d14c17ee4569d0404a87cd01ebcf53d9060200160405180910390a450505050565b336001600160a01b037f00000000000000000000000000000000000000000000000000000000000000001614610e7e5760405163073e64fd60e21b81523360048201526001600160a01b037f00000000000000000000000000000000000000000000000000000000000000001660248201526044016103bc565b610e888282611b1b565b5050565b60025460408051631d6c8e3f60e21b815290516001600160a01b03909216916312d9a6ad9183916375b238fc916004808201926020929091908290030181865afa158015610ede573d6000803e3d6000fd5b505050506040513d601f19601f82011682018060405250810190610f02919061227f565b6040516001600160e01b031960e084901b1681526004810191909152336024820152604401602060405180830381865afa158015610f44573d6000803e3d6000fd5b505050506040513d601f19601f82011682018060405250810190610f689190612369565b610f845760405162461bcd60e51b81526004016103bc906123a3565b600c55565b60025460408051631d6c8e3f60e21b815290516001600160a01b03909216916312d9a6ad9183916375b238fc916004808201926020929091908290030181865afa158015610fdb573d6000803e3d6000fd5b505050506040513d601f19601f82011682018060405250810190610fff919061227f565b6040516001600160e01b031960e084901b1681526004810191909152336024820152604401602060405180830381865afa158015611041573d6000803e3d6000fd5b505050506040513d601f19601f820116820180604052508101906110659190612369565b6110815760405162461bcd60e51b81526004016103bc906123a3565b600454156110b95760405162461bcd60e51b815260206004820152600560248201526444432d303760d81b60448201526064016103bc565b600354600254604080516336b19cd760e01b815290516001600160a01b039384169363a9059cbb9316916336b19cd79160048083019260209291908290030181865afa15801561110d573d6000803e3d6000fd5b505050506040513d601f19601f820116820180604052508101906111319190612386565b6040516001600160e01b031960e084901b1681526001600160a01b039091166004820152602481018490526044016020604051808303816000875af115801561117e573d6000803e3d6000fd5b505050506040513d601f19601f82011682018060405250810190610e889190612369565b60025460408051631d6c8e3f60e21b815290516001600160a01b03909216916312d9a6ad9183916375b238fc916004808201926020929091908290030181865afa1580156111f4573d6000803e3d6000fd5b505050506040513d601f19601f82011682018060405250810190611218919061227f565b6040516001600160e01b031960e084901b1681526004810191909152336024820152604401602060405180830381865afa15801561125a573d6000803e3d6000fd5b505050506040513d601f19601f8201168201806040525081019061127e9190612369565b61129a5760405162461bcd60e51b81526004016103bc906123a3565b600454156112d25760405162461bcd60e51b815260206004820152600560248201526444432d303760d81b60448201526064016103bc565b60035460025460405163a7ad58bf60e01b81527f06aa03964db1f7257357ef09714a5f0ca3633723df419e97015e0c7a3e83edb760048201526001600160a01b039283169263a9059cbb92169063a7ad58bf90602401602060405180830381865afa158015611345573d6000803e3d6000fd5b505050506040513d601f19601f820116820180604052508101906113699190612386565b6003546040516370a0823160e01b81523060048201526001600160a01b03909116906370a0823190602401602060405180830381865afa1580156113b1573d6000803e3d6000fd5b505050506040513d601f19601f820116820180604052508101906113d5919061227f565b6040516001600160e01b031960e085901b1681526001600160a01b03909216600483015260248201526044016020604051808303816000875af1158015611420573d6000803e3d6000fd5b505050506040513d601f19601f820116820180604052508101906114449190612369565b50600380546001600160a01b0319166001600160a01b0392909216919091179055565b6001546001600160a01b031633146114ba5760405162461bcd60e51b815260206004820152601660248201527526bab9ba10313290383937b837b9b2b21037bbb732b960511b60448201526064016103bc565b60008054336001600160a01b0319808316821784556001805490911690556040516001600160a01b0390921692909183917f8be0079c531659141344cd1fd0a4f28419497f9722a3daafe3b4186f6b6457e091a350565b60025460408051631d6c8e3f60e21b815290516001600160a01b03909216916312d9a6ad9183916375b238fc916004808201926020929091908290030181865afa158015611563573d6000803e3d6000fd5b505050506040513d601f19601f82011682018060405250810190611587919061227f565b6040516001600160e01b031960e084901b1681526004810191909152336024820152604401602060405180830381865afa1580156115c9573d6000803e3d6000fd5b505050506040513d601f19601f820116820180604052508101906115ed9190612369565b6116215760405162461bcd60e51b815260206004820152600560248201526443462d303560d81b60448201526064016103bc565b60088054821515620100000262ff0000199091161790556040517f60f3115279654f0dde209396aeb5e0fbd0ee38a3c1171dd4b3324fdcbf807b1e9061166c90831515815260200190565b60405180910390a150565b60025460408051631d6c8e3f60e21b815290516001600160a01b03909216916312d9a6ad9183916375b238fc916004808201926020929091908290030181865afa1580156116c9573d6000803e3d6000fd5b505050506040513d601f19601f820116820180604052508101906116ed919061227f565b6040516001600160e01b031960e084901b1681526004810191909152336024820152604401602060405180830381865afa15801561172f573d6000803e3d6000fd5b505050506040513d601f19601f820116820180604052508101906117539190612369565b61176f5760405162461bcd60e51b81526004016103bc906123a3565b838510156117a75760405162461bcd60e51b8152602060048201526005602482015264222196981b60d91b60448201526064016103bc565b6101f48160ff1611156117e45760405162461bcd60e51b8152602060048201526005602482015264088865a60760db1b60448201526064016103bc565b600854610100900460ff166118395760648511158015611805575060648411155b6118395760405162461bcd60e51b8152602060048201526005602482015264222196989960d91b60448201526064016103bc565b600585905560068490556008805460ff848116600781905561ffff1990921661010087151590810260ff19169190911791851691821790935560408051888152602081018a905290810193909352606083019190915260808201527f0ea71d16519f56c2f71c00dad42c33a9f15422d532818b19caafb37b1ffa224c9060a00160405180910390a15050505050565b60025460408051631d6c8e3f60e21b815290516001600160a01b03909216916312d9a6ad9183916375b238fc916004808201926020929091908290030181865afa15801561191a573d6000803e3d6000fd5b505050506040513d601f19601f8201168201806040525081019061193e919061227f565b6040516001600160e01b031960e084901b1681526004810191909152336024820152604401602060405180830381865afa158015611980573d6000803e3d6000fd5b505050506040513d601f19601f820116820180604052508101906119a49190612369565b6119c05760405162461bcd60e51b81526004016103bc906123a3565b6000818152600a602052604090206004810154610100900460ff1615611a105760405162461bcd60e51b81526020600482015260056024820152641110cb4c0d60da1b60448201526064016103bc565b6003548154600183015460405163a9059cbb60e01b81526001600160a01b039283166004820152602481019190915291169063a9059cbb906044016020604051808303816000875af1158015611a6a573d6000803e3d6000fd5b505050506040513d601f19601f82011682018060405250810190611a8e9190612369565b50806001015460046000828254611aa59190612356565b909155505060048101805461ff001916610300179055805460018201546040519081526001600160a01b039091169083907ffa155f416059e21f529e5445cc0a44fc2e61c29bf131685ac80870ccf021b9099060200160405180910390a35050565b611b0f611e6a565b611b1881611ebf565b50565b6000828152600e60209081526040808320548352600a90915290206004810154610100900460ff1615611b4d57505050565b6000806000600685600081518110611b6757611b67612308565b6020026020010151611b7991906123c2565b611b8490600161231e565b60ff80821660009081526003870160205260409020549192501615611db05760048401805461ff0019811661010017909155600185015460ff90911690611bcc9060066122ae565b611bd691906122e1565b60085460018601549194506103e89160ff90911690611bf59086612356565b611bff91906122ae565b611c0991906122e1565b9150611c158284612356565b600354855460405163a9059cbb60e01b81526001600160a01b03918216600482015260248101849052929550169063a9059cbb906044016020604051808303816000875af1158015611c6b573d6000803e3d6000fd5b505050506040513d601f19601f82011682018060405250810190611c8f9190612369565b5060085462010000900460ff1615611dab5760035460025460405163a7ad58bf60e01b81527f06aa03964db1f7257357ef09714a5f0ca3633723df419e97015e0c7a3e83edb760048201526001600160a01b039283169263a9059cbb92169063a7ad58bf90602401602060405180830381865afa158015611d14573d6000803e3d6000fd5b505050506040513d601f19601f82011682018060405250810190611d389190612386565b6040516001600160e01b031960e084901b1681526001600160a01b039091166004820152602481018590526044016020604051808303816000875af1158015611d85573d6000803e3d6000fd5b505050506040513d601f19601f82011682018060405250810190611da99190612369565b505b611dc2565b60048401805461ff0019166102001790555b836001015460046000828254611dd89190612356565b909155505083546000878152600e60209081526040918290205460018801546004890154845191825292810188905260ff6101009093048316818501529185166060830152608082018690523060a083015291516001600160a01b03909316927f8a46221ebfa653e8690847e1d47c2cb1d5a0f9ebb036796b3a1df181ff3c16cc9181900360c00190a3505050505050565b6000546001600160a01b03163314611ebd5760405162461bcd60e51b815260206004820152601660248201527527b7363c9031b0b63630b1363290313c9037bbb732b960511b60448201526064016103bc565b565b336001600160a01b03821603611f175760405162461bcd60e51b815260206004820152601760248201527f43616e6e6f74207472616e7366657220746f2073656c6600000000000000000060448201526064016103bc565b600180546001600160a01b0319166001600160a01b0383811691821790925560008054604051929316917fed8889f560326eb138920d842192f0eb3dd22b4f139c87a2c57538e05bae12789190a350565b600183019183908215611feb5791602002820160005b83821115611fbc57835183826101000a81548160ff021916908360ff1602179055509260200192600101602081600001049283019260010302611f7e565b8015611fe95782816101000a81549060ff0219169055600101602081600001049283019260010302611fbc565b505b50611ff7929150611ffb565b5090565b5b80821115611ff75760008155600101611ffc565b634e487b7160e01b600052604160045260246000fd5b604051601f8201601f1916810167ffffffffffffffff8111828210171561204f5761204f612010565b604052919050565b803560ff8116811461206857600080fd5b919050565b60008060c0838503121561208057600080fd5b83601f84011261208f57600080fd5b60405160a0810181811067ffffffffffffffff821117156120b2576120b2612010565b6040528060a08501868111156120c757600080fd5b855b818110156120e8576120da81612057565b8352602092830192016120c9565b50919691359550909350505050565b60006020828403121561210957600080fd5b5035919050565b6000806040838503121561212357600080fd5b8235915060208084013567ffffffffffffffff8082111561214357600080fd5b818601915086601f83011261215757600080fd5b81358181111561216957612169612010565b8060051b915061217a848301612026565b818152918301840191848101908984111561219457600080fd5b938501935b838510156121b257843582529385019390850190612199565b8096505050505050509250929050565b6001600160a01b0381168114611b1857600080fd5b6000602082840312156121e957600080fd5b81356121f4816121c2565b9392505050565b8015158114611b1857600080fd5b60006020828403121561221b57600080fd5b81356121f4816121fb565b600080600080600060a0868803121561223e57600080fd5b85359450602086013593506040860135612257816121fb565b925061226560608701612057565b915061227360808701612057565b90509295509295909350565b60006020828403121561229157600080fd5b5051919050565b634e487b7160e01b600052601160045260246000fd5b80820281158282048414176122c5576122c5612298565b92915050565b634e487b7160e01b600052601260045260246000fd5b6000826122f0576122f06122cb565b500490565b808201808211156122c5576122c5612298565b634e487b7160e01b600052603260045260246000fd5b60ff81811683821601908111156122c5576122c5612298565b600060ff821660ff810361234d5761234d612298565b60010192915050565b818103818111156122c5576122c5612298565b60006020828403121561237b57600080fd5b81516121f4816121fb565b60006020828403121561239857600080fd5b81516121f4816121c2565b60208082526005908201526444432d303560d81b604082015260600190565b6000826123d1576123d16122cb565b50069056fea264697066735822122051575da19e17a531f78809d89ba10190b06761fee0427cdc9a1cbf2d8838fb2364736f6c63430008130033",
  "immutableReferences": {
    "304": [
      {
        "length": 32,
        "start": 3599
      },
      {
        "length": 32,
        "start": 3665
      }
    ]
  },
  "source": "// SPDX-License-Identifier: MIT\r\npragma solidity ^0.8.7;\r\n\r\nimport \"@chainlink/contracts/src/v0.8/vrf/VRFConsumerBaseV2.sol\";\r\nimport \"@chainlink/contracts/src/v0.8/interfaces/VRFCoordinatorV2Interface.sol\";\r\nimport \"@chainlink/contracts/src/v0.8/shared/access/ConfirmedOwner.sol\";\r\nimport \"../interfaces/IGamesHub.sol\";\r\nimport \"../interfaces/IERC20.sol\";\r\n\r\ncontract DiceChainlink is VRFConsumerBaseV2, ConfirmedOwner {\r\n    event DiceRolled(\r\n        address indexed player,\r\n        uint256 indexed nonce,\r\n        uint256 indexed rngNonce,\r\n        uint256 creditAmount\r\n    );\r\n    event GameFinished(\r\n        uint256 indexed nonce,\r\n        address indexed player,\r\n        uint256 volumeIn,\r\n        uint256 volumeOut,\r\n        uint8 result,\r\n        uint8 diceResult,\r\n        uint256 fee,\r\n        address game\r\n    );\r\n    event LimitsAndChancesChanged(\r\n        uint256 maxLimit,\r\n        uint256 minLimit,\r\n        bool limitTypeFixed,\r\n        uint256 feeFromBet,\r\n        uint8 feePercFromWin\r\n    );\r\n    event GameRefunded(\r\n        uint256 indexed nonce,\r\n        address indexed player,\r\n        uint256 volume\r\n    );\r\n\r\n    event KeepFeesChanged(bool _keepFees);\r\n\r\n    IGamesHub public gamesHub;\r\n    IERC20 public token;\r\n    uint256 public totalBet;\r\n    uint256 public maxLimit = 1000 * (10 ** 6); //default 1000 USDC\r\n    uint256 public minLimit = 1 * (10 ** 6); //default 1 USDC\r\n    uint256 public feeFromBet = 14 * (10 ** 4); //default 14 cents\r\n    uint8 public feePercFromWin = 15;\r\n    bool limitTypeFixed = true;\r\n    bool keepFees = false;\r\n    uint256 totalGames = 0;\r\n\r\n    struct Games {\r\n        address player;\r\n        uint256 amount;\r\n        uint8[5] bet;\r\n        mapping(uint8 => bool) sides; // true if the side is bet\r\n        uint8 sizeBet; // number of sides bet\r\n        uint8 result; // 0- not set, 1- win, 2- lose, 3- refunded\r\n    }\r\n    mapping(uint256 => Games) public games;\r\n\r\n    VRFCoordinatorV2Interface COORDINATOR;\r\n\r\n    // Chainlink subscription data struct, with the same subscription ID type as the VRF Coordinator\r\n    uint64 s_subscriptionId;\r\n    bytes32 keyHash;\r\n    uint32 callbackGasLimit;\r\n    uint16 requestConfirmations;\r\n\r\n    mapping(uint256 => uint256) gameNonce;\r\n\r\n    constructor(\r\n        uint64 subscriptionId,\r\n        address vrfCoordinator,\r\n        bytes32 _keyHash,\r\n        uint32 _callbackGasLimit,\r\n        uint16 _requestConfirmations,\r\n        address _gamesHub\r\n    ) VRFConsumerBaseV2(vrfCoordinator) ConfirmedOwner(msg.sender) {\r\n        COORDINATOR = VRFCoordinatorV2Interface(vrfCoordinator);\r\n        s_subscriptionId = subscriptionId;\r\n        keyHash = _keyHash;\r\n        callbackGasLimit = _callbackGasLimit;\r\n        requestConfirmations = _requestConfirmations;\r\n        gamesHub = IGamesHub(_gamesHub);\r\n        token = IERC20(gamesHub.helpers(keccak256(\"TOKEN\")));\r\n        totalBet = 0;\r\n    }\r\n\r\n    /**\r\n     * @dev Roll the dice, sending the numbers from 1 to 6\r\n     * Repeated numbers will be ignored\r\n     * @param _sides Array of 5 sides to bet on (numbers 1 to 6, 0 if side not chosen)\r\n     * @param _amount Amount of tokens to bet\r\n     */\r\n    function rollDice(uint8[5] memory _sides, uint256 _amount) external {\r\n        uint256 balance = token.balanceOf(address(this));\r\n\r\n        if (limitTypeFixed) {\r\n            require(_amount <= maxLimit && _amount >= minLimit, \"DC-01\");\r\n        } else {\r\n            require(\r\n                _amount <= (maxLimit * balance) / 100 &&\r\n                    _amount >= (minLimit * balance) / 100,\r\n                \"DC-01\"\r\n            );\r\n        }\r\n\r\n        require(balance >= ((totalBet + _amount) * 6), \"DC-02\");\r\n\r\n        gamesHub.incrementNonce();\r\n\r\n        for (uint8 i = 0; i < 5; i++) {\r\n            if (\r\n                _sides[i] > 0 &&\r\n                _sides[i] < 7 &&\r\n                !games[gamesHub.nonce()].sides[_sides[i]]\r\n            ) {\r\n                games[gamesHub.nonce()].sides[_sides[i]] = true;\r\n                games[gamesHub.nonce()].sizeBet += 1;\r\n            }\r\n        }\r\n\r\n        require(games[gamesHub.nonce()].sizeBet > 0, \"DC-09\");\r\n\r\n        _amount -= feeFromBet;\r\n\r\n        token.transferFrom(msg.sender, address(this), _amount);\r\n        // Sending fee to the house\r\n        token.transferFrom(\r\n            msg.sender,\r\n            gamesHub.helpers(keccak256(\"TREASURY\")),\r\n            feeFromBet\r\n        );\r\n\r\n        games[gamesHub.nonce()].player = msg.sender;\r\n        games[gamesHub.nonce()].amount = _amount;\r\n        games[gamesHub.nonce()].bet = _sides;\r\n\r\n        uint256 nonce = COORDINATOR.requestRandomWords(\r\n            keyHash,\r\n            s_subscriptionId,\r\n            requestConfirmations,\r\n            callbackGasLimit,\r\n            1\r\n        );\r\n        gameNonce[nonce] = gamesHub.nonce();\r\n\r\n        totalBet += _amount;\r\n        totalGames += 1;\r\n        emit DiceRolled(msg.sender, gamesHub.nonce(), nonce, _amount);\r\n    }\r\n\r\n    /**\r\n     * @dev Callback function from the Chainlink VRF Coordinator\r\n     * It will determine if the player won or lost and send the tokens to the player if he won\r\n     * @param _requestId Request ID of the random number\r\n     * @param _randomWords Random number\r\n     */\r\n    function fulfillRandomWords(\r\n        uint256 _requestId,\r\n        uint256[] memory _randomWords\r\n    ) internal override {\r\n        Games storage game = games[gameNonce[_requestId]];\r\n        if (game.result > 0) return;\r\n\r\n        uint256 volume = 0;\r\n        uint256 _fee = 0;\r\n        uint8 diceResult = uint8((_randomWords[0] % 6)) + 1;\r\n\r\n        if (game.sides[diceResult]) {\r\n            game.result = 1;\r\n\r\n            volume = (game.amount * 6) / game.sizeBet;\r\n            _fee = ((volume - game.amount) * feePercFromWin) / 1000;\r\n\r\n            volume -= _fee;\r\n            token.transfer(game.player, volume);\r\n            if (keepFees)\r\n                token.transfer(gamesHub.helpers(keccak256(\"TREASURY\")), _fee);\r\n        } else {\r\n            game.result = 2;\r\n        }\r\n        totalBet -= game.amount;\r\n\r\n        emit GameFinished(\r\n            gameNonce[_requestId],\r\n            game.player,\r\n            game.amount,\r\n            volume,\r\n            game.result,\r\n            diceResult,\r\n            _fee,\r\n            address(this)\r\n        );\r\n    }\r\n\r\n    /**\r\n     * @dev Refund the game to the player. To use only if some game is stuck.\r\n     * @param _nonce Nonce of the game\r\n     */\r\n    function refundGame(uint256 _nonce) external {\r\n        require(gamesHub.checkRole(gamesHub.ADMIN_ROLE(), msg.sender), \"DC-05\");\r\n        Games storage game = games[_nonce];\r\n        require(game.result == 0, \"DC-04\");\r\n\r\n        token.transfer(game.player, game.amount);\r\n        totalBet -= game.amount;\r\n        game.result = 3;\r\n\r\n        emit GameRefunded(_nonce, game.player, game.amount);\r\n    }\r\n\r\n    /**\r\n     * @dev Change the house chance and bet limit\r\n     * @param _maxLimit maximum bet limit\r\n     * @param _minLimit minimum bet limit\r\n     * @param _limitTypeFixed if true, the bet limit will be fixed, if false, the bet limit will be a percentage of the contract balance\r\n     * @param _feeFromBet fee from the bet\r\n     * @param _feePercFromWin fee percentage from the win\r\n     */\r\n    function changeLimitsAndChances(\r\n        uint256 _maxLimit,\r\n        uint256 _minLimit,\r\n        bool _limitTypeFixed,\r\n        uint8 _feeFromBet,\r\n        uint8 _feePercFromWin\r\n    ) public {\r\n        require(gamesHub.checkRole(gamesHub.ADMIN_ROLE(), msg.sender), \"DC-05\");\r\n        require(_maxLimit >= _minLimit, \"DC-06\");\r\n        require(_feePercFromWin <= 500, \"DC-08\");\r\n\r\n        if (!limitTypeFixed) {\r\n            require(_maxLimit <= 100 && _minLimit <= 100, \"DC-12\");\r\n        }\r\n\r\n        maxLimit = _maxLimit;\r\n        minLimit = _minLimit;\r\n        limitTypeFixed = _limitTypeFixed;\r\n        feeFromBet = _feeFromBet;\r\n        feePercFromWin = _feePercFromWin;\r\n\r\n        emit LimitsAndChancesChanged(\r\n            _minLimit,\r\n            _maxLimit,\r\n            _limitTypeFixed,\r\n            _feeFromBet,\r\n            _feePercFromWin\r\n        );\r\n    }\r\n\r\n    /**\r\n     * @dev Change the keepFees variable\r\n     * @param _keepFees New value for keepFees\r\n     */\r\n    function changeKeepFees(bool _keepFees) public {\r\n        require(gamesHub.checkRole(gamesHub.ADMIN_ROLE(), msg.sender), \"CF-05\");\r\n        keepFees = _keepFees;\r\n\r\n        emit KeepFeesChanged(_keepFees);\r\n    }\r\n\r\n    /**\r\n     * @dev Change the token address, sending the current token balance to the treasury wallet\r\n     * @param _token New token address\r\n     */\r\n    function changeToken(address _token) public {\r\n        require(gamesHub.checkRole(gamesHub.ADMIN_ROLE(), msg.sender), \"DC-05\");\r\n        require(totalBet == 0, \"DC-07\");\r\n\r\n        token.transfer(\r\n            gamesHub.helpers(keccak256(\"TREASURY\")),\r\n            token.balanceOf(address(this))\r\n        );\r\n        token = IERC20(_token);\r\n    }\r\n\r\n    /**\r\n     * @dev Change the key hash for the gwei price on chainlink\r\n     * @param _keyHash New key hash\r\n     */\r\n    function changeKeyHash(bytes32 _keyHash) public {\r\n        require(gamesHub.checkRole(gamesHub.ADMIN_ROLE(), msg.sender), \"DC-05\");\r\n        keyHash = _keyHash;\r\n    }\r\n\r\n    /**\r\n     * @dev Withdraw tokens from the contract to the admin wallet\r\n     * @param _amount Amount of tokens to withdraw\r\n     */\r\n    function withdrawTokens(uint256 _amount) public {\r\n        require(gamesHub.checkRole(gamesHub.ADMIN_ROLE(), msg.sender), \"DC-05\");\r\n        require(totalBet == 0, \"DC-07\");\r\n\r\n        token.transfer(gamesHub.adminWallet(), _amount);\r\n    }\r\n}\r\n",
  "sourcePath": "/home/gabesan/rea de trabalho/Projetos/PerfectPool/NewTribeX/tribex-smart-contracts/contracts/games/DiceChainlink.sol",
  "compiler": {
    "name": "solc",
    "version": "0.8.19+commit.7dd6d404.Emscripten.clang"
  },
  "schemaVersion": "3.4.16",
  "updatedAt": "2024-06-24T19:08:19.258Z",
  "networkType": "ethereum",
  "devdoc": {
    "kind": "dev",
    "methods": {
      "changeKeepFees(bool)": {
        "details": "Change the keepFees variable",
        "params": {
          "_keepFees": "New value for keepFees"
        }
      },
      "changeKeyHash(bytes32)": {
        "details": "Change the key hash for the gwei price on chainlink",
        "params": {
          "_keyHash": "New key hash"
        }
      },
      "changeLimitsAndChances(uint256,uint256,bool,uint8,uint8)": {
        "details": "Change the house chance and bet limit",
        "params": {
          "_feeFromBet": "fee from the bet",
          "_feePercFromWin": "fee percentage from the win",
          "_limitTypeFixed": "if true, the bet limit will be fixed, if false, the bet limit will be a percentage of the contract balance",
          "_maxLimit": "maximum bet limit",
          "_minLimit": "minimum bet limit"
        }
      },
      "changeToken(address)": {
        "details": "Change the token address, sending the current token balance to the treasury wallet",
        "params": {
          "_token": "New token address"
        }
      },
      "refundGame(uint256)": {
        "details": "Refund the game to the player. To use only if some game is stuck.",
        "params": {
          "_nonce": "Nonce of the game"
        }
      },
      "rollDice(uint8[5],uint256)": {
        "details": "Roll the dice, sending the numbers from 1 to 6 Repeated numbers will be ignored",
        "params": {
          "_amount": "Amount of tokens to bet",
          "_sides": "Array of 5 sides to bet on (numbers 1 to 6, 0 if side not chosen)"
        }
      },
      "withdrawTokens(uint256)": {
        "details": "Withdraw tokens from the contract to the admin wallet",
        "params": {
          "_amount": "Amount of tokens to withdraw"
        }
      }
    },
    "version": 1
  },
  "userdoc": {
    "kind": "user",
    "methods": {
      "acceptOwnership()": {
        "notice": "Allows an ownership transfer to be completed by the recipient."
      },
      "owner()": {
        "notice": "Get the current owner"
      },
      "transferOwnership(address)": {
        "notice": "Allows an owner to begin transferring ownership to a new address, pending."
      }
    },
    "version": 1
  }
}