{
  "contractName": "DiceSupra",
  "abi": [
    {
      "inputs": [
        {
          "internalType": "address",
          "name": "supraSC",
          "type": "address"
        },
        {
          "internalType": "uint16",
          "name": "_requestConfirmations",
          "type": "uint16"
        },
        {
          "internalType": "address",
          "name": "_gamesHub",
          "type": "address"
        }
      ],
      "stateMutability": "nonpayable",
      "type": "constructor"
    },
    {
      "anonymous": false,
      "inputs": [
        {
          "indexed": false,
          "internalType": "uint16",
          "name": "_requestConfirmations",
          "type": "uint16"
        }
      ],
      "name": "ConfirmationsChanged",
      "type": "event"
    },
    {
      "anonymous": false,
      "inputs": [
        {
          "indexed": true,
          "internalType": "address",
          "name": "player",
          "type": "address"
        },
        {
          "indexed": true,
          "internalType": "uint256",
          "name": "nonce",
          "type": "uint256"
        },
        {
          "indexed": true,
          "internalType": "uint256",
          "name": "rngNonce",
          "type": "uint256"
        },
        {
          "indexed": false,
          "internalType": "uint256",
          "name": "creditAmount",
          "type": "uint256"
        }
      ],
      "name": "DiceRolled",
      "type": "event"
    },
    {
      "anonymous": false,
      "inputs": [
        {
          "indexed": true,
          "internalType": "uint256",
          "name": "nonce",
          "type": "uint256"
        },
        {
          "indexed": true,
          "internalType": "address",
          "name": "player",
          "type": "address"
        },
        {
          "indexed": false,
          "internalType": "uint256",
          "name": "volumeIn",
          "type": "uint256"
        },
        {
          "indexed": false,
          "internalType": "uint256",
          "name": "volumeOut",
          "type": "uint256"
        },
        {
          "indexed": false,
          "internalType": "uint8",
          "name": "result",
          "type": "uint8"
        },
        {
          "indexed": false,
          "internalType": "uint8",
          "name": "diceResult",
          "type": "uint8"
        },
        {
          "indexed": false,
          "internalType": "uint256",
          "name": "fee",
          "type": "uint256"
        },
        {
          "indexed": false,
          "internalType": "address",
          "name": "game",
          "type": "address"
        }
      ],
      "name": "GameFinished",
      "type": "event"
    },
    {
      "anonymous": false,
      "inputs": [
        {
          "indexed": true,
          "internalType": "uint256",
          "name": "nonce",
          "type": "uint256"
        },
        {
          "indexed": true,
          "internalType": "address",
          "name": "player",
          "type": "address"
        },
        {
          "indexed": false,
          "internalType": "uint256",
          "name": "volume",
          "type": "uint256"
        }
      ],
      "name": "GameRefunded",
      "type": "event"
    },
    {
      "anonymous": false,
      "inputs": [
        {
          "indexed": false,
          "internalType": "bool",
          "name": "_keepFees",
          "type": "bool"
        }
      ],
      "name": "KeepFeesChanged",
      "type": "event"
    },
    {
      "anonymous": false,
      "inputs": [
        {
          "indexed": false,
          "internalType": "uint256",
          "name": "maxLimit",
          "type": "uint256"
        },
        {
          "indexed": false,
          "internalType": "uint256",
          "name": "minLimit",
          "type": "uint256"
        }
      ],
      "name": "LimitsChanged",
      "type": "event"
    },
    {
      "inputs": [],
      "name": "FEE_FROM_BET",
      "outputs": [
        {
          "internalType": "uint256",
          "name": "",
          "type": "uint256"
        }
      ],
      "stateMutability": "view",
      "type": "function"
    },
    {
      "inputs": [],
      "name": "FEE_PERC_FROM_WIN",
      "outputs": [
        {
          "internalType": "uint8",
          "name": "",
          "type": "uint8"
        }
      ],
      "stateMutability": "view",
      "type": "function"
    },
    {
      "inputs": [
        {
          "internalType": "uint256",
          "name": "",
          "type": "uint256"
        }
      ],
      "name": "games",
      "outputs": [
        {
          "internalType": "address",
          "name": "player",
          "type": "address"
        },
        {
          "internalType": "uint256",
          "name": "amount",
          "type": "uint256"
        },
        {
          "internalType": "uint8",
          "name": "sizeBet",
          "type": "uint8"
        },
        {
          "internalType": "uint8",
          "name": "result",
          "type": "uint8"
        }
      ],
      "stateMutability": "view",
      "type": "function"
    },
    {
      "inputs": [],
      "name": "gamesHub",
      "outputs": [
        {
          "internalType": "contract IGamesHub",
          "name": "",
          "type": "address"
        }
      ],
      "stateMutability": "view",
      "type": "function"
    },
    {
      "inputs": [],
      "name": "maxLimit",
      "outputs": [
        {
          "internalType": "uint256",
          "name": "",
          "type": "uint256"
        }
      ],
      "stateMutability": "view",
      "type": "function"
    },
    {
      "inputs": [],
      "name": "minLimit",
      "outputs": [
        {
          "internalType": "uint256",
          "name": "",
          "type": "uint256"
        }
      ],
      "stateMutability": "view",
      "type": "function"
    },
    {
      "inputs": [],
      "name": "requestConfirmations",
      "outputs": [
        {
          "internalType": "uint16",
          "name": "",
          "type": "uint16"
        }
      ],
      "stateMutability": "view",
      "type": "function"
    },
    {
      "inputs": [],
      "name": "token",
      "outputs": [
        {
          "internalType": "contract IERC20",
          "name": "",
          "type": "address"
        }
      ],
      "stateMutability": "view",
      "type": "function"
    },
    {
      "inputs": [],
      "name": "totalBet",
      "outputs": [
        {
          "internalType": "uint256",
          "name": "",
          "type": "uint256"
        }
      ],
      "stateMutability": "view",
      "type": "function"
    },
    {
      "inputs": [
        {
          "internalType": "uint8[5]",
          "name": "_sides",
          "type": "uint8[5]"
        },
        {
          "internalType": "uint256",
          "name": "_amount",
          "type": "uint256"
        }
      ],
      "name": "rollDice",
      "outputs": [],
      "stateMutability": "nonpayable",
      "type": "function"
    },
    {
      "inputs": [
        {
          "internalType": "uint256",
          "name": "nonce",
          "type": "uint256"
        },
        {
          "internalType": "uint256[]",
          "name": "rngList",
          "type": "uint256[]"
        }
      ],
      "name": "callback",
      "outputs": [],
      "stateMutability": "nonpayable",
      "type": "function"
    },
    {
      "inputs": [
        {
          "internalType": "uint256",
          "name": "_nonce",
          "type": "uint256"
        }
      ],
      "name": "refundGame",
      "outputs": [],
      "stateMutability": "nonpayable",
      "type": "function"
    },
    {
      "inputs": [
        {
          "internalType": "uint256",
          "name": "_maxLimit",
          "type": "uint256"
        },
        {
          "internalType": "uint256",
          "name": "_minLimit",
          "type": "uint256"
        }
      ],
      "name": "changeLimits",
      "outputs": [],
      "stateMutability": "nonpayable",
      "type": "function"
    },
    {
      "inputs": [
        {
          "internalType": "uint16",
          "name": "_requestConfirmations",
          "type": "uint16"
        }
      ],
      "name": "changeConfirmations",
      "outputs": [],
      "stateMutability": "nonpayable",
      "type": "function"
    },
    {
      "inputs": [
        {
          "internalType": "bool",
          "name": "_keepFees",
          "type": "bool"
        }
      ],
      "name": "changeKeepFees",
      "outputs": [],
      "stateMutability": "nonpayable",
      "type": "function"
    },
    {
      "inputs": [
        {
          "internalType": "address",
          "name": "_token",
          "type": "address"
        }
      ],
      "name": "changeToken",
      "outputs": [],
      "stateMutability": "nonpayable",
      "type": "function"
    },
    {
      "inputs": [
        {
          "internalType": "uint256",
          "name": "_amount",
          "type": "uint256"
        }
      ],
      "name": "withdrawTokens",
      "outputs": [],
      "stateMutability": "nonpayable",
      "type": "function"
    }
  ],
  "bytecode": "0x6080604052633b9aca00600455620f42406005556006805460ff1916905560006007553480156200002f57600080fd5b50604051620022c4380380620022c483398101604081905262000052916200017d565b6001600081905580546001600160a01b0319166001600160a01b03831690811790915560405163a7ad58bf60e01b81527f96706879d29c248edfb2a2563a8a9d571c49634c0f82013e6f5a7cde739d35d4600482015263a7ad58bf90602401602060405180830381865afa158015620000cf573d6000803e3d6000fd5b505050506040513d601f19601f82011682018060405250810190620000f59190620001cf565b600280546001600160a01b039283166001600160a01b0319918216179091556000600355600a805495909216941693909317909255600b805461ffff909216600160a01b0261ffff60a01b1933166001600160b01b03199093169290921791909117905550620001f4565b80516001600160a01b03811681146200017857600080fd5b919050565b6000806000606084860312156200019357600080fd5b6200019e8462000160565b9250602084015161ffff81168114620001b657600080fd5b9150620001c66040850162000160565b90509250925092565b600060208284031215620001e257600080fd5b620001ed8262000160565b9392505050565b6120c080620002046000396000f3fe608060405234801561001057600080fd5b506004361061010b5760003560e01c80637d183f3d116100a2578063b5ca2b4c11610071578063b5ca2b4c1461028e578063d024379214610298578063d7260cba146102ab578063fc0c546a146102be578063fe5e1853146102d157600080fd5b80637d183f3d14610226578063931e00b014610239578063a2dda04114610253578063b0fb162f1461026657600080fd5b80631a861d26116100de5780631a861d26146101e05780631fd8088d146101f7578063315a095d1461020057806366829b161461021357600080fd5b806308898705146101105780630cc50bd214610125578063117a5b9014610155578063147bbb36146101cd575b600080fd5b61012361011e366004611d67565b6102da565b005b600154610138906001600160a01b031681565b6040516001600160a01b0390911681526020015b60405180910390f35b61019a610163366004611df1565b6008602052600090815260409020805460018201546004909201546001600160a01b03909116919060ff8082169161010090041684565b604080516001600160a01b039095168552602085019390935260ff9182169284019290925216606082015260800161014c565b6101236101db366004611e0a565b610d7d565b6101e960045481565b60405190815260200161014c565b6101e960055481565b61012361020e366004611df1565b610ecc565b610123610221366004611e4a565b6110fb565b610123610234366004611e67565b6113aa565b610241601481565b60405160ff909116815260200161014c565b610123610261366004611ef4565b611702565b600b5461027b90600160a01b900461ffff1681565b60405161ffff909116815260200161014c565b6101e9620186a081565b6101236102a6366004611f11565b61183b565b6101236102b9366004611df1565b6119ec565b600254610138906001600160a01b031681565b6101e960035481565b6102e2611c3a565b6002546040516370a0823160e01b81523060048201526000916001600160a01b0316906370a0823190602401602060405180830381865afa15801561032b573d6000803e3d6000fd5b505050506040513d601f19601f8201168201806040525081019061034f9190611f33565b9050600454821115801561036557506005548210155b61039e5760405162461bcd60e51b815260206004820152600560248201526444432d303160d81b60448201526064015b60405180910390fd5b816003546103ac9190611f62565b6103b7906006611f7b565b8110156103ee5760405162461bcd60e51b8152602060048201526005602482015264222196981960d91b6044820152606401610395565b600160009054906101000a90046001600160a01b03166001600160a01b031663627cdcb96040518163ffffffff1660e01b8152600401600060405180830381600087803b15801561043e57600080fd5b505af1158015610452573d6000803e3d6000fd5b5050505060005b60058160ff161015610723576000848260ff166005811061047c5761047c611f92565b602002015160ff161180156104ad57506007848260ff16600581106104a3576104a3611f92565b602002015160ff16105b8015610579575060086000600160009054906101000a90046001600160a01b03166001600160a01b031663affed0e06040518163ffffffff1660e01b8152600401602060405180830381865afa15801561050b573d6000803e3d6000fd5b505050506040513d601f19601f8201168201806040525081019061052f9190611f33565b81526020019081526020016000206003016000858360ff166005811061055757610557611f92565b6020908102919091015160ff9081168352908201929092526040016000205416155b1561071157600160086000600160009054906101000a90046001600160a01b03166001600160a01b031663affed0e06040518163ffffffff1660e01b8152600401602060405180830381865afa1580156105d7573d6000803e3d6000fd5b505050506040513d601f19601f820116820180604052508101906105fb9190611f33565b81526020019081526020016000206003016000868460ff166005811061062357610623611f92565b602002015160ff1660ff16815260200190815260200160002060006101000a81548160ff021916908315150217905550600160086000600160009054906101000a90046001600160a01b03166001600160a01b031663affed0e06040518163ffffffff1660e01b8152600401602060405180830381865afa1580156106ac573d6000803e3d6000fd5b505050506040513d601f19601f820116820180604052508101906106d09190611f33565b81526020810191909152604001600090812060040180549091906106f890849060ff16611fa8565b92506101000a81548160ff021916908360ff1602179055505b8061071b81611fc1565b915050610459565b50600060086000600160009054906101000a90046001600160a01b03166001600160a01b031663affed0e06040518163ffffffff1660e01b8152600401602060405180830381865afa15801561077d573d6000803e3d6000fd5b505050506040513d601f19601f820116820180604052508101906107a19190611f33565b815260208101919091526040016000206004015460ff16116107ed5760405162461bcd60e51b815260206004820152600560248201526444432d303960d81b6044820152606401610395565b6107fa620186a083611fe0565b6002546040516323b872dd60e01b8152336004820152306024820152604481018390529193506001600160a01b0316906323b872dd906064016020604051808303816000875af1158015610852573d6000803e3d6000fd5b505050506040513d601f19601f820116820180604052508101906108769190611ff3565b5060025460015460405163a7ad58bf60e01b81527f06aa03964db1f7257357ef09714a5f0ca3633723df419e97015e0c7a3e83edb760048201526001600160a01b03928316926323b872dd92339291169063a7ad58bf90602401602060405180830381865afa1580156108ed573d6000803e3d6000fd5b505050506040513d601f19601f820116820180604052508101906109119190612010565b6040516001600160e01b031960e085901b1681526001600160a01b03928316600482015291166024820152620186a060448201526064016020604051808303816000875af1158015610967573d6000803e3d6000fd5b505050506040513d601f19601f8201168201806040525081019061098b9190611ff3565b503360086000600160009054906101000a90046001600160a01b03166001600160a01b031663affed0e06040518163ffffffff1660e01b8152600401602060405180830381865afa1580156109e4573d6000803e3d6000fd5b505050506040513d601f19601f82011682018060405250810190610a089190611f33565b81526020808201929092526040908101600090812080546001600160a01b0319166001600160a01b03958616179055600154825163057ff68760e51b815292518795600895939492169263affed0e092600480820193918290030181865afa158015610a78573d6000803e3d6000fd5b505050506040513d601f19601f82011682018060405250810190610a9c9190611f33565b8152602001908152602001600020600101819055508260086000600160009054906101000a90046001600160a01b03166001600160a01b031663affed0e06040518163ffffffff1660e01b8152600401602060405180830381865afa158015610b09573d6000803e3d6000fd5b505050506040513d601f19601f82011682018060405250810190610b2d9190611f33565b8152602001908152602001600020600201906005610b4c929190611c93565b50600a54600b5460405163d291ba0960e01b815260806004820152601b60848201527f63616c6c6261636b2875696e743235362c75696e743235365b5d29000000000060a482015260016024820152600160a01b820461ffff1660448201526001600160a01b039182166064820152600092919091169063d291ba099060c4016020604051808303816000875af1158015610beb573d6000803e3d6000fd5b505050506040513d601f19601f82011682018060405250810190610c0f9190611f33565b9050600160009054906101000a90046001600160a01b03166001600160a01b031663affed0e06040518163ffffffff1660e01b8152600401602060405180830381865afa158015610c64573d6000803e3d6000fd5b505050506040513d601f19601f82011682018060405250810190610c889190611f33565b60008281526009602052604081209190915560038054859290610cac908490611f62565b92505081905550600160076000828254610cc69190611f62565b90915550506001546040805163057ff68760e51b8152905183926001600160a01b03169163affed0e09160048083019260209291908290030181865afa158015610d14573d6000803e3d6000fd5b505050506040513d601f19601f82011682018060405250810190610d389190611f33565b60405185815233907fcedccd06ff8a6797523ec9862a27bf366d14c17ee4569d0404a87cd01ebcf53d9060200160405180910390a45050610d796001600055565b5050565b60015460408051631d6c8e3f60e21b815290516001600160a01b03909216916312d9a6ad9183916375b238fc916004808201926020929091908290030181865afa158015610dcf573d6000803e3d6000fd5b505050506040513d601f19601f82011682018060405250810190610df39190611f33565b6040516001600160e01b031960e084901b1681526004810191909152336024820152604401602060405180830381865afa158015610e35573d6000803e3d6000fd5b505050506040513d601f19601f82011682018060405250810190610e599190611ff3565b610e755760405162461bcd60e51b81526004016103959061202d565b600b805461ffff60a01b1916600160a01b61ffff8416908102919091179091556040519081527fd69e52b1251a0871b48dae0589126dbcfb5d90482de888cf81c1f0086d8bdede906020015b60405180910390a150565b610ed4611c3a565b60015460408051631d6c8e3f60e21b815290516001600160a01b03909216916312d9a6ad9183916375b238fc916004808201926020929091908290030181865afa158015610f26573d6000803e3d6000fd5b505050506040513d601f19601f82011682018060405250810190610f4a9190611f33565b6040516001600160e01b031960e084901b1681526004810191909152336024820152604401602060405180830381865afa158015610f8c573d6000803e3d6000fd5b505050506040513d601f19601f82011682018060405250810190610fb09190611ff3565b610fcc5760405162461bcd60e51b81526004016103959061202d565b600354156110045760405162461bcd60e51b815260206004820152600560248201526444432d303760d81b6044820152606401610395565b600254600154604080516336b19cd760e01b815290516001600160a01b039384169363a9059cbb9316916336b19cd79160048083019260209291908290030181865afa158015611058573d6000803e3d6000fd5b505050506040513d601f19601f8201168201806040525081019061107c9190612010565b6040516001600160e01b031960e084901b1681526001600160a01b039091166004820152602481018490526044016020604051808303816000875af11580156110c9573d6000803e3d6000fd5b505050506040513d601f19601f820116820180604052508101906110ed9190611ff3565b506110f86001600055565b50565b611103611c3a565b60015460408051631d6c8e3f60e21b815290516001600160a01b03909216916312d9a6ad9183916375b238fc916004808201926020929091908290030181865afa158015611155573d6000803e3d6000fd5b505050506040513d601f19601f820116820180604052508101906111799190611f33565b6040516001600160e01b031960e084901b1681526004810191909152336024820152604401602060405180830381865afa1580156111bb573d6000803e3d6000fd5b505050506040513d601f19601f820116820180604052508101906111df9190611ff3565b6111fb5760405162461bcd60e51b81526004016103959061202d565b600354156112335760405162461bcd60e51b815260206004820152600560248201526444432d303760d81b6044820152606401610395565b600254600154604080516336b19cd760e01b815290516001600160a01b039384169363a9059cbb9316916336b19cd79160048083019260209291908290030181865afa158015611287573d6000803e3d6000fd5b505050506040513d601f19601f820116820180604052508101906112ab9190612010565b6002546040516370a0823160e01b81523060048201526001600160a01b03909116906370a0823190602401602060405180830381865afa1580156112f3573d6000803e3d6000fd5b505050506040513d601f19601f820116820180604052508101906113179190611f33565b6040516001600160e01b031960e085901b1681526001600160a01b03909216600483015260248201526044016020604051808303816000875af1158015611362573d6000803e3d6000fd5b505050506040513d601f19601f820116820180604052508101906113869190611ff3565b50600280546001600160a01b0319166001600160a01b038316179055600160005550565b6113b2611c3a565b6000838152600960209081526040808320548352600890915290206004810154610100900460ff16156113e557506116f3565b60008060006006868660008181106113ff576113ff611f92565b905060200201356114109190612062565b61141b906001611fa8565b60ff8082166000908152600387016020526040902054919250161561163c5760048401805461ff0019811661010017909155600185015460ff90911690611463906006611f7b565b61146d9190612076565b92506103e8601460ff168560010154856114879190611fe0565b6114919190611f7b565b61149b9190612076565b91506114a78284611fe0565b600254855460405163a9059cbb60e01b81526001600160a01b03918216600482015260248101849052929550169063a9059cbb906044016020604051808303816000875af11580156114fd573d6000803e3d6000fd5b505050506040513d601f19601f820116820180604052508101906115219190611ff3565b5060065460ff16156116375760025460015460405163a7ad58bf60e01b81527f06aa03964db1f7257357ef09714a5f0ca3633723df419e97015e0c7a3e83edb760048201526001600160a01b039283169263a9059cbb92169063a7ad58bf90602401602060405180830381865afa1580156115a0573d6000803e3d6000fd5b505050506040513d601f19601f820116820180604052508101906115c49190612010565b6040516001600160e01b031960e084901b1681526001600160a01b039091166004820152602481018590526044016020604051808303816000875af1158015611611573d6000803e3d6000fd5b505050506040513d601f19601f820116820180604052508101906116359190611ff3565b505b61164e565b60048401805461ff0019166102001790555b8360010154600360008282546116649190611fe0565b909155505083546000888152600960209081526040918290205460018801546004890154845191825292810188905260ff6101009093048316818501529185166060830152608082018690523060a083015291516001600160a01b03909316927f8a46221ebfa653e8690847e1d47c2cb1d5a0f9ebb036796b3a1df181ff3c16cc9181900360c00190a3505050505b6116fd6001600055565b505050565b60015460408051631d6c8e3f60e21b815290516001600160a01b03909216916312d9a6ad9183916375b238fc916004808201926020929091908290030181865afa158015611754573d6000803e3d6000fd5b505050506040513d601f19601f820116820180604052508101906117789190611f33565b6040516001600160e01b031960e084901b1681526004810191909152336024820152604401602060405180830381865afa1580156117ba573d6000803e3d6000fd5b505050506040513d601f19601f820116820180604052508101906117de9190611ff3565b6117fa5760405162461bcd60e51b81526004016103959061202d565b6006805460ff19168215159081179091556040519081527f60f3115279654f0dde209396aeb5e0fbd0ee38a3c1171dd4b3324fdcbf807b1e90602001610ec1565b60015460408051631d6c8e3f60e21b815290516001600160a01b03909216916312d9a6ad9183916375b238fc916004808201926020929091908290030181865afa15801561188d573d6000803e3d6000fd5b505050506040513d601f19601f820116820180604052508101906118b19190611f33565b6040516001600160e01b031960e084901b1681526004810191909152336024820152604401602060405180830381865afa1580156118f3573d6000803e3d6000fd5b505050506040513d601f19601f820116820180604052508101906119179190611ff3565b6119335760405162461bcd60e51b81526004016103959061202d565b8082101561196b5760405162461bcd60e51b8152602060048201526005602482015264222196981b60d91b6044820152606401610395565b620186a081116119a55760405162461bcd60e51b8152602060048201526005602482015264088865a60760db1b6044820152606401610395565b6004829055600581905560408051828152602081018490527fab1a2e99a7a60d154f951a42eca140d755f93d41ccfca4b6f7d5e521b64bee86910160405180910390a15050565b6119f4611c3a565b60015460408051631d6c8e3f60e21b815290516001600160a01b03909216916312d9a6ad9183916375b238fc916004808201926020929091908290030181865afa158015611a46573d6000803e3d6000fd5b505050506040513d601f19601f82011682018060405250810190611a6a9190611f33565b6040516001600160e01b031960e084901b1681526004810191909152336024820152604401602060405180830381865afa158015611aac573d6000803e3d6000fd5b505050506040513d601f19601f82011682018060405250810190611ad09190611ff3565b611aec5760405162461bcd60e51b81526004016103959061202d565b60008181526008602052604090206004810154610100900460ff1615611b3c5760405162461bcd60e51b81526020600482015260056024820152641110cb4c0d60da1b6044820152606401610395565b6002548154600183015460405163a9059cbb60e01b81526001600160a01b039283166004820152602481019190915291169063a9059cbb906044016020604051808303816000875af1158015611b96573d6000803e3d6000fd5b505050506040513d601f19601f82011682018060405250810190611bba9190611ff3565b50806001015460036000828254611bd19190611fe0565b909155505060048101805461ff001916610300179055805460018201546040519081526001600160a01b039091169083907ffa155f416059e21f529e5445cc0a44fc2e61c29bf131685ac80870ccf021b9099060200160405180910390a3506110f86001600055565b600260005403611c8c5760405162461bcd60e51b815260206004820152601f60248201527f5265656e7472616e637947756172643a207265656e7472616e742063616c6c006044820152606401610395565b6002600055565b600183019183908215611d165791602002820160005b83821115611ce757835183826101000a81548160ff021916908360ff1602179055509260200192600101602081600001049283019260010302611ca9565b8015611d145782816101000a81549060ff0219169055600101602081600001049283019260010302611ce7565b505b50611d22929150611d26565b5090565b5b80821115611d225760008155600101611d27565b634e487b7160e01b600052604160045260246000fd5b803560ff81168114611d6257600080fd5b919050565b60008060c08385031215611d7a57600080fd5b83601f840112611d8957600080fd5b60405160a0810181811067ffffffffffffffff82111715611dac57611dac611d3b565b6040528060a0850186811115611dc157600080fd5b855b81811015611de257611dd481611d51565b835260209283019201611dc3565b50919691359550909350505050565b600060208284031215611e0357600080fd5b5035919050565b600060208284031215611e1c57600080fd5b813561ffff81168114611e2e57600080fd5b9392505050565b6001600160a01b03811681146110f857600080fd5b600060208284031215611e5c57600080fd5b8135611e2e81611e35565b600080600060408486031215611e7c57600080fd5b83359250602084013567ffffffffffffffff80821115611e9b57600080fd5b818601915086601f830112611eaf57600080fd5b813581811115611ebe57600080fd5b8760208260051b8501011115611ed357600080fd5b6020830194508093505050509250925092565b80151581146110f857600080fd5b600060208284031215611f0657600080fd5b8135611e2e81611ee6565b60008060408385031215611f2457600080fd5b50508035926020909101359150565b600060208284031215611f4557600080fd5b5051919050565b634e487b7160e01b600052601160045260246000fd5b80820180821115611f7557611f75611f4c565b92915050565b8082028115828204841417611f7557611f75611f4c565b634e487b7160e01b600052603260045260246000fd5b60ff8181168382160190811115611f7557611f75611f4c565b600060ff821660ff8103611fd757611fd7611f4c565b60010192915050565b81810381811115611f7557611f75611f4c565b60006020828403121561200557600080fd5b8151611e2e81611ee6565b60006020828403121561202257600080fd5b8151611e2e81611e35565b60208082526005908201526444432d303560d81b604082015260600190565b634e487b7160e01b600052601260045260246000fd5b6000826120715761207161204c565b500690565b6000826120855761208561204c565b50049056fea2646970667358221220b7a461abbb4d89dd9582f28ac67a0e7ae944a2a134d4ca271e2dd1408a72ece364736f6c63430008130033",
  "immutableReferences": {},
  "source": "// SPDX-License-Identifier: MIT\r\npragma solidity ^0.8.19;\r\n\r\n/**\r\n * @title Dice Game from Degen OnChain\r\n * @dev A decentralized dice game using Supra Oracles for randomness.\r\n * \r\n * The game allows players to bet on the outcome of a dice roll. Players can choose to bet on one or more sides of the dice. \r\n * The contract interacts with the Supra Oracles to obtain a random number which determines the result of the dice roll.\r\n * Solidity Version: 0.8.19 (this version deals automatically with overflows and underflows issues)\r\n * \r\n * ## How the Game Works:\r\n * 1. **Placing a Bet:**\r\n *    - Players call the `rollDice` function, specifying the amount to bet and their choice of sides.\r\n *    - The bet amount is transferred to the contract, and a small fee (`FEE_FROM_BET`) is deducted and sent to the treasury.\r\n *    - A request is sent to the Supra Oracles to obtain a random number.\r\n * \r\n * 2. **Determining the Outcome:**\r\n *    - The Supra Oracles call the `callback` function with the random number.\r\n *    - The contract determines the outcome of the game based on the player's bet and the random number.\r\n *    - If the player wins, the winnings are transferred to the player's wallet, and a percentage fee (`FEE_PERC_FROM_WIN`) is deducted from the winnings and sent to the treasury.\r\n *    - If the player loses, the bet amount is retained by the contract.\r\n * \r\n * 3. **Fees:**\r\n *    - `FEE_FROM_BET`: A constant fee deducted from each bet and sent to the treasury.\r\n *    - `FEE_PERC_FROM_WIN`: A percentage fee deducted from the winnings of a successful bet.\r\n *    - `keepFees`: A boolean variable indicating whether the fees should be kept by the contract or sent to the treasury.\r\n * \r\n * ## Variables:\r\n * - `gamesHub`: Interface to the GamesHub contract, used for managing game state and roles.\r\n * - `token`: Interface to the ERC20 token used for betting.\r\n * - `totalBet`: The total amount of tokens currently bet in the contract.\r\n * - `maxLimit`: The maximum bet amount allowed.\r\n * - `minLimit`: The minimum bet amount allowed.\r\n * - `totalGames`: The total number of games played.\r\n * - `games`: A mapping of game nonces to game details.\r\n * - `gameNonce`: A mapping of Supra Oracles request nonces to game nonces.\r\n * - `supraAddr`: The address of the Supra Oracles contract.\r\n * - `deployer`: The address of the contract deployer.\r\n * - `requestConfirmations`: The number of confirmations required for the Supra Oracles request.\r\n * \r\n * ## Events:\r\n * - `DiceRolled`: Emitted when a player rolls the dice.\r\n * - `GameFinished`: Emitted when the outcome of a game is determined.\r\n * - `LimitsChanged`: Emitted when the betting limits are changed.\r\n * - `GameRefunded`: Emitted when a game is refunded.\r\n * - `ConfirmationsChanged`: Emitted when the number of confirmations required for the Supra Oracles request is changed.\r\n * - `KeepFeesChanged`: Emitted when the `keepFees` variable is changed.\r\n */\r\n\r\nimport \"@openzeppelin/contracts/security/ReentrancyGuard.sol\";\r\nimport \"../interfaces/IGamesHub.sol\";\r\nimport \"../interfaces/IERC20.sol\";\r\nimport \"../interfaces/ISupraRouter.sol\";\r\n\r\ncontract DiceSupra is ReentrancyGuard {\r\n    event DiceRolled(\r\n        address indexed player,\r\n        uint256 indexed nonce,\r\n        uint256 indexed rngNonce,\r\n        uint256 creditAmount\r\n    );\r\n    event GameFinished(\r\n        uint256 indexed nonce,\r\n        address indexed player,\r\n        uint256 volumeIn,\r\n        uint256 volumeOut,\r\n        uint8 result,\r\n        uint8 diceResult,\r\n        uint256 fee,\r\n        address game\r\n    );\r\n    event LimitsChanged(uint256 maxLimit, uint256 minLimit);\r\n    event GameRefunded(\r\n        uint256 indexed nonce,\r\n        address indexed player,\r\n        uint256 volume\r\n    );\r\n\r\n    event ConfirmationsChanged(uint16 _requestConfirmations);\r\n\r\n    event KeepFeesChanged(bool _keepFees);\r\n\r\n    IGamesHub public gamesHub;\r\n    IERC20 public token;\r\n    uint256 public totalBet;\r\n    uint256 public maxLimit = 1000 * (10 ** 6); //default 1000 USDC\r\n    uint256 public minLimit = 1 * (10 ** 6); //default 1 USDC\r\n    uint256 public constant FEE_FROM_BET = 10 * (10 ** 4); //default 10 cents\r\n    uint8 public constant FEE_PERC_FROM_WIN = 20;\r\n    bool keepFees = false;\r\n    uint256 totalGames = 0;\r\n\r\n    struct Games {\r\n        address player;\r\n        uint256 amount;\r\n        uint8[5] bet;\r\n        mapping(uint8 => bool) sides; // true if the side is bet\r\n        uint8 sizeBet; // number of sides bet\r\n        uint8 result; // 0- not set, 1- win, 2- lose, 3- refunded\r\n    }\r\n    mapping(uint256 => Games) public games;\r\n\r\n    mapping(uint256 => uint256) gameNonce;\r\n\r\n    address private supraAddr;\r\n    address private deployer;\r\n    uint16 public requestConfirmations;\r\n\r\n    constructor(\r\n        address supraSC,\r\n        uint16 _requestConfirmations,\r\n        address _gamesHub\r\n    ) {\r\n        gamesHub = IGamesHub(_gamesHub);\r\n        token = IERC20(gamesHub.helpers(keccak256(\"TOKEN\")));\r\n        totalBet = 0;\r\n        supraAddr = supraSC;\r\n        deployer = msg.sender;\r\n        requestConfirmations = _requestConfirmations;\r\n    }\r\n\r\n    /**\r\n     * @dev Roll the dice, sending the numbers from 1 to 6\r\n     * Repeated numbers will be ignored\r\n     * @param _sides Array of 5 sides to bet on (numbers 1 to 6, 0 if side not chosen)\r\n     * @param _amount Amount of tokens to bet\r\n     */\r\n    function rollDice(\r\n        uint8[5] memory _sides,\r\n        uint256 _amount\r\n    ) external nonReentrant {\r\n        uint256 balance = token.balanceOf(address(this));\r\n\r\n        require(_amount <= maxLimit && _amount >= minLimit, \"DC-01\");\r\n        require(balance >= ((totalBet + _amount) * 6), \"DC-02\");\r\n\r\n        gamesHub.incrementNonce();\r\n\r\n        for (uint8 i = 0; i < 5; i++) {\r\n            if (\r\n                _sides[i] > 0 &&\r\n                _sides[i] < 7 &&\r\n                !games[gamesHub.nonce()].sides[_sides[i]]\r\n            ) {\r\n                games[gamesHub.nonce()].sides[_sides[i]] = true;\r\n                games[gamesHub.nonce()].sizeBet += 1;\r\n            }\r\n        }\r\n\r\n        require(games[gamesHub.nonce()].sizeBet > 0, \"DC-09\");\r\n\r\n        _amount -= FEE_FROM_BET;\r\n\r\n        token.transferFrom(msg.sender, address(this), _amount);\r\n        // Sending fee to the house\r\n        token.transferFrom(\r\n            msg.sender,\r\n            gamesHub.helpers(keccak256(\"TREASURY\")),\r\n            FEE_FROM_BET\r\n        );\r\n\r\n        games[gamesHub.nonce()].player = msg.sender;\r\n        games[gamesHub.nonce()].amount = _amount;\r\n        games[gamesHub.nonce()].bet = _sides;\r\n\r\n        uint256 nonce = ISupraRouter(supraAddr).generateRequest(\r\n            \"callback(uint256,uint256[])\",\r\n            1,\r\n            requestConfirmations,\r\n            deployer\r\n        );\r\n        gameNonce[nonce] = gamesHub.nonce();\r\n\r\n        totalBet += _amount;\r\n        totalGames += 1;\r\n        emit DiceRolled(msg.sender, gamesHub.nonce(), nonce, _amount);\r\n    }\r\n\r\n    /**\r\n     * @dev Callback function from the SupraOracles contract\r\n     * It will determine if the player won or lost and send the tokens to the player if he won\r\n     * @param nonce Request ID of the random number\r\n     * @param rngList Random number\r\n     */\r\n    function callback(\r\n        uint256 nonce,\r\n        uint256[] calldata rngList\r\n    ) external nonReentrant {\r\n        Games storage game = games[gameNonce[nonce]];\r\n        if (game.result > 0) return;\r\n\r\n        uint256 volume = 0;\r\n        uint256 _fee = 0;\r\n        uint8 diceResult = uint8((rngList[0] % 6)) + 1;\r\n\r\n        if (game.sides[diceResult]) {\r\n            game.result = 1;\r\n            volume = (game.amount * 6) / game.sizeBet;\r\n            _fee = ((volume - game.amount) * FEE_PERC_FROM_WIN) / 1000;\r\n\r\n            volume -= _fee;\r\n            token.transfer(game.player, volume);\r\n            if (keepFees)\r\n                token.transfer(gamesHub.helpers(keccak256(\"TREASURY\")), _fee);\r\n        } else {\r\n            game.result = 2;\r\n        }\r\n        totalBet -= game.amount;\r\n\r\n        emit GameFinished(\r\n            gameNonce[nonce],\r\n            game.player,\r\n            game.amount,\r\n            volume,\r\n            game.result,\r\n            diceResult,\r\n            _fee,\r\n            address(this)\r\n        );\r\n    }\r\n\r\n    /**\r\n     * @dev Refund the game to the player. To use only if some game is stuck.\r\n     * @param _nonce Nonce of the game\r\n     */\r\n    function refundGame(uint256 _nonce) external nonReentrant {\r\n        require(gamesHub.checkRole(gamesHub.ADMIN_ROLE(), msg.sender), \"DC-05\");\r\n        Games storage game = games[_nonce];\r\n        require(game.result == 0, \"DC-04\");\r\n\r\n        token.transfer(game.player, game.amount);\r\n        totalBet -= game.amount;\r\n\r\n        //changing result to refunded\r\n        game.result = 3;\r\n\r\n        emit GameRefunded(_nonce, game.player, game.amount);\r\n    }\r\n\r\n    /**\r\n     * @dev Change the bet limit\r\n     * @param _maxLimit maximum bet limit\r\n     * @param _minLimit minimum bet limit\r\n     */\r\n    function changeLimits(uint256 _maxLimit, uint256 _minLimit) public {\r\n        require(gamesHub.checkRole(gamesHub.ADMIN_ROLE(), msg.sender), \"DC-05\");\r\n        require(_maxLimit >= _minLimit, \"DC-06\");\r\n        require(_minLimit > FEE_FROM_BET, \"DC-08\");\r\n\r\n        maxLimit = _maxLimit;\r\n        minLimit = _minLimit;\r\n\r\n        emit LimitsChanged(_minLimit, _maxLimit);\r\n    }\r\n\r\n    /**\r\n     * @dev Change the number of confirmations required for the request\r\n     * @param _requestConfirmations Number of confirmations\r\n     */\r\n    function changeConfirmations(uint16 _requestConfirmations) public {\r\n        require(gamesHub.checkRole(gamesHub.ADMIN_ROLE(), msg.sender), \"DC-05\");\r\n        requestConfirmations = _requestConfirmations;\r\n        emit ConfirmationsChanged(_requestConfirmations);\r\n    }\r\n\r\n    /**\r\n     * @dev Change the keepFees variable\r\n     * @param _keepFees New value for keepFees\r\n     */\r\n    function changeKeepFees(bool _keepFees) public {\r\n        require(gamesHub.checkRole(gamesHub.ADMIN_ROLE(), msg.sender), \"DC-05\");\r\n        keepFees = _keepFees;\r\n\r\n        emit KeepFeesChanged(_keepFees);\r\n    }\r\n\r\n    /**\r\n     * @dev Change the token address, sending the current token balance to the admin wallet\r\n     * It's only possible if there are no games in progress\r\n     * @param _token New token address\r\n     */\r\n    function changeToken(address _token) public nonReentrant {\r\n        require(gamesHub.checkRole(gamesHub.ADMIN_ROLE(), msg.sender), \"DC-05\");\r\n        require(totalBet == 0, \"DC-07\");\r\n\r\n        token.transfer(gamesHub.adminWallet(), token.balanceOf(address(this)));\r\n        token = IERC20(_token);\r\n    }\r\n\r\n    /**\r\n     * @dev Withdraw tokens from the contract to the admin wallet\r\n     * It's only possible if there are no games in progress\r\n     * @param _amount Amount of tokens to withdraw\r\n     */\r\n    function withdrawTokens(uint256 _amount) public nonReentrant {\r\n        require(gamesHub.checkRole(gamesHub.ADMIN_ROLE(), msg.sender), \"DC-05\");\r\n        require(totalBet == 0, \"DC-07\");\r\n\r\n        token.transfer(gamesHub.adminWallet(), _amount);\r\n    }\r\n}\r\n",
  "sourcePath": "/home/gabesan/rea de trabalho/Projetos/PerfectPool/NewTribeX/tribex-smart-contracts/contracts/games/DiceSupra.sol",
  "compiler": {
    "name": "solc",
    "version": "0.8.19+commit.7dd6d404.Emscripten.clang"
  },
  "schemaVersion": "3.4.16",
  "updatedAt": "2024-06-18T20:12:20.638Z",
  "networkType": "ethereum",
  "devdoc": {
    "kind": "dev",
    "methods": {
      "callback(uint256,uint256[])": {
        "details": "Callback function from the SupraOracles contract It will determine if the player won or lost and send the tokens to the player if he won",
        "params": {
          "nonce": "Request ID of the random number",
          "rngList": "Random number"
        }
      },
      "changeConfirmations(uint16)": {
        "details": "Change the number of confirmations required for the request",
        "params": {
          "_requestConfirmations": "Number of confirmations"
        }
      },
      "changeKeepFees(bool)": {
        "details": "Change the keepFees variable",
        "params": {
          "_keepFees": "New value for keepFees"
        }
      },
      "changeLimits(uint256,uint256)": {
        "details": "Change the bet limit",
        "params": {
          "_maxLimit": "maximum bet limit",
          "_minLimit": "minimum bet limit"
        }
      },
      "changeToken(address)": {
        "details": "Change the token address, sending the current token balance to the admin wallet It's only possible if there are no games in progress",
        "params": {
          "_token": "New token address"
        }
      },
      "refundGame(uint256)": {
        "details": "Refund the game to the player. To use only if some game is stuck.",
        "params": {
          "_nonce": "Nonce of the game"
        }
      },
      "rollDice(uint8[5],uint256)": {
        "details": "Roll the dice, sending the numbers from 1 to 6 Repeated numbers will be ignored",
        "params": {
          "_amount": "Amount of tokens to bet",
          "_sides": "Array of 5 sides to bet on (numbers 1 to 6, 0 if side not chosen)"
        }
      },
      "withdrawTokens(uint256)": {
        "details": "Withdraw tokens from the contract to the admin wallet It's only possible if there are no games in progress",
        "params": {
          "_amount": "Amount of tokens to withdraw"
        }
      }
    },
    "version": 1
  },
  "userdoc": {
    "kind": "user",
    "methods": {},
    "version": 1
  }
}