{
  "contractName": "DiceSupra",
  "abi": [
    {
      "inputs": [
        {
          "internalType": "address",
          "name": "supraSC",
          "type": "address"
        },
        {
          "internalType": "uint16",
          "name": "_requestConfirmations",
          "type": "uint16"
        },
        {
          "internalType": "address",
          "name": "_gamesHub",
          "type": "address"
        }
      ],
      "stateMutability": "nonpayable",
      "type": "constructor"
    },
    {
      "anonymous": false,
      "inputs": [
        {
          "indexed": true,
          "internalType": "address",
          "name": "player",
          "type": "address"
        },
        {
          "indexed": true,
          "internalType": "uint256",
          "name": "nonce",
          "type": "uint256"
        },
        {
          "indexed": true,
          "internalType": "uint256",
          "name": "rngNonce",
          "type": "uint256"
        },
        {
          "indexed": false,
          "internalType": "uint256",
          "name": "creditAmount",
          "type": "uint256"
        }
      ],
      "name": "DiceRolled",
      "type": "event"
    },
    {
      "anonymous": false,
      "inputs": [
        {
          "indexed": true,
          "internalType": "uint256",
          "name": "nonce",
          "type": "uint256"
        },
        {
          "indexed": true,
          "internalType": "address",
          "name": "player",
          "type": "address"
        },
        {
          "indexed": false,
          "internalType": "uint256",
          "name": "volumeIn",
          "type": "uint256"
        },
        {
          "indexed": false,
          "internalType": "uint256",
          "name": "volumeOut",
          "type": "uint256"
        },
        {
          "indexed": false,
          "internalType": "uint8",
          "name": "result",
          "type": "uint8"
        },
        {
          "indexed": false,
          "internalType": "uint8",
          "name": "diceResult",
          "type": "uint8"
        },
        {
          "indexed": false,
          "internalType": "uint256",
          "name": "fee",
          "type": "uint256"
        },
        {
          "indexed": false,
          "internalType": "address",
          "name": "game",
          "type": "address"
        }
      ],
      "name": "GameFinished",
      "type": "event"
    },
    {
      "anonymous": false,
      "inputs": [
        {
          "indexed": true,
          "internalType": "uint256",
          "name": "nonce",
          "type": "uint256"
        },
        {
          "indexed": true,
          "internalType": "address",
          "name": "player",
          "type": "address"
        },
        {
          "indexed": false,
          "internalType": "uint256",
          "name": "volume",
          "type": "uint256"
        }
      ],
      "name": "GameRefunded",
      "type": "event"
    },
    {
      "anonymous": false,
      "inputs": [
        {
          "indexed": false,
          "internalType": "bool",
          "name": "_keepFees",
          "type": "bool"
        }
      ],
      "name": "KeepFeesChanged",
      "type": "event"
    },
    {
      "anonymous": false,
      "inputs": [
        {
          "indexed": false,
          "internalType": "uint256",
          "name": "maxLimit",
          "type": "uint256"
        },
        {
          "indexed": false,
          "internalType": "uint256",
          "name": "minLimit",
          "type": "uint256"
        },
        {
          "indexed": false,
          "internalType": "bool",
          "name": "limitTypeFixed",
          "type": "bool"
        },
        {
          "indexed": false,
          "internalType": "uint8",
          "name": "feeFromBet",
          "type": "uint8"
        },
        {
          "indexed": false,
          "internalType": "uint8",
          "name": "feePercFromWin",
          "type": "uint8"
        }
      ],
      "name": "LimitsAndChancesChanged",
      "type": "event"
    },
    {
      "inputs": [],
      "name": "feeFromBet",
      "outputs": [
        {
          "internalType": "uint256",
          "name": "",
          "type": "uint256"
        }
      ],
      "stateMutability": "view",
      "type": "function"
    },
    {
      "inputs": [],
      "name": "feePercFromWin",
      "outputs": [
        {
          "internalType": "uint8",
          "name": "",
          "type": "uint8"
        }
      ],
      "stateMutability": "view",
      "type": "function"
    },
    {
      "inputs": [
        {
          "internalType": "uint256",
          "name": "",
          "type": "uint256"
        }
      ],
      "name": "games",
      "outputs": [
        {
          "internalType": "address",
          "name": "player",
          "type": "address"
        },
        {
          "internalType": "uint256",
          "name": "amount",
          "type": "uint256"
        },
        {
          "internalType": "uint8",
          "name": "sizeBet",
          "type": "uint8"
        },
        {
          "internalType": "uint8",
          "name": "result",
          "type": "uint8"
        }
      ],
      "stateMutability": "view",
      "type": "function"
    },
    {
      "inputs": [],
      "name": "gamesHub",
      "outputs": [
        {
          "internalType": "contract IGamesHub",
          "name": "",
          "type": "address"
        }
      ],
      "stateMutability": "view",
      "type": "function"
    },
    {
      "inputs": [],
      "name": "maxLimit",
      "outputs": [
        {
          "internalType": "uint256",
          "name": "",
          "type": "uint256"
        }
      ],
      "stateMutability": "view",
      "type": "function"
    },
    {
      "inputs": [],
      "name": "minLimit",
      "outputs": [
        {
          "internalType": "uint256",
          "name": "",
          "type": "uint256"
        }
      ],
      "stateMutability": "view",
      "type": "function"
    },
    {
      "inputs": [],
      "name": "requestConfirmations",
      "outputs": [
        {
          "internalType": "uint16",
          "name": "",
          "type": "uint16"
        }
      ],
      "stateMutability": "view",
      "type": "function"
    },
    {
      "inputs": [],
      "name": "token",
      "outputs": [
        {
          "internalType": "contract IERC20",
          "name": "",
          "type": "address"
        }
      ],
      "stateMutability": "view",
      "type": "function"
    },
    {
      "inputs": [],
      "name": "totalBet",
      "outputs": [
        {
          "internalType": "uint256",
          "name": "",
          "type": "uint256"
        }
      ],
      "stateMutability": "view",
      "type": "function"
    },
    {
      "inputs": [
        {
          "internalType": "uint8[5]",
          "name": "_sides",
          "type": "uint8[5]"
        },
        {
          "internalType": "uint256",
          "name": "_amount",
          "type": "uint256"
        }
      ],
      "name": "rollDice",
      "outputs": [],
      "stateMutability": "nonpayable",
      "type": "function"
    },
    {
      "inputs": [
        {
          "internalType": "uint256",
          "name": "nonce",
          "type": "uint256"
        },
        {
          "internalType": "uint256[]",
          "name": "rngList",
          "type": "uint256[]"
        }
      ],
      "name": "callback",
      "outputs": [],
      "stateMutability": "nonpayable",
      "type": "function"
    },
    {
      "inputs": [
        {
          "internalType": "uint256",
          "name": "_nonce",
          "type": "uint256"
        }
      ],
      "name": "refundGame",
      "outputs": [],
      "stateMutability": "nonpayable",
      "type": "function"
    },
    {
      "inputs": [
        {
          "internalType": "uint256",
          "name": "_maxLimit",
          "type": "uint256"
        },
        {
          "internalType": "uint256",
          "name": "_minLimit",
          "type": "uint256"
        },
        {
          "internalType": "bool",
          "name": "_limitTypeFixed",
          "type": "bool"
        },
        {
          "internalType": "uint8",
          "name": "_feeFromBet",
          "type": "uint8"
        },
        {
          "internalType": "uint8",
          "name": "_feePercFromWin",
          "type": "uint8"
        }
      ],
      "name": "changeLimitsAndChances",
      "outputs": [],
      "stateMutability": "nonpayable",
      "type": "function"
    },
    {
      "inputs": [
        {
          "internalType": "bool",
          "name": "_keepFees",
          "type": "bool"
        }
      ],
      "name": "changeKeepFees",
      "outputs": [],
      "stateMutability": "nonpayable",
      "type": "function"
    },
    {
      "inputs": [
        {
          "internalType": "address",
          "name": "_token",
          "type": "address"
        }
      ],
      "name": "changeToken",
      "outputs": [],
      "stateMutability": "nonpayable",
      "type": "function"
    },
    {
      "inputs": [
        {
          "internalType": "uint256",
          "name": "_amount",
          "type": "uint256"
        }
      ],
      "name": "withdrawTokens",
      "outputs": [],
      "stateMutability": "nonpayable",
      "type": "function"
    }
  ],
  "bytecode": "0x6080604052633b9aca00600355620f4240600455620111706005556006805462ffffff191661010f17905560006007553480156200003c57600080fd5b5060405162002214380380620022148339810160408190526200005f9162000185565b600080546001600160a01b0319166001600160a01b03831690811790915560405163a7ad58bf60e01b81527f96706879d29c248edfb2a2563a8a9d571c49634c0f82013e6f5a7cde739d35d4600482015263a7ad58bf90602401602060405180830381865afa158015620000d7573d6000803e3d6000fd5b505050506040513d601f19601f82011682018060405250810190620000fd9190620001d7565b600180546001600160a01b039283166001600160a01b0319918216179091556000600255600a805495909216941693909317909255600b805461ffff909216600160a01b0261ffff60a01b1933166001600160b01b03199093169290921791909117905550620001fc565b80516001600160a01b03811681146200018057600080fd5b919050565b6000806000606084860312156200019b57600080fd5b620001a68462000168565b9250602084015161ffff81168114620001be57600080fd5b9150620001ce6040850162000168565b90509250925092565b600060208284031215620001ea57600080fd5b620001f58262000168565b9392505050565b612008806200020c6000396000f3fe608060405234801561001057600080fd5b50600436106101005760003560e01c806366829b1611610097578063be29116a11610066578063be29116a1461027e578063d7260cba14610291578063fc0c546a146102a4578063fe5e1853146102b757600080fd5b806366829b161461021d5780637d183f3d14610230578063a2dda04114610243578063b0fb162f1461025657600080fd5b80631fd8088d116100d35780631fd8088d146101d95780632d65b8ed146101e2578063315a095d146101eb5780636419729f146101fe57600080fd5b806308898705146101055780630cc50bd21461011a578063117a5b901461014a5780631a861d26146101c2575b600080fd5b610118610113366004611c99565b6102c0565b005b60005461012d906001600160a01b031681565b6040516001600160a01b0390911681526020015b60405180910390f35b61018f610158366004611d23565b6008602052600090815260409020805460018201546004909201546001600160a01b03909116919060ff8082169161010090041684565b604080516001600160a01b039095168552602085019390935260ff91821692840192909252166060820152608001610141565b6101cb60035481565b604051908152602001610141565b6101cb60045481565b6101cb60055481565b6101186101f9366004611d23565b610dbc565b60065461020b9060ff1681565b60405160ff9091168152602001610141565b61011861022b366004611d54565b610fd9565b61011861023e366004611d78565b61127f565b610118610251366004611e05565b6115cf565b600b5461026b90600160a01b900461ffff1681565b60405161ffff9091168152602001610141565b61011861028c366004611e22565b611735565b61011861029f366004611d23565b611986565b60015461012d906001600160a01b031681565b6101cb60025481565b6001546040516370a0823160e01b81523060048201526000916001600160a01b0316906370a0823190602401602060405180830381865afa158015610309573d6000803e3d6000fd5b505050506040513d601f19601f8201168201806040525081019061032d9190611e7b565b600654909150610100900460ff161561039257600354821115801561035457506004548210155b61038d5760405162461bcd60e51b815260206004820152600560248201526444432d303160d81b60448201526064015b60405180910390fd5b610408565b6064816003546103a29190611eaa565b6103ac9190611edd565b82111580156103d457506064816004546103c69190611eaa565b6103d09190611edd565b8210155b6104085760405162461bcd60e51b815260206004820152600560248201526444432d303160d81b6044820152606401610384565b816002546104169190611ef1565b610421906006611eaa565b8110156104585760405162461bcd60e51b8152602060048201526005602482015264222196981960d91b6044820152606401610384565b600080546040805163627cdcb960e01b815290516001600160a01b039092169263627cdcb99260048084019382900301818387803b15801561049957600080fd5b505af11580156104ad573d6000803e3d6000fd5b5050505060005b60058160ff161015610771576000848260ff16600581106104d7576104d7611f04565b602002015160ff1611801561050857506007848260ff16600581106104fe576104fe611f04565b602002015160ff16105b80156105c95750600080546040805163057ff68760e51b81529051600893926001600160a01b03169163affed0e09160048083019260209291908290030181865afa15801561055b573d6000803e3d6000fd5b505050506040513d601f19601f8201168201806040525081019061057f9190611e7b565b81526020019081526020016000206003016000858360ff16600581106105a7576105a7611f04565b6020908102919091015160ff9081168352908201929092526040016000205416155b1561075f576001600860008060009054906101000a90046001600160a01b03166001600160a01b031663affed0e06040518163ffffffff1660e01b8152600401602060405180830381865afa158015610626573d6000803e3d6000fd5b505050506040513d601f19601f8201168201806040525081019061064a9190611e7b565b81526020019081526020016000206003016000868460ff166005811061067257610672611f04565b602002015160ff1660ff16815260200190815260200160002060006101000a81548160ff0219169083151502179055506001600860008060009054906101000a90046001600160a01b03166001600160a01b031663affed0e06040518163ffffffff1660e01b8152600401602060405180830381865afa1580156106fa573d6000803e3d6000fd5b505050506040513d601f19601f8201168201806040525081019061071e9190611e7b565b815260208101919091526040016000908120600401805490919061074690849060ff16611f1a565b92506101000a81548160ff021916908360ff1602179055505b8061076981611f33565b9150506104b4565b506000600860008060009054906101000a90046001600160a01b03166001600160a01b031663affed0e06040518163ffffffff1660e01b8152600401602060405180830381865afa1580156107ca573d6000803e3d6000fd5b505050506040513d601f19601f820116820180604052508101906107ee9190611e7b565b815260208101919091526040016000206004015460ff161161083a5760405162461bcd60e51b815260206004820152600560248201526444432d303960d81b6044820152606401610384565b6005546108479083611f52565b6001546040516323b872dd60e01b8152336004820152306024820152604481018390529193506001600160a01b0316906323b872dd906064016020604051808303816000875af115801561089f573d6000803e3d6000fd5b505050506040513d601f19601f820116820180604052508101906108c39190611f65565b5060015460005460405163a7ad58bf60e01b81527f06aa03964db1f7257357ef09714a5f0ca3633723df419e97015e0c7a3e83edb760048201526001600160a01b03928316926323b872dd92339291169063a7ad58bf90602401602060405180830381865afa15801561093a573d6000803e3d6000fd5b505050506040513d601f19601f8201168201806040525081019061095e9190611f82565b6005546040516001600160e01b031960e086901b1681526001600160a01b03938416600482015292909116602483015260448201526064016020604051808303816000875af11580156109b5573d6000803e3d6000fd5b505050506040513d601f19601f820116820180604052508101906109d99190611f65565b5033600860008060009054906101000a90046001600160a01b03166001600160a01b031663affed0e06040518163ffffffff1660e01b8152600401602060405180830381865afa158015610a31573d6000803e3d6000fd5b505050506040513d601f19601f82011682018060405250810190610a559190611e7b565b81526020808201929092526040908101600090812080546001600160a01b0319166001600160a01b039586161790558054825163057ff68760e51b815292518795600895939492169263affed0e092600480820193918290030181865afa158015610ac4573d6000803e3d6000fd5b505050506040513d601f19601f82011682018060405250810190610ae89190611e7b565b81526020019081526020016000206001018190555082600860008060009054906101000a90046001600160a01b03166001600160a01b031663affed0e06040518163ffffffff1660e01b8152600401602060405180830381865afa158015610b54573d6000803e3d6000fd5b505050506040513d601f19601f82011682018060405250810190610b789190611e7b565b8152602001908152602001600020600201906005610b97929190611bc5565b50600a54600b5460405163d291ba0960e01b815260806004820152601b60848201527f63616c6c6261636b2875696e743235362c75696e743235365b5d29000000000060a482015260016024820152600160a01b820461ffff1660448201526001600160a01b039182166064820152600092919091169063d291ba099060c4016020604051808303816000875af1158015610c36573d6000803e3d6000fd5b505050506040513d601f19601f82011682018060405250810190610c5a9190611e7b565b905060008054906101000a90046001600160a01b03166001600160a01b031663affed0e06040518163ffffffff1660e01b8152600401602060405180830381865afa158015610cad573d6000803e3d6000fd5b505050506040513d601f19601f82011682018060405250810190610cd19190611e7b565b60008281526009602052604081209190915560028054859290610cf5908490611ef1565b92505081905550600160076000828254610d0f9190611ef1565b90915550506000546040805163057ff68760e51b8152905183926001600160a01b03169163affed0e09160048083019260209291908290030181865afa158015610d5d573d6000803e3d6000fd5b505050506040513d601f19601f82011682018060405250810190610d819190611e7b565b60405185815233907fcedccd06ff8a6797523ec9862a27bf366d14c17ee4569d0404a87cd01ebcf53d9060200160405180910390a450505050565b60005460408051631d6c8e3f60e21b815290516001600160a01b03909216916312d9a6ad9183916375b238fc916004808201926020929091908290030181865afa158015610e0e573d6000803e3d6000fd5b505050506040513d601f19601f82011682018060405250810190610e329190611e7b565b6040516001600160e01b031960e084901b1681526004810191909152336024820152604401602060405180830381865afa158015610e74573d6000803e3d6000fd5b505050506040513d601f19601f82011682018060405250810190610e989190611f65565b610eb45760405162461bcd60e51b815260040161038490611f9f565b60025415610eec5760405162461bcd60e51b815260206004820152600560248201526444432d303760d81b6044820152606401610384565b600154600054604080516336b19cd760e01b815290516001600160a01b039384169363a9059cbb9316916336b19cd79160048083019260209291908290030181865afa158015610f40573d6000803e3d6000fd5b505050506040513d601f19601f82011682018060405250810190610f649190611f82565b6040516001600160e01b031960e084901b1681526001600160a01b039091166004820152602481018490526044016020604051808303816000875af1158015610fb1573d6000803e3d6000fd5b505050506040513d601f19601f82011682018060405250810190610fd59190611f65565b5050565b60005460408051631d6c8e3f60e21b815290516001600160a01b03909216916312d9a6ad9183916375b238fc916004808201926020929091908290030181865afa15801561102b573d6000803e3d6000fd5b505050506040513d601f19601f8201168201806040525081019061104f9190611e7b565b6040516001600160e01b031960e084901b1681526004810191909152336024820152604401602060405180830381865afa158015611091573d6000803e3d6000fd5b505050506040513d601f19601f820116820180604052508101906110b59190611f65565b6110d15760405162461bcd60e51b815260040161038490611f9f565b600254156111095760405162461bcd60e51b815260206004820152600560248201526444432d303760d81b6044820152606401610384565b600154600054604080516336b19cd760e01b815290516001600160a01b039384169363a9059cbb9316916336b19cd79160048083019260209291908290030181865afa15801561115d573d6000803e3d6000fd5b505050506040513d601f19601f820116820180604052508101906111819190611f82565b6001546040516370a0823160e01b81523060048201526001600160a01b03909116906370a0823190602401602060405180830381865afa1580156111c9573d6000803e3d6000fd5b505050506040513d601f19601f820116820180604052508101906111ed9190611e7b565b6040516001600160e01b031960e085901b1681526001600160a01b03909216600483015260248201526044016020604051808303816000875af1158015611238573d6000803e3d6000fd5b505050506040513d601f19601f8201168201806040525081019061125c9190611f65565b50600180546001600160a01b0319166001600160a01b0392909216919091179055565b6000838152600960209081526040808320548352600890915290206004810154610100900460ff16156112b25750505050565b60008060006006868660008181106112cc576112cc611f04565b905060200201356112dd9190611fbe565b6112e8906001611f1a565b60ff808216600090815260038701602052604090205491925016156115145760048401805461ff0019811661010017909155600185015460ff90911690611330906006611eaa565b61133a9190611edd565b60065460018601549194506103e89160ff909116906113599086611f52565b6113639190611eaa565b61136d9190611edd565b91506113798284611f52565b600154855460405163a9059cbb60e01b81526001600160a01b03918216600482015260248101849052929550169063a9059cbb906044016020604051808303816000875af11580156113cf573d6000803e3d6000fd5b505050506040513d601f19601f820116820180604052508101906113f39190611f65565b5060065462010000900460ff161561150f5760015460005460405163a7ad58bf60e01b81527f06aa03964db1f7257357ef09714a5f0ca3633723df419e97015e0c7a3e83edb760048201526001600160a01b039283169263a9059cbb92169063a7ad58bf90602401602060405180830381865afa158015611478573d6000803e3d6000fd5b505050506040513d601f19601f8201168201806040525081019061149c9190611f82565b6040516001600160e01b031960e084901b1681526001600160a01b039091166004820152602481018590526044016020604051808303816000875af11580156114e9573d6000803e3d6000fd5b505050506040513d601f19601f8201168201806040525081019061150d9190611f65565b505b611526565b60048401805461ff0019166102001790555b83600101546002600082825461153c9190611f52565b909155505083546000888152600960209081526040918290205460018801546004890154845191825292810188905260ff6101009093048316818501529185166060830152608082018690523060a083015291516001600160a01b03909316927f8a46221ebfa653e8690847e1d47c2cb1d5a0f9ebb036796b3a1df181ff3c16cc9181900360c00190a350505050505050565b60005460408051631d6c8e3f60e21b815290516001600160a01b03909216916312d9a6ad9183916375b238fc916004808201926020929091908290030181865afa158015611621573d6000803e3d6000fd5b505050506040513d601f19601f820116820180604052508101906116459190611e7b565b6040516001600160e01b031960e084901b1681526004810191909152336024820152604401602060405180830381865afa158015611687573d6000803e3d6000fd5b505050506040513d601f19601f820116820180604052508101906116ab9190611f65565b6116df5760405162461bcd60e51b815260206004820152600560248201526443462d303560d81b6044820152606401610384565b60068054821515620100000262ff0000199091161790556040517f60f3115279654f0dde209396aeb5e0fbd0ee38a3c1171dd4b3324fdcbf807b1e9061172a90831515815260200190565b60405180910390a150565b60005460408051631d6c8e3f60e21b815290516001600160a01b03909216916312d9a6ad9183916375b238fc916004808201926020929091908290030181865afa158015611787573d6000803e3d6000fd5b505050506040513d601f19601f820116820180604052508101906117ab9190611e7b565b6040516001600160e01b031960e084901b1681526004810191909152336024820152604401602060405180830381865afa1580156117ed573d6000803e3d6000fd5b505050506040513d601f19601f820116820180604052508101906118119190611f65565b61182d5760405162461bcd60e51b815260040161038490611f9f565b838510156118655760405162461bcd60e51b8152602060048201526005602482015264222196981b60d91b6044820152606401610384565b6101f48160ff1611156118a25760405162461bcd60e51b8152602060048201526005602482015264088865a60760db1b6044820152606401610384565b600654610100900460ff166118f757606485111580156118c3575060648411155b6118f75760405162461bcd60e51b8152602060048201526005602482015264222196989960d91b6044820152606401610384565b600385905560048490556006805460ff848116600581905561ffff1990921661010087151590810260ff19169190911791851691821790935560408051888152602081018a905290810193909352606083019190915260808201527ffebcca72095f2fc322ff63bdd298db612fde4d3c9375785296deb1d288deac839060a00160405180910390a15050505050565b60005460408051631d6c8e3f60e21b815290516001600160a01b03909216916312d9a6ad9183916375b238fc916004808201926020929091908290030181865afa1580156119d8573d6000803e3d6000fd5b505050506040513d601f19601f820116820180604052508101906119fc9190611e7b565b6040516001600160e01b031960e084901b1681526004810191909152336024820152604401602060405180830381865afa158015611a3e573d6000803e3d6000fd5b505050506040513d601f19601f82011682018060405250810190611a629190611f65565b611a7e5760405162461bcd60e51b815260040161038490611f9f565b60008181526008602052604090206004810154610100900460ff1615611ace5760405162461bcd60e51b81526020600482015260056024820152641110cb4c0d60da1b6044820152606401610384565b6001805482549183015460405163a9059cbb60e01b81526001600160a01b039384166004820152602481019190915291169063a9059cbb906044016020604051808303816000875af1158015611b28573d6000803e3d6000fd5b505050506040513d601f19601f82011682018060405250810190611b4c9190611f65565b50806001015460026000828254611b639190611f52565b909155505060048101805461ff001916610300179055805460018201546040519081526001600160a01b039091169083907ffa155f416059e21f529e5445cc0a44fc2e61c29bf131685ac80870ccf021b9099060200160405180910390a35050565b600183019183908215611c485791602002820160005b83821115611c1957835183826101000a81548160ff021916908360ff1602179055509260200192600101602081600001049283019260010302611bdb565b8015611c465782816101000a81549060ff0219169055600101602081600001049283019260010302611c19565b505b50611c54929150611c58565b5090565b5b80821115611c545760008155600101611c59565b634e487b7160e01b600052604160045260246000fd5b803560ff81168114611c9457600080fd5b919050565b60008060c08385031215611cac57600080fd5b83601f840112611cbb57600080fd5b60405160a0810181811067ffffffffffffffff82111715611cde57611cde611c6d565b6040528060a0850186811115611cf357600080fd5b855b81811015611d1457611d0681611c83565b835260209283019201611cf5565b50919691359550909350505050565b600060208284031215611d3557600080fd5b5035919050565b6001600160a01b0381168114611d5157600080fd5b50565b600060208284031215611d6657600080fd5b8135611d7181611d3c565b9392505050565b600080600060408486031215611d8d57600080fd5b83359250602084013567ffffffffffffffff80821115611dac57600080fd5b818601915086601f830112611dc057600080fd5b813581811115611dcf57600080fd5b8760208260051b8501011115611de457600080fd5b6020830194508093505050509250925092565b8015158114611d5157600080fd5b600060208284031215611e1757600080fd5b8135611d7181611df7565b600080600080600060a08688031215611e3a57600080fd5b85359450602086013593506040860135611e5381611df7565b9250611e6160608701611c83565b9150611e6f60808701611c83565b90509295509295909350565b600060208284031215611e8d57600080fd5b5051919050565b634e487b7160e01b600052601160045260246000fd5b8082028115828204841417611ec157611ec1611e94565b92915050565b634e487b7160e01b600052601260045260246000fd5b600082611eec57611eec611ec7565b500490565b80820180821115611ec157611ec1611e94565b634e487b7160e01b600052603260045260246000fd5b60ff8181168382160190811115611ec157611ec1611e94565b600060ff821660ff8103611f4957611f49611e94565b60010192915050565b81810381811115611ec157611ec1611e94565b600060208284031215611f7757600080fd5b8151611d7181611df7565b600060208284031215611f9457600080fd5b8151611d7181611d3c565b60208082526005908201526444432d303560d81b604082015260600190565b600082611fcd57611fcd611ec7565b50069056fea26469706673582212202b7b30dbbfc4aae0e6df5d7ffa24aaf4924a8d0bfcaf15cc7680864b8cf88cea64736f6c63430008130033",
  "immutableReferences": {},
  "source": "// SPDX-License-Identifier: MIT\r\npragma solidity ^0.8.7;\r\n\r\nimport \"../interfaces/IGamesHub.sol\";\r\nimport \"../interfaces/IERC20.sol\";\r\n\r\ninterface ISupraRouter {\r\n    function generateRequest(\r\n        string memory _functionSig,\r\n        uint8 _rngCount,\r\n        uint256 _numConfirmations,\r\n        uint256 _clientSeed,\r\n        address _clientWalletAddress\r\n    ) external returns (uint256);\r\n\r\n    function generateRequest(\r\n        string memory _functionSig,\r\n        uint8 _rngCount,\r\n        uint256 _numConfirmations,\r\n        address _clientWalletAddress\r\n    ) external returns (uint256);\r\n}\r\n\r\ncontract DiceSupra {\r\n    event DiceRolled(\r\n        address indexed player,\r\n        uint256 indexed nonce,\r\n        uint256 indexed rngNonce,\r\n        uint256 creditAmount\r\n    );\r\n    event GameFinished(\r\n        uint256 indexed nonce,\r\n        address indexed player,\r\n        uint256 volumeIn,\r\n        uint256 volumeOut,\r\n        uint8 result,\r\n        uint8 diceResult,\r\n        uint256 fee,\r\n        address game\r\n    );\r\n    event LimitsAndChancesChanged(\r\n        uint256 maxLimit,\r\n        uint256 minLimit,\r\n        bool limitTypeFixed,\r\n        uint8 feeFromBet,\r\n        uint8 feePercFromWin\r\n    );\r\n    event GameRefunded(\r\n        uint256 indexed nonce,\r\n        address indexed player,\r\n        uint256 volume\r\n    );\r\n\r\n    event KeepFeesChanged(bool _keepFees);\r\n\r\n    IGamesHub public gamesHub;\r\n    IERC20 public token;\r\n    uint256 public totalBet;\r\n    uint256 public maxLimit = 1000 * (10 ** 6); //default 1000 USDC\r\n    uint256 public minLimit = 1 * (10 ** 6); //default 1 USDC\r\n    uint256 public feeFromBet = 7 * (10 ** 4); //default 7 cents\r\n    uint8 public feePercFromWin = 15;\r\n    bool limitTypeFixed = true;\r\n    bool keepFees = false;\r\n    uint256 totalGames = 0;\r\n\r\n    struct Games {\r\n        address player;\r\n        uint256 amount;\r\n        uint8[5] bet;\r\n        mapping(uint8 => bool) sides; // true if the side is bet\r\n        uint8 sizeBet; // number of sides bet\r\n        uint8 result; // 0- not set, 1- win, 2- lose, 3- refunded\r\n    }\r\n    mapping(uint256 => Games) public games;\r\n\r\n    mapping(uint256 => uint256) gameNonce;\r\n\r\n    address private supraAddr;\r\n    address private deployer;\r\n    uint16 public requestConfirmations;\r\n\r\n    constructor(\r\n        address supraSC,\r\n        uint16 _requestConfirmations,\r\n        address _gamesHub\r\n    ) {\r\n        gamesHub = IGamesHub(_gamesHub);\r\n        token = IERC20(gamesHub.helpers(keccak256(\"TOKEN\")));\r\n        totalBet = 0;\r\n        supraAddr = supraSC;\r\n        deployer = msg.sender;\r\n        requestConfirmations = _requestConfirmations;\r\n    }\r\n\r\n    /**\r\n     * @dev Roll the dice, sending the numbers from 1 to 6\r\n     * Repeated numbers will be ignored\r\n     * @param _sides Array of 5 sides to bet on (numbers 1 to 6, 0 if side not chosen)\r\n     * @param _amount Amount of tokens to bet\r\n     */\r\n    function rollDice(uint8[5] memory _sides, uint256 _amount) external {\r\n        uint256 balance = token.balanceOf(address(this));\r\n\r\n        if (limitTypeFixed) {\r\n            require(_amount <= maxLimit && _amount >= minLimit, \"DC-01\");\r\n        } else {\r\n            require(\r\n                _amount <= (maxLimit * balance) / 100 &&\r\n                    _amount >= (minLimit * balance) / 100,\r\n                \"DC-01\"\r\n            );\r\n        }\r\n\r\n        require(balance >= ((totalBet + _amount) * 6), \"DC-02\");\r\n\r\n        gamesHub.incrementNonce();\r\n\r\n        for (uint8 i = 0; i < 5; i++) {\r\n            if (\r\n                _sides[i] > 0 &&\r\n                _sides[i] < 7 &&\r\n                !games[gamesHub.nonce()].sides[_sides[i]]\r\n            ) {\r\n                games[gamesHub.nonce()].sides[_sides[i]] = true;\r\n                games[gamesHub.nonce()].sizeBet += 1;\r\n            }\r\n        }\r\n\r\n        require(games[gamesHub.nonce()].sizeBet > 0, \"DC-09\");\r\n\r\n        _amount -= feeFromBet;\r\n\r\n        token.transferFrom(msg.sender, address(this), _amount);\r\n        // Sending fee to the house\r\n        token.transferFrom(\r\n            msg.sender,\r\n            gamesHub.helpers(keccak256(\"TREASURY\")),\r\n            feeFromBet\r\n        );\r\n\r\n        games[gamesHub.nonce()].player = msg.sender;\r\n        games[gamesHub.nonce()].amount = _amount;\r\n        games[gamesHub.nonce()].bet = _sides;\r\n\r\n        uint256 nonce = ISupraRouter(supraAddr).generateRequest(\r\n            \"callback(uint256,uint256[])\",\r\n            1,\r\n            requestConfirmations,\r\n            deployer\r\n        );\r\n        gameNonce[nonce] = gamesHub.nonce();\r\n\r\n        totalBet += _amount;\r\n        totalGames += 1;\r\n        emit DiceRolled(msg.sender, gamesHub.nonce(), nonce, _amount);\r\n    }\r\n\r\n    /**\r\n     * @dev Callback function from the SupraOracles contract\r\n     * It will determine if the player won or lost and send the tokens to the player if he won\r\n     * @param nonce Request ID of the random number\r\n     * @param rngList Random number\r\n     */\r\n    function callback(uint256 nonce, uint256[] calldata rngList) external {\r\n        Games storage game = games[gameNonce[nonce]];\r\n        if (game.result > 0) return;\r\n\r\n        uint256 volume = 0;\r\n        uint256 _fee = 0;\r\n        uint8 diceResult = uint8((rngList[0] % 6)) + 1;\r\n\r\n        if (game.sides[diceResult]) {\r\n            game.result = 1;\r\n            volume = (game.amount * 6) / game.sizeBet;\r\n            _fee = ((volume - game.amount) * feePercFromWin) / 1000;\r\n\r\n            volume -= _fee;\r\n            token.transfer(game.player, volume);\r\n            if (keepFees)\r\n                token.transfer(gamesHub.helpers(keccak256(\"TREASURY\")), _fee);\r\n        } else {\r\n            game.result = 2;\r\n        }\r\n        totalBet -= game.amount;\r\n\r\n        emit GameFinished(\r\n            gameNonce[nonce],\r\n            game.player,\r\n            game.amount,\r\n            volume,\r\n            game.result,\r\n            diceResult,\r\n            _fee,\r\n            address(this)\r\n        );\r\n    }\r\n\r\n    /**\r\n     * @dev Refund the game to the player. To use only if some game is stuck.\r\n     * @param _nonce Nonce of the game\r\n     */\r\n    function refundGame(uint256 _nonce) external {\r\n        require(gamesHub.checkRole(gamesHub.ADMIN_ROLE(), msg.sender), \"DC-05\");\r\n        Games storage game = games[_nonce];\r\n        require(game.result == 0, \"DC-04\");\r\n\r\n        token.transfer(game.player, game.amount);\r\n        totalBet -= game.amount;\r\n        game.result = 3;\r\n\r\n        emit GameRefunded(_nonce, game.player, game.amount);\r\n    }\r\n\r\n    /**\r\n     * @dev Change the house chance and bet limit\r\n     * @param _maxLimit maximum bet limit\r\n     * @param _minLimit minimum bet limit\r\n     * @param _limitTypeFixed if true, the bet limit will be fixed, if false, the bet limit will be a percentage of the contract balance\r\n     * @param _feeFromBet fee from the bet\r\n     * @param _feePercFromWin fee percentage from the win\r\n     */\r\n    function changeLimitsAndChances(\r\n        uint256 _maxLimit,\r\n        uint256 _minLimit,\r\n        bool _limitTypeFixed,\r\n        uint8 _feeFromBet,\r\n        uint8 _feePercFromWin\r\n    ) public {\r\n        require(gamesHub.checkRole(gamesHub.ADMIN_ROLE(), msg.sender), \"DC-05\");\r\n        require(_maxLimit >= _minLimit, \"DC-06\");\r\n        require(_feePercFromWin <= 500, \"DC-08\");\r\n\r\n        if (!limitTypeFixed) {\r\n            require(_maxLimit <= 100 && _minLimit <= 100, \"DC-12\");\r\n        }\r\n\r\n        maxLimit = _maxLimit;\r\n        minLimit = _minLimit;\r\n        limitTypeFixed = _limitTypeFixed;\r\n        feeFromBet = _feeFromBet;\r\n        feePercFromWin = _feePercFromWin;\r\n\r\n        emit LimitsAndChancesChanged(\r\n            _minLimit,\r\n            _maxLimit,\r\n            _limitTypeFixed,\r\n            _feeFromBet,\r\n            _feePercFromWin\r\n        );\r\n    }\r\n\r\n    /**\r\n     * @dev Change the keepFees variable\r\n     * @param _keepFees New value for keepFees\r\n     */\r\n    function changeKeepFees(bool _keepFees) public {\r\n        require(gamesHub.checkRole(gamesHub.ADMIN_ROLE(), msg.sender), \"CF-05\");\r\n        keepFees = _keepFees;\r\n\r\n        emit KeepFeesChanged(_keepFees);\r\n    }\r\n\r\n    /**\r\n     * @dev Change the token address, sending the current token balance to the admin wallet\r\n     * @param _token New token address\r\n     */\r\n    function changeToken(address _token) public {\r\n        require(gamesHub.checkRole(gamesHub.ADMIN_ROLE(), msg.sender), \"DC-05\");\r\n        require(totalBet == 0, \"DC-07\");\r\n\r\n        token.transfer(gamesHub.adminWallet(), token.balanceOf(address(this)));\r\n        token = IERC20(_token);\r\n    }\r\n\r\n    /**\r\n     * @dev Withdraw tokens from the contract to the admin wallet\r\n     * @param _amount Amount of tokens to withdraw\r\n     */\r\n    function withdrawTokens(uint256 _amount) public {\r\n        require(gamesHub.checkRole(gamesHub.ADMIN_ROLE(), msg.sender), \"DC-05\");\r\n        require(totalBet == 0, \"DC-07\");\r\n\r\n        token.transfer(gamesHub.adminWallet(), _amount);\r\n    }\r\n}\r\n",
  "sourcePath": "C:\\Users\\Gabriel\\Desktop\\TribeX\\contractsV2\\contracts\\games\\DiceSupra.sol",
  "compiler": {
    "name": "solc",
    "version": "0.8.19+commit.7dd6d404.Emscripten.clang"
  },
  "schemaVersion": "3.4.16",
  "updatedAt": "2024-01-17T20:13:16.370Z",
  "networkType": "ethereum",
  "devdoc": {
    "kind": "dev",
    "methods": {
      "callback(uint256,uint256[])": {
        "details": "Callback function from the SupraOracles contract It will determine if the player won or lost and send the tokens to the player if he won",
        "params": {
          "nonce": "Request ID of the random number",
          "rngList": "Random number"
        }
      },
      "changeKeepFees(bool)": {
        "details": "Change the keepFees variable",
        "params": {
          "_keepFees": "New value for keepFees"
        }
      },
      "changeLimitsAndChances(uint256,uint256,bool,uint8,uint8)": {
        "details": "Change the house chance and bet limit",
        "params": {
          "_feeFromBet": "fee from the bet",
          "_feePercFromWin": "fee percentage from the win",
          "_limitTypeFixed": "if true, the bet limit will be fixed, if false, the bet limit will be a percentage of the contract balance",
          "_maxLimit": "maximum bet limit",
          "_minLimit": "minimum bet limit"
        }
      },
      "changeToken(address)": {
        "details": "Change the token address, sending the current token balance to the admin wallet",
        "params": {
          "_token": "New token address"
        }
      },
      "refundGame(uint256)": {
        "details": "Refund the game to the player. To use only if some game is stuck.",
        "params": {
          "_nonce": "Nonce of the game"
        }
      },
      "rollDice(uint8[5],uint256)": {
        "details": "Roll the dice, sending the numbers from 1 to 6 Repeated numbers will be ignored",
        "params": {
          "_amount": "Amount of tokens to bet",
          "_sides": "Array of 5 sides to bet on (numbers 1 to 6, 0 if side not chosen)"
        }
      },
      "withdrawTokens(uint256)": {
        "details": "Withdraw tokens from the contract to the admin wallet",
        "params": {
          "_amount": "Amount of tokens to withdraw"
        }
      }
    },
    "version": 1
  },
  "userdoc": {
    "kind": "user",
    "methods": {},
    "version": 1
  }
}