{
  "contractName": "GamesHub",
  "abi": [
    {
      "inputs": [],
      "stateMutability": "nonpayable",
      "type": "constructor"
    },
    {
      "anonymous": false,
      "inputs": [
        {
          "indexed": false,
          "internalType": "bytes32",
          "name": "gameName",
          "type": "bytes32"
        },
        {
          "indexed": false,
          "internalType": "bytes",
          "name": "data",
          "type": "bytes"
        },
        {
          "indexed": false,
          "internalType": "bytes",
          "name": "returnData",
          "type": "bytes"
        }
      ],
      "name": "ExecutedCall",
      "type": "event"
    },
    {
      "anonymous": false,
      "inputs": [
        {
          "indexed": false,
          "internalType": "address",
          "name": "_contract",
          "type": "address"
        },
        {
          "indexed": false,
          "internalType": "bytes32",
          "name": "_role",
          "type": "bytes32"
        }
      ],
      "name": "GameContractRemoved",
      "type": "event"
    },
    {
      "anonymous": false,
      "inputs": [
        {
          "indexed": false,
          "internalType": "address",
          "name": "_contract",
          "type": "address"
        },
        {
          "indexed": false,
          "internalType": "bytes32",
          "name": "_role",
          "type": "bytes32"
        }
      ],
      "name": "GameContractSet",
      "type": "event"
    },
    {
      "anonymous": false,
      "inputs": [
        {
          "indexed": false,
          "internalType": "uint256",
          "name": "nonce",
          "type": "uint256"
        }
      ],
      "name": "NonceIncremented",
      "type": "event"
    },
    {
      "anonymous": false,
      "inputs": [
        {
          "indexed": false,
          "internalType": "address",
          "name": "player",
          "type": "address"
        },
        {
          "indexed": false,
          "internalType": "bytes32",
          "name": "game",
          "type": "bytes32"
        },
        {
          "indexed": false,
          "internalType": "uint256",
          "name": "volumeIn",
          "type": "uint256"
        },
        {
          "indexed": false,
          "internalType": "uint256",
          "name": "volumeOut",
          "type": "uint256"
        },
        {
          "indexed": false,
          "internalType": "bool",
          "name": "win",
          "type": "bool"
        },
        {
          "indexed": false,
          "internalType": "bool",
          "name": "loss",
          "type": "bool"
        }
      ],
      "name": "PlayerRankingChanged",
      "type": "event"
    },
    {
      "anonymous": false,
      "inputs": [
        {
          "indexed": true,
          "internalType": "bytes32",
          "name": "role",
          "type": "bytes32"
        },
        {
          "indexed": true,
          "internalType": "bytes32",
          "name": "previousAdminRole",
          "type": "bytes32"
        },
        {
          "indexed": true,
          "internalType": "bytes32",
          "name": "newAdminRole",
          "type": "bytes32"
        }
      ],
      "name": "RoleAdminChanged",
      "type": "event"
    },
    {
      "anonymous": false,
      "inputs": [
        {
          "indexed": true,
          "internalType": "bytes32",
          "name": "role",
          "type": "bytes32"
        },
        {
          "indexed": true,
          "internalType": "address",
          "name": "account",
          "type": "address"
        },
        {
          "indexed": true,
          "internalType": "address",
          "name": "sender",
          "type": "address"
        }
      ],
      "name": "RoleGranted",
      "type": "event"
    },
    {
      "anonymous": false,
      "inputs": [
        {
          "indexed": true,
          "internalType": "bytes32",
          "name": "role",
          "type": "bytes32"
        },
        {
          "indexed": true,
          "internalType": "address",
          "name": "account",
          "type": "address"
        },
        {
          "indexed": true,
          "internalType": "address",
          "name": "sender",
          "type": "address"
        }
      ],
      "name": "RoleRevoked",
      "type": "event"
    },
    {
      "anonymous": false,
      "inputs": [
        {
          "indexed": false,
          "internalType": "address",
          "name": "_adminWallet",
          "type": "address"
        }
      ],
      "name": "SetAdminWallet",
      "type": "event"
    },
    {
      "inputs": [],
      "name": "ADMIN_ROLE",
      "outputs": [
        {
          "internalType": "bytes32",
          "name": "",
          "type": "bytes32"
        }
      ],
      "stateMutability": "view",
      "type": "function",
      "constant": true
    },
    {
      "inputs": [],
      "name": "CREDIT_POOL",
      "outputs": [
        {
          "internalType": "bytes32",
          "name": "",
          "type": "bytes32"
        }
      ],
      "stateMutability": "view",
      "type": "function",
      "constant": true
    },
    {
      "inputs": [],
      "name": "DEFAULT_ADMIN_ROLE",
      "outputs": [
        {
          "internalType": "bytes32",
          "name": "",
          "type": "bytes32"
        }
      ],
      "stateMutability": "view",
      "type": "function",
      "constant": true
    },
    {
      "inputs": [],
      "name": "DEV_ROLE",
      "outputs": [
        {
          "internalType": "bytes32",
          "name": "",
          "type": "bytes32"
        }
      ],
      "stateMutability": "view",
      "type": "function",
      "constant": true
    },
    {
      "inputs": [],
      "name": "GAME_CONTRACT",
      "outputs": [
        {
          "internalType": "bytes32",
          "name": "",
          "type": "bytes32"
        }
      ],
      "stateMutability": "view",
      "type": "function",
      "constant": true
    },
    {
      "inputs": [],
      "name": "NFT_POOL",
      "outputs": [
        {
          "internalType": "bytes32",
          "name": "",
          "type": "bytes32"
        }
      ],
      "stateMutability": "view",
      "type": "function",
      "constant": true
    },
    {
      "inputs": [],
      "name": "adminWallet",
      "outputs": [
        {
          "internalType": "address",
          "name": "",
          "type": "address"
        }
      ],
      "stateMutability": "view",
      "type": "function",
      "constant": true
    },
    {
      "inputs": [
        {
          "internalType": "bytes32",
          "name": "",
          "type": "bytes32"
        }
      ],
      "name": "games",
      "outputs": [
        {
          "internalType": "address",
          "name": "",
          "type": "address"
        }
      ],
      "stateMutability": "view",
      "type": "function",
      "constant": true
    },
    {
      "inputs": [
        {
          "internalType": "bytes32",
          "name": "role",
          "type": "bytes32"
        }
      ],
      "name": "getRoleAdmin",
      "outputs": [
        {
          "internalType": "bytes32",
          "name": "",
          "type": "bytes32"
        }
      ],
      "stateMutability": "view",
      "type": "function",
      "constant": true
    },
    {
      "inputs": [
        {
          "internalType": "bytes32",
          "name": "role",
          "type": "bytes32"
        },
        {
          "internalType": "address",
          "name": "account",
          "type": "address"
        }
      ],
      "name": "grantRole",
      "outputs": [],
      "stateMutability": "nonpayable",
      "type": "function"
    },
    {
      "inputs": [
        {
          "internalType": "bytes32",
          "name": "role",
          "type": "bytes32"
        },
        {
          "internalType": "address",
          "name": "account",
          "type": "address"
        }
      ],
      "name": "hasRole",
      "outputs": [
        {
          "internalType": "bool",
          "name": "",
          "type": "bool"
        }
      ],
      "stateMutability": "view",
      "type": "function",
      "constant": true
    },
    {
      "inputs": [
        {
          "internalType": "bytes32",
          "name": "",
          "type": "bytes32"
        }
      ],
      "name": "helpers",
      "outputs": [
        {
          "internalType": "address",
          "name": "",
          "type": "address"
        }
      ],
      "stateMutability": "view",
      "type": "function",
      "constant": true
    },
    {
      "inputs": [],
      "name": "nonce",
      "outputs": [
        {
          "internalType": "uint256",
          "name": "",
          "type": "uint256"
        }
      ],
      "stateMutability": "view",
      "type": "function",
      "constant": true
    },
    {
      "inputs": [
        {
          "internalType": "bytes32",
          "name": "role",
          "type": "bytes32"
        },
        {
          "internalType": "address",
          "name": "account",
          "type": "address"
        }
      ],
      "name": "renounceRole",
      "outputs": [],
      "stateMutability": "nonpayable",
      "type": "function"
    },
    {
      "inputs": [
        {
          "internalType": "bytes32",
          "name": "role",
          "type": "bytes32"
        },
        {
          "internalType": "address",
          "name": "account",
          "type": "address"
        }
      ],
      "name": "revokeRole",
      "outputs": [],
      "stateMutability": "nonpayable",
      "type": "function"
    },
    {
      "inputs": [
        {
          "internalType": "bytes4",
          "name": "interfaceId",
          "type": "bytes4"
        }
      ],
      "name": "supportsInterface",
      "outputs": [
        {
          "internalType": "bool",
          "name": "",
          "type": "bool"
        }
      ],
      "stateMutability": "view",
      "type": "function",
      "constant": true
    },
    {
      "inputs": [
        {
          "internalType": "address",
          "name": "_adminWallet",
          "type": "address"
        }
      ],
      "name": "setAdminWallet",
      "outputs": [],
      "stateMutability": "nonpayable",
      "type": "function"
    },
    {
      "inputs": [
        {
          "internalType": "address",
          "name": "_contract",
          "type": "address"
        },
        {
          "internalType": "bytes32",
          "name": "_name",
          "type": "bytes32"
        },
        {
          "internalType": "bool",
          "name": "_isHelper",
          "type": "bool"
        }
      ],
      "name": "setGameContact",
      "outputs": [],
      "stateMutability": "nonpayable",
      "type": "function"
    },
    {
      "inputs": [
        {
          "internalType": "address",
          "name": "_contract",
          "type": "address"
        },
        {
          "internalType": "bytes32",
          "name": "_name",
          "type": "bytes32"
        },
        {
          "internalType": "bool",
          "name": "_isHelper",
          "type": "bool"
        }
      ],
      "name": "removeGameContact",
      "outputs": [],
      "stateMutability": "nonpayable",
      "type": "function"
    },
    {
      "inputs": [
        {
          "internalType": "bytes32",
          "name": "gameName",
          "type": "bytes32"
        },
        {
          "internalType": "bytes",
          "name": "data",
          "type": "bytes"
        },
        {
          "internalType": "bool",
          "name": "isHelper",
          "type": "bool"
        },
        {
          "internalType": "bool",
          "name": "sendSender",
          "type": "bool"
        }
      ],
      "name": "executeCall",
      "outputs": [
        {
          "internalType": "bytes",
          "name": "",
          "type": "bytes"
        }
      ],
      "stateMutability": "nonpayable",
      "type": "function"
    },
    {
      "inputs": [
        {
          "internalType": "address",
          "name": "player",
          "type": "address"
        },
        {
          "internalType": "bytes32",
          "name": "game",
          "type": "bytes32"
        },
        {
          "internalType": "uint256",
          "name": "volumeIn",
          "type": "uint256"
        },
        {
          "internalType": "uint256",
          "name": "volumeOut",
          "type": "uint256"
        },
        {
          "internalType": "bool",
          "name": "win",
          "type": "bool"
        },
        {
          "internalType": "bool",
          "name": "loss",
          "type": "bool"
        }
      ],
      "name": "changePlayerRanking",
      "outputs": [],
      "stateMutability": "nonpayable",
      "type": "function"
    },
    {
      "inputs": [],
      "name": "incrementNonce",
      "outputs": [],
      "stateMutability": "nonpayable",
      "type": "function"
    },
    {
      "inputs": [],
      "name": "getCreditPool",
      "outputs": [
        {
          "internalType": "address",
          "name": "",
          "type": "address"
        }
      ],
      "stateMutability": "view",
      "type": "function",
      "constant": true
    },
    {
      "inputs": [],
      "name": "getNFTPool",
      "outputs": [
        {
          "internalType": "address",
          "name": "",
          "type": "address"
        }
      ],
      "stateMutability": "view",
      "type": "function",
      "constant": true
    },
    {
      "inputs": [],
      "name": "retrieveTimestamp",
      "outputs": [
        {
          "internalType": "uint256",
          "name": "",
          "type": "uint256"
        }
      ],
      "stateMutability": "view",
      "type": "function",
      "constant": true
    },
    {
      "inputs": [
        {
          "internalType": "bytes32",
          "name": "role",
          "type": "bytes32"
        },
        {
          "internalType": "address",
          "name": "account",
          "type": "address"
        }
      ],
      "name": "checkRole",
      "outputs": [
        {
          "internalType": "bool",
          "name": "",
          "type": "bool"
        }
      ],
      "stateMutability": "view",
      "type": "function",
      "constant": true
    },
    {
      "inputs": [
        {
          "internalType": "address",
          "name": "player",
          "type": "address"
        }
      ],
      "name": "playerRanking",
      "outputs": [
        {
          "internalType": "bytes32",
          "name": "",
          "type": "bytes32"
        },
        {
          "internalType": "uint256",
          "name": "",
          "type": "uint256"
        },
        {
          "internalType": "uint256",
          "name": "",
          "type": "uint256"
        },
        {
          "internalType": "uint256",
          "name": "",
          "type": "uint256"
        },
        {
          "internalType": "uint256",
          "name": "",
          "type": "uint256"
        }
      ],
      "stateMutability": "view",
      "type": "function",
      "constant": true
    }
  ],
  "bytecode": "0x60806040523480156200001157600080fd5b506200002d60008051602062001642833981519152336200009b565b620000687fb1e380c01db319c0153ea3bb4fbd0ab6639cc088e3bf8cd5319b128f33a2f9e8600080516020620016428339815191526200013c565b6200008360008051602062001642833981519152806200013c565b600580546001600160a01b0319163317905562000187565b6000828152602081815260408083206001600160a01b038516845290915290205460ff1662000138576000828152602081815260408083206001600160a01b03851684529091529020805460ff19166001179055620000f73390565b6001600160a01b0316816001600160a01b0316837f2f8788117e7eff1d82e926ec794901d17c78024a50270940304540a733656f0d60405160405180910390a45b5050565b600082815260208190526040808220600101805490849055905190918391839186917fbd79b86ffe0ab8e8776151514217cd7cacd52c909f66475c3af44e129f0b00ff9190a4505050565b6114ab80620001976000396000f3fe608060405234801561001057600080fd5b50600436106101a85760003560e01c80638aff6411116100f9578063ad945dfc11610097578063daf8bbb911610071578063daf8bbb9146104e0578063f579f882146104e6578063f6c14e831461050f578063fcf0f0d31461052f57600080fd5b8063ad945dfc1461049d578063affed0e0146104c4578063d547741f146104cd57600080fd5b806391d14854116100d357806391d14854146103c357806396dc76c4146103d6578063a217fddf1461046c578063a7ad58bf1461047457600080fd5b80638aff64111461033057806390e285fc14610357578063918c2143146103b057600080fd5b806336568abe11610166578063627cdcb911610140578063627cdcb9146102eb57806375b238fc146102f357806377e1e4d7146103085780638577cb531461031d57600080fd5b806336568abe1461025457806336b19cd71461026757806350f747051461029257600080fd5b8062a12a8b146101ad57806301ffc9a7146101c257806312d9a6ad146101ea578063248a9ca3146101fd5780632f2ff15d1461022e5780633508293314610241575b600080fd5b6101c06101bb366004611032565b610556565b005b6101d56101d036600461106e565b610691565b60405190151581526020015b60405180910390f35b6101d56101f8366004611098565b6106c8565b61022061020b3660046110c4565b60009081526020819052604090206001015490565b6040519081526020016101e1565b6101c061023c366004611098565b6106db565b6101c061024f3660046110dd565b610705565b6101c0610262366004611098565b6107ab565b60055461027a906001600160a01b031681565b6040516001600160a01b0390911681526020016101e1565b7fb879a362476a21f747813f7d646a6f06ad5fc5843e98c8f5ecfb2f725df9e56a60005260016020527f25c43dc52758aad2c56b1206424ca3552e61306496a700cfe9e9624cc82f3ca3546001600160a01b031661027a565b6101c0610829565b61022060008051602061143683398151915281565b61022060008051602061145683398151915281565b6101c061032b3660046110f8565b6108cb565b6102207f99ba1e66592c57257e452d814aa6f8ae72f47df1c32d0ffa96fa03b4f74033cd81565b7f99ba1e66592c57257e452d814aa6f8ae72f47df1c32d0ffa96fa03b4f74033cd60005260016020527fc06a9f31881d4e5c890bea435be251774526c3e8ad33ed5d169e4623f02eefac546001600160a01b031661027a565b6101c06103be366004611032565b610a14565b6101d56103d1366004611098565b610b27565b6104446103e43660046110dd565b6001600160a01b0316600090815260036020818152604092839020835160a0810185528154808252600183015493820184905260028301549582018690529382015460608201819052600490920154608090910181905292949193929091565b604080519586526020860194909452928401919091526060830152608082015260a0016101e1565b610220600081565b61027a6104823660046110c4565b6002602052600090815260409020546001600160a01b031681565b6102207fb879a362476a21f747813f7d646a6f06ad5fc5843e98c8f5ecfb2f725df9e56a81565b61022060045481565b6101c06104db366004611098565b610b50565b42610220565b61027a6104f43660046110c4565b6001602052600090815260409020546001600160a01b031681565b61052261051d36600461116d565b610b75565b6040516101e19190611299565b6102207fb1e380c01db319c0153ea3bb4fbd0ab6639cc088e3bf8cd5319b128f33a2f9e881565b61056e60008051602061145683398151915233610b27565b8061058c575061058c60008051602061143683398151915233610b27565b6105b15760405162461bcd60e51b81526004016105a8906112ac565b60405180910390fd5b7fc5d2460186f7233c927e7db2dcc703c0e500b653ca82273b7bfad8045d85a4708214610631578061060957600082815260016020526040902080546001600160a01b0319166001600160a01b038516179055610631565b600082815260026020526040902080546001600160a01b0319166001600160a01b0385161790555b61064960008051602061145683398151915284610d09565b604080516001600160a01b0385168152602081018490527fac7dd793e0288f7b3f4499ad3edaee45f8f98cff9dd5881fa5823e70739033ba91015b60405180910390a1505050565b60006001600160e01b03198216637965db0b60e01b14806106c257506301ffc9a760e01b6001600160e01b03198316145b92915050565b60006106d48383610b27565b9392505050565b6000828152602081905260409020600101546106f681610d8d565b6107008383610d09565b505050565b61071d60008051602061145683398151915233610b27565b8061073b575061073b60008051602061143683398151915233610b27565b6107575760405162461bcd60e51b81526004016105a8906112ac565b600580546001600160a01b0319166001600160a01b0383169081179091556040519081527f1b651cfd0a3f185590087e7e632381434dfada46f037b9081264f9f5bdbfcd9b9060200160405180910390a150565b6001600160a01b038116331461081b5760405162461bcd60e51b815260206004820152602f60248201527f416363657373436f6e74726f6c3a2063616e206f6e6c792072656e6f756e636560448201526e103937b632b9903337b91039b2b63360891b60648201526084016105a8565b6108258282610d9a565b5050565b61084160008051602061145683398151915233610b27565b8061085f575061085f60008051602061143683398151915233610b27565b61087b5760405162461bcd60e51b81526004016105a8906112ac565b60016004600082825461088e91906112e1565b90915550506004546040519081527f3396aba31d3216d4a383421ce055698b867b4161fc143cbc438debb6ac57ff969060200160405180910390a1565b6108e360008051602061145683398151915233610b27565b80610901575061090160008051602061143683398151915233610b27565b61091d5760405162461bcd60e51b81526004016105a8906112ac565b6001600160a01b038616600090815260036020526040902085815560018101546109489086906112e1565b6001820155600281015461095d9085906112e1565b600282015582610971578060030154610981565b60038101546109819060016112e1565b6003820155816109955780600401546109a5565b60048101546109a59060016112e1565b6004820155604080516001600160a01b03891681526020810188905290810186905260608101859052831515608082015282151560a08201527f493304e0307a2605e268a58cc5a9c5f99af29c3ab5d43784ae417d3cf8df2b249060c00160405180910390a150505050505050565b610a2c60008051602061145683398151915233610b27565b80610a4a5750610a4a60008051602061143683398151915233610b27565b610a665760405162461bcd60e51b81526004016105a8906112ac565b610a7e60008051602061145683398151915284610d9a565b7fc5d2460186f7233c927e7db2dcc703c0e500b653ca82273b7bfad8045d85a4708214610ae85780610acb57600082815260016020526040902080546001600160a01b0319169055610ae8565b600082815260026020526040902080546001600160a01b03191690555b604080516001600160a01b0385168152602081018490527f0caa732f7c267389e12cf9a213c6540659f7578795cc32dcd179e30bba25b0a99101610684565b6000918252602082815260408084206001600160a01b0393909316845291905290205460ff1690565b600082815260208190526040902060010154610b6b81610d8d565b6107008383610d9a565b6060600083610b9b576000868152600160205260409020546001600160a01b0316610bb4565b6000868152600260205260409020546001600160a01b03165b90506001600160a01b038116610bf45760405162461bcd60e51b815260206004820152600560248201526423a416981960d91b60448201526064016105a8565b8215610c2c576020858101516040519091610c139188913391016112f4565b6040516020818303038152906040529550806020870152505b600080826001600160a01b031687604051610c47919061132b565b6000604051808303816000865af19150503d8060008114610c84576040519150601f19603f3d011682016040523d82523d6000602084013e610c89565b606091505b509150915081610cc35760405162461bcd60e51b815260206004820152600560248201526447482d303360d81b60448201526064016105a8565b7f9c682fc0e5f8bf434317377894563a97af72f8d1e686cb7f1bcde7b36fe336a3888883604051610cf693929190611347565b60405180910390a1979650505050505050565b610d138282610b27565b610825576000828152602081815260408083206001600160a01b03851684529091529020805460ff19166001179055610d493390565b6001600160a01b0316816001600160a01b0316837f2f8788117e7eff1d82e926ec794901d17c78024a50270940304540a733656f0d60405160405180910390a45050565b610d978133610dff565b50565b610da48282610b27565b15610825576000828152602081815260408083206001600160a01b0385168085529252808320805460ff1916905551339285917ff6391f5c32d9c69d2a47ea670b442974b53935d1edc7fd64eb21e047a839171b9190a45050565b610e098282610b27565b61082557610e1681610e58565b610e21836020610e6a565b604051602001610e3292919061137c565b60408051601f198184030181529082905262461bcd60e51b82526105a891600401611299565b60606106c26001600160a01b03831660145b60606000610e798360026113f1565b610e849060026112e1565b67ffffffffffffffff811115610e9c57610e9c611157565b6040519080825280601f01601f191660200182016040528015610ec6576020820181803683370190505b509050600360fc1b81600081518110610ee157610ee1611408565b60200101906001600160f81b031916908160001a905350600f60fb1b81600181518110610f1057610f10611408565b60200101906001600160f81b031916908160001a9053506000610f348460026113f1565b610f3f9060016112e1565b90505b6001811115610fb7576f181899199a1a9b1b9c1cb0b131b232b360811b85600f1660108110610f7357610f73611408565b1a60f81b828281518110610f8957610f89611408565b60200101906001600160f81b031916908160001a90535060049490941c93610fb08161141e565b9050610f42565b5083156106d45760405162461bcd60e51b815260206004820181905260248201527f537472696e67733a20686578206c656e67746820696e73756666696369656e7460448201526064016105a8565b80356001600160a01b038116811461101d57600080fd5b919050565b8035801515811461101d57600080fd5b60008060006060848603121561104757600080fd5b61105084611006565b92506020840135915061106560408501611022565b90509250925092565b60006020828403121561108057600080fd5b81356001600160e01b0319811681146106d457600080fd5b600080604083850312156110ab57600080fd5b823591506110bb60208401611006565b90509250929050565b6000602082840312156110d657600080fd5b5035919050565b6000602082840312156110ef57600080fd5b6106d482611006565b60008060008060008060c0878903121561111157600080fd5b61111a87611006565b955060208701359450604087013593506060870135925061113d60808801611022565b915061114b60a08801611022565b90509295509295509295565b634e487b7160e01b600052604160045260246000fd5b6000806000806080858703121561118357600080fd5b84359350602085013567ffffffffffffffff808211156111a257600080fd5b818701915087601f8301126111b657600080fd5b8135818111156111c8576111c8611157565b604051601f8201601f19908116603f011681019083821181831017156111f0576111f0611157565b816040528281528a602084870101111561120957600080fd5b82602086016020830137600060208483010152809750505050505061123060408601611022565b915061123e60608601611022565b905092959194509250565b60005b8381101561126457818101518382015260200161124c565b50506000910152565b60008151808452611285816020860160208601611249565b601f01601f19169290920160200192915050565b6020815260006106d4602083018461126d565b60208082526005908201526447482d303160d81b604082015260600190565b634e487b7160e01b600052601160045260246000fd5b808201808211156106c2576106c26112cb565b60008351611306818460208801611249565b60609390931b6bffffffffffffffffffffffff19169190920190815260140192915050565b6000825161133d818460208701611249565b9190910192915050565b838152606060208201526000611360606083018561126d565b8281036040840152611372818561126d565b9695505050505050565b7f416363657373436f6e74726f6c3a206163636f756e74200000000000000000008152600083516113b4816017850160208801611249565b7001034b99036b4b9b9b4b733903937b6329607d1b60179184019182015283516113e5816028840160208801611249565b01602801949350505050565b80820281158282048414176106c2576106c26112cb565b634e487b7160e01b600052603260045260246000fd5b60008161142d5761142d6112cb565b50600019019056fedf8b4c520ffe197c5343c6f5aec59570151ef9a492f2c624fd45ddde6135ec42d13d8e3c8822ff4d0a39994f3616e22d61c97585cee7a1baf4e9a875726b5f15a2646970667358221220d5dc54e57dce013b6868e87f7b863f67cd31ed145ff4f1c6046ae197f2132ddc64736f6c63430008130033df8b4c520ffe197c5343c6f5aec59570151ef9a492f2c624fd45ddde6135ec42",
  "immutableReferences": {},
  "source": "// SPDX-License-Identifier: MIT\r\npragma solidity ^0.8.19;\r\n\r\nimport \"@openzeppelin/contracts/access/AccessControl.sol\";\r\nimport \"./interfaces/IGamesHub.sol\";\r\n\r\ncontract GamesHub is AccessControl, IGamesHub {\r\n    //// Constants ////\r\n    // Roles\r\n    bytes32 public constant override ADMIN_ROLE = keccak256(\"ADMIN\");\r\n    bytes32 public constant override DEV_ROLE = keccak256(\"DEV\");\r\n    bytes32 public constant override GAME_CONTRACT = keccak256(\"GAME\");\r\n\r\n    // Contracts\r\n    bytes32 public constant override NFT_POOL = keccak256(\"NFT_POOL\");\r\n    bytes32 public constant override CREDIT_POOL = keccak256(\"CREDIT_POOL\");\r\n\r\n    //// Variables ////\r\n    mapping(bytes32 => address) public override games;\r\n    mapping(bytes32 => address) public override helpers;\r\n    mapping(address => PlayerRanking) private _playerRanking;\r\n    uint256 public override nonce;\r\n\r\n    address public override adminWallet;\r\n\r\n    constructor() {\r\n        _grantRole(ADMIN_ROLE, msg.sender);\r\n        _setRoleAdmin(DEV_ROLE, ADMIN_ROLE);\r\n        _setRoleAdmin(ADMIN_ROLE, ADMIN_ROLE);\r\n        adminWallet = msg.sender;\r\n    }\r\n\r\n    /**\r\n     * @dev Throws if called by any account other than project contracts.\r\n     */\r\n    modifier onlyProject() {\r\n        require(\r\n            hasRole(GAME_CONTRACT, msg.sender) ||\r\n                hasRole(ADMIN_ROLE, msg.sender),\r\n            \"GH-01\"\r\n        );\r\n        _;\r\n    }\r\n\r\n    //// Mutators ////\r\n\r\n    /**\r\n     * @dev Set the admin wallet address\r\n     * @param _adminWallet Address of the admin wallet\r\n     */\r\n    function setAdminWallet(address _adminWallet) public onlyProject {\r\n        adminWallet = _adminWallet;\r\n        emit SetAdminWallet(_adminWallet);\r\n    }\r\n\r\n    /**\r\n     * @dev Set the game contract address\r\n     * @param _contract Address of the contract\r\n     * @param _name Name of the contract\r\n     * @param _isHelper Is the contract a helper? If false, it's a game contract\r\n     */\r\n    function setGameContact(\r\n        address _contract,\r\n        bytes32 _name,\r\n        bool _isHelper\r\n    ) public onlyProject {\r\n        if (_name != keccak256(\"\")) {\r\n            if (!_isHelper) games[_name] = _contract;\r\n            else helpers[_name] = _contract;\r\n        }\r\n        _grantRole(GAME_CONTRACT, _contract);\r\n        emit GameContractSet(_contract, _name);\r\n    }\r\n\r\n    /**\r\n     * @dev Remove the game contract address\r\n     * @param _contract Address of the contract\r\n     * @param _name Name of the contract\r\n     * @param _isHelper Is the contract a helper? If false, it's a game contract\r\n     */\r\n    function removeGameContact(\r\n        address _contract,\r\n        bytes32 _name,\r\n        bool _isHelper\r\n    ) public onlyProject {\r\n        _revokeRole(GAME_CONTRACT, _contract);\r\n        if (_name != keccak256(\"\")) {\r\n            if (!_isHelper) delete games[_name];\r\n            else delete helpers[_name];\r\n        }\r\n        emit GameContractRemoved(_contract, _name);\r\n    }\r\n\r\n    /**\r\n     * @dev Execute a call to a contract\r\n     * @param gameName Name of the contract\r\n     * @param data Data to send to the contract\r\n     * @param isHelper Is the contract a helper? If false, it's a game contract\r\n     * @param sendSender Should the sender be sent to the contract?\r\n     * @return bytes Return data from the contract\r\n     */\r\n    function executeCall(\r\n        bytes32 gameName,\r\n        bytes memory data,\r\n        bool isHelper,\r\n        bool sendSender\r\n    ) public returns (bytes memory) {\r\n        address projectContract = isHelper\r\n            ? helpers[gameName]\r\n            : games[gameName];\r\n        require(projectContract != address(0), \"GH-02\");\r\n\r\n        if (sendSender) {\r\n            // Step 1: Extract the function signature (first 4 bytes)\r\n            bytes4 functionSignature;\r\n            assembly {\r\n                functionSignature := mload(add(data, 32))\r\n            }\r\n\r\n            // Step 2: Create new payload with msg.sender\r\n            data = abi.encodePacked(data, msg.sender);\r\n\r\n            // Replace first 4 bytes with the original function signature\r\n            assembly {\r\n                mstore(add(data, 32), functionSignature)\r\n            }\r\n        }\r\n\r\n        // Step 3: Execute the call with the modified payload\r\n        (bool success, bytes memory returnData) = projectContract.call(\r\n            data\r\n        );\r\n        require(success, \"GH-03\");\r\n        emit ExecutedCall(gameName, data, returnData);\r\n        return (returnData);\r\n    }\r\n\r\n    /**\r\n     * @dev Change the player ranking\r\n     * @param player Address of the player\r\n     * @param game Name of the game\r\n     * @param volumeIn Volume in\r\n     * @param volumeOut Volume out\r\n     * @param win Did the player win?\r\n     * @param loss Did the player lose?\r\n     */\r\n    function changePlayerRanking(\r\n        address player,\r\n        bytes32 game,\r\n        uint256 volumeIn,\r\n        uint256 volumeOut,\r\n        bool win,\r\n        bool loss\r\n    ) public onlyProject {\r\n        PlayerRanking storage ranking = _playerRanking[player];\r\n        ranking.game = game;\r\n        ranking.volumeIn = ranking.volumeIn + volumeIn;\r\n        ranking.volumeOut = ranking.volumeOut + volumeOut;\r\n        ranking.wins = win ? ranking.wins + 1 : ranking.wins;\r\n        ranking.losses = loss ? ranking.losses + 1 : ranking.losses;\r\n\r\n        emit PlayerRankingChanged(\r\n            player,\r\n            game,\r\n            volumeIn,\r\n            volumeOut,\r\n            win,\r\n            loss\r\n        );\r\n    }\r\n\r\n    /**\r\n     * @dev Increment the nonce\r\n     */\r\n    function incrementNonce() public onlyProject {\r\n        nonce += 1;\r\n\r\n        emit NonceIncremented(nonce);\r\n    }\r\n\r\n    //// Getters ////\r\n\r\n    /**\r\n     * @dev Retrieve the creditPool contract address\r\n     */\r\n    function getCreditPool() public view returns (address) {\r\n        return games[CREDIT_POOL];\r\n    }\r\n\r\n    /**\r\n     * @dev Retrieve the nftPool contract address\r\n     */\r\n    function getNFTPool() public view returns (address) {\r\n        return games[NFT_POOL];\r\n    }\r\n\r\n    /**\r\n     * @dev Retrieve the current block timestamp\r\n     * @return uint256 Current block timestamp\r\n     */\r\n    function retrieveTimestamp() public view returns (uint256) {\r\n        return block.timestamp;\r\n    }\r\n\r\n    /**\r\n     * @dev Returns `true` if `account` has been granted `role`.\r\n     */\r\n    function checkRole(\r\n        bytes32 role,\r\n        address account\r\n    ) public view virtual override returns (bool) {\r\n        return hasRole(role, account);\r\n    }\r\n\r\n    /**\r\n     * @dev Retrieve the player ranking\r\n     * @param player Address of the player\r\n     * @return bytes32 Name of the game\r\n     * @return uint256 Volume in\r\n     * @return uint256 Volume out\r\n     * @return uint256 Wins\r\n     * @return uint256 Losses\r\n     */\r\n    function playerRanking(\r\n        address player\r\n    ) public view override returns (bytes32, uint256, uint256, uint256, uint256) {\r\n        PlayerRanking memory ranking = _playerRanking[player];\r\n        return (\r\n            ranking.game,\r\n            ranking.volumeIn,\r\n            ranking.volumeOut,\r\n            ranking.wins,\r\n            ranking.losses\r\n        );\r\n    }\r\n}\r\n",
  "sourcePath": "C:\\Users\\Gabriel\\Desktop\\TribeX\\contractsV2\\contracts\\GamesHub.sol",
  "compiler": {
    "name": "solc",
    "version": "0.8.19+commit.7dd6d404.Emscripten.clang"
  },
  "schemaVersion": "3.4.16",
  "updatedAt": "2024-01-17T20:13:16.393Z",
  "networkType": "ethereum",
  "devdoc": {
    "events": {
      "RoleAdminChanged(bytes32,bytes32,bytes32)": {
        "details": "Emitted when `newAdminRole` is set as ``role``'s admin role, replacing `previousAdminRole` `DEFAULT_ADMIN_ROLE` is the starting admin for all roles, despite {RoleAdminChanged} not being emitted signaling this. _Available since v3.1._"
      },
      "RoleGranted(bytes32,address,address)": {
        "details": "Emitted when `account` is granted `role`. `sender` is the account that originated the contract call, an admin role bearer except when using {AccessControl-_setupRole}."
      },
      "RoleRevoked(bytes32,address,address)": {
        "details": "Emitted when `account` is revoked `role`. `sender` is the account that originated the contract call:   - if using `revokeRole`, it is the admin role bearer   - if using `renounceRole`, it is the role bearer (i.e. `account`)"
      }
    },
    "kind": "dev",
    "methods": {
      "changePlayerRanking(address,bytes32,uint256,uint256,bool,bool)": {
        "details": "Change the player ranking",
        "params": {
          "game": "Name of the game",
          "loss": "Did the player lose?",
          "player": "Address of the player",
          "volumeIn": "Volume in",
          "volumeOut": "Volume out",
          "win": "Did the player win?"
        }
      },
      "checkRole(bytes32,address)": {
        "details": "Returns `true` if `account` has been granted `role`."
      },
      "executeCall(bytes32,bytes,bool,bool)": {
        "details": "Execute a call to a contract",
        "params": {
          "data": "Data to send to the contract",
          "gameName": "Name of the contract",
          "isHelper": "Is the contract a helper? If false, it's a game contract",
          "sendSender": "Should the sender be sent to the contract?"
        },
        "returns": {
          "_0": "bytes Return data from the contract"
        }
      },
      "getCreditPool()": {
        "details": "Retrieve the creditPool contract address"
      },
      "getNFTPool()": {
        "details": "Retrieve the nftPool contract address"
      },
      "getRoleAdmin(bytes32)": {
        "details": "Returns the admin role that controls `role`. See {grantRole} and {revokeRole}. To change a role's admin, use {_setRoleAdmin}."
      },
      "grantRole(bytes32,address)": {
        "details": "Grants `role` to `account`. If `account` had not been already granted `role`, emits a {RoleGranted} event. Requirements: - the caller must have ``role``'s admin role. May emit a {RoleGranted} event."
      },
      "hasRole(bytes32,address)": {
        "details": "Returns `true` if `account` has been granted `role`."
      },
      "incrementNonce()": {
        "details": "Increment the nonce"
      },
      "playerRanking(address)": {
        "details": "Retrieve the player ranking",
        "params": {
          "player": "Address of the player"
        },
        "returns": {
          "_0": "bytes32 Name of the game",
          "_1": "uint256 Volume in",
          "_2": "uint256 Volume out",
          "_3": "uint256 Wins",
          "_4": "uint256 Losses"
        }
      },
      "removeGameContact(address,bytes32,bool)": {
        "details": "Remove the game contract address",
        "params": {
          "_contract": "Address of the contract",
          "_isHelper": "Is the contract a helper? If false, it's a game contract",
          "_name": "Name of the contract"
        }
      },
      "renounceRole(bytes32,address)": {
        "details": "Revokes `role` from the calling account. Roles are often managed via {grantRole} and {revokeRole}: this function's purpose is to provide a mechanism for accounts to lose their privileges if they are compromised (such as when a trusted device is misplaced). If the calling account had been revoked `role`, emits a {RoleRevoked} event. Requirements: - the caller must be `account`. May emit a {RoleRevoked} event."
      },
      "retrieveTimestamp()": {
        "details": "Retrieve the current block timestamp",
        "returns": {
          "_0": "uint256 Current block timestamp"
        }
      },
      "revokeRole(bytes32,address)": {
        "details": "Revokes `role` from `account`. If `account` had been granted `role`, emits a {RoleRevoked} event. Requirements: - the caller must have ``role``'s admin role. May emit a {RoleRevoked} event."
      },
      "setAdminWallet(address)": {
        "details": "Set the admin wallet address",
        "params": {
          "_adminWallet": "Address of the admin wallet"
        }
      },
      "setGameContact(address,bytes32,bool)": {
        "details": "Set the game contract address",
        "params": {
          "_contract": "Address of the contract",
          "_isHelper": "Is the contract a helper? If false, it's a game contract",
          "_name": "Name of the contract"
        }
      },
      "supportsInterface(bytes4)": {
        "details": "See {IERC165-supportsInterface}."
      }
    },
    "version": 1
  },
  "userdoc": {
    "kind": "user",
    "methods": {},
    "version": 1
  }
}